{
  "_format": "hh-sol-artifact-1",
  "contractName": "Sample",
  "sourceName": "contracts/tokens/Sample.sol",
  "abi": [
    {
      "inputs": [],
      "stateMutability": "nonpayable",
      "type": "constructor"
    },
    {
      "anonymous": false,
      "inputs": [
        {
          "indexed": false,
          "internalType": "address",
          "name": "previousAdmin",
          "type": "address"
        },
        {
          "indexed": false,
          "internalType": "address",
          "name": "newAdmin",
          "type": "address"
        }
      ],
      "name": "AdminChanged",
      "type": "event"
    },
    {
      "anonymous": false,
      "inputs": [
        {
          "indexed": true,
          "internalType": "address",
          "name": "beacon",
          "type": "address"
        }
      ],
      "name": "BeaconUpgraded",
      "type": "event"
    },
    {
      "anonymous": false,
      "inputs": [
        {
          "indexed": false,
          "internalType": "address",
          "name": "from",
          "type": "address"
        },
        {
          "indexed": false,
          "internalType": "string",
          "name": "_greeting",
          "type": "string"
        }
      ],
      "name": "GreetingChanged",
      "type": "event"
    },
    {
      "anonymous": false,
      "inputs": [
        {
          "indexed": false,
          "internalType": "uint8",
          "name": "version",
          "type": "uint8"
        }
      ],
      "name": "Initialized",
      "type": "event"
    },
    {
      "anonymous": false,
      "inputs": [
        {
          "indexed": false,
          "internalType": "address",
          "name": "account",
          "type": "address"
        }
      ],
      "name": "Paused",
      "type": "event"
    },
    {
      "anonymous": false,
      "inputs": [
        {
          "indexed": true,
          "internalType": "bytes32",
          "name": "role",
          "type": "bytes32"
        },
        {
          "indexed": true,
          "internalType": "bytes32",
          "name": "previousAdminRole",
          "type": "bytes32"
        },
        {
          "indexed": true,
          "internalType": "bytes32",
          "name": "newAdminRole",
          "type": "bytes32"
        }
      ],
      "name": "RoleAdminChanged",
      "type": "event"
    },
    {
      "anonymous": false,
      "inputs": [
        {
          "indexed": true,
          "internalType": "bytes32",
          "name": "role",
          "type": "bytes32"
        },
        {
          "indexed": true,
          "internalType": "address",
          "name": "account",
          "type": "address"
        },
        {
          "indexed": true,
          "internalType": "address",
          "name": "sender",
          "type": "address"
        }
      ],
      "name": "RoleGranted",
      "type": "event"
    },
    {
      "anonymous": false,
      "inputs": [
        {
          "indexed": true,
          "internalType": "bytes32",
          "name": "role",
          "type": "bytes32"
        },
        {
          "indexed": true,
          "internalType": "address",
          "name": "account",
          "type": "address"
        },
        {
          "indexed": true,
          "internalType": "address",
          "name": "sender",
          "type": "address"
        }
      ],
      "name": "RoleRevoked",
      "type": "event"
    },
    {
      "anonymous": false,
      "inputs": [
        {
          "indexed": false,
          "internalType": "address",
          "name": "account",
          "type": "address"
        }
      ],
      "name": "Unpaused",
      "type": "event"
    },
    {
      "anonymous": false,
      "inputs": [
        {
          "indexed": true,
          "internalType": "address",
          "name": "implementation",
          "type": "address"
        }
      ],
      "name": "Upgraded",
      "type": "event"
    },
    {
      "inputs": [],
      "name": "DEFAULT_ADMIN_ROLE",
      "outputs": [
        {
          "internalType": "bytes32",
          "name": "",
          "type": "bytes32"
        }
      ],
      "stateMutability": "view",
      "type": "function"
    },
    {
      "inputs": [],
      "name": "PAUSER_ROLE",
      "outputs": [
        {
          "internalType": "bytes32",
          "name": "",
          "type": "bytes32"
        }
      ],
      "stateMutability": "view",
      "type": "function"
    },
    {
      "inputs": [],
      "name": "SET_GREETING_ROLE",
      "outputs": [
        {
          "internalType": "bytes32",
          "name": "",
          "type": "bytes32"
        }
      ],
      "stateMutability": "view",
      "type": "function"
    },
    {
      "inputs": [],
      "name": "UPGRADER_ROLE",
      "outputs": [
        {
          "internalType": "bytes32",
          "name": "",
          "type": "bytes32"
        }
      ],
      "stateMutability": "view",
      "type": "function"
    },
    {
      "inputs": [
        {
          "internalType": "bytes32",
          "name": "role",
          "type": "bytes32"
        }
      ],
      "name": "getRoleAdmin",
      "outputs": [
        {
          "internalType": "bytes32",
          "name": "",
          "type": "bytes32"
        }
      ],
      "stateMutability": "view",
      "type": "function"
    },
    {
      "inputs": [
        {
          "internalType": "bytes32",
          "name": "role",
          "type": "bytes32"
        },
        {
          "internalType": "address",
          "name": "account",
          "type": "address"
        }
      ],
      "name": "grantRole",
      "outputs": [],
      "stateMutability": "nonpayable",
      "type": "function"
    },
    {
      "inputs": [],
      "name": "greet",
      "outputs": [
        {
          "internalType": "string",
          "name": "",
          "type": "string"
        }
      ],
      "stateMutability": "view",
      "type": "function"
    },
    {
      "inputs": [
        {
          "internalType": "bytes32",
          "name": "role",
          "type": "bytes32"
        },
        {
          "internalType": "address",
          "name": "account",
          "type": "address"
        }
      ],
      "name": "hasRole",
      "outputs": [
        {
          "internalType": "bool",
          "name": "",
          "type": "bool"
        }
      ],
      "stateMutability": "view",
      "type": "function"
    },
    {
      "inputs": [
        {
          "internalType": "string",
          "name": "_greeting",
          "type": "string"
        }
      ],
      "name": "initialize",
      "outputs": [],
      "stateMutability": "nonpayable",
      "type": "function"
    },
    {
      "inputs": [],
      "name": "pause",
      "outputs": [],
      "stateMutability": "nonpayable",
      "type": "function"
    },
    {
      "inputs": [],
      "name": "paused",
      "outputs": [
        {
          "internalType": "bool",
          "name": "",
          "type": "bool"
        }
      ],
      "stateMutability": "view",
      "type": "function"
    },
    {
      "inputs": [],
      "name": "proxiableUUID",
      "outputs": [
        {
          "internalType": "bytes32",
          "name": "",
          "type": "bytes32"
        }
      ],
      "stateMutability": "view",
      "type": "function"
    },
    {
      "inputs": [
        {
          "internalType": "bytes32",
          "name": "role",
          "type": "bytes32"
        },
        {
          "internalType": "address",
          "name": "account",
          "type": "address"
        }
      ],
      "name": "renounceRole",
      "outputs": [],
      "stateMutability": "nonpayable",
      "type": "function"
    },
    {
      "inputs": [
        {
          "internalType": "bytes32",
          "name": "role",
          "type": "bytes32"
        },
        {
          "internalType": "address",
          "name": "account",
          "type": "address"
        }
      ],
      "name": "revokeRole",
      "outputs": [],
      "stateMutability": "nonpayable",
      "type": "function"
    },
    {
      "inputs": [
        {
          "internalType": "string",
          "name": "_greeting",
          "type": "string"
        }
      ],
      "name": "setGreeting",
      "outputs": [],
      "stateMutability": "nonpayable",
      "type": "function"
    },
    {
      "inputs": [
        {
          "internalType": "bytes4",
          "name": "interfaceId",
          "type": "bytes4"
        }
      ],
      "name": "supportsInterface",
      "outputs": [
        {
          "internalType": "bool",
          "name": "",
          "type": "bool"
        }
      ],
      "stateMutability": "view",
      "type": "function"
    },
    {
      "inputs": [],
      "name": "unpause",
      "outputs": [],
      "stateMutability": "nonpayable",
      "type": "function"
    },
    {
      "inputs": [
        {
          "internalType": "address",
          "name": "newImplementation",
          "type": "address"
        }
      ],
      "name": "upgradeTo",
      "outputs": [],
      "stateMutability": "nonpayable",
      "type": "function"
    },
    {
      "inputs": [
        {
          "internalType": "address",
          "name": "newImplementation",
          "type": "address"
        },
        {
          "internalType": "bytes",
          "name": "data",
          "type": "bytes"
        }
      ],
      "name": "upgradeToAndCall",
      "outputs": [],
      "stateMutability": "payable",
      "type": "function"
    }
  ],
  "bytecode": "0x60a06040523073ffffffffffffffffffffffffffffffffffffffff1660809073ffffffffffffffffffffffffffffffffffffffff168152503480156200004457600080fd5b50620000556200005b60201b60201c565b62000205565b600060019054906101000a900460ff1615620000ae576040517f08c379a0000000000000000000000000000000000000000000000000000000008152600401620000a590620001a8565b60405180910390fd5b60ff801660008054906101000a900460ff1660ff16146200011f5760ff6000806101000a81548160ff021916908360ff1602179055507f7f26b83ff96e1f2b6a682f133852f6798a09c465da95921460cefb384740249860ff604051620001169190620001e8565b60405180910390a15b565b600082825260208201905092915050565b7f496e697469616c697a61626c653a20636f6e747261637420697320696e69746960008201527f616c697a696e6700000000000000000000000000000000000000000000000000602082015250565b60006200019060278362000121565b91506200019d8262000132565b604082019050919050565b60006020820190508181036000830152620001c38162000181565b9050919050565b600060ff82169050919050565b620001e281620001ca565b82525050565b6000602082019050620001ff6000830184620001d7565b92915050565b608051612d166200023d600039600081816105a10152818161062f0152818161075e015281816107ec015261089c0152612d166000f3fe6080604052600436106101145760003560e01c80635c975abb116100a0578063cfae321711610064578063cfae32171461036a578063d547741f14610395578063e63ab1e9146103be578063f62d1888146103e9578063f72c0d8b1461041257610114565b80635c975abb146102975780638456cb59146102c257806391d14854146102d9578063a217fddf14610316578063a41368621461034157610114565b806336568abe116100e757806336568abe146101e75780633659cfe6146102105780633f4ba83a146102395780634f1ef2861461025057806352d1902d1461026c57610114565b806301ffc9a714610119578063248a9ca3146101565780632992c0b5146101935780632f2ff15d146101be575b600080fd5b34801561012557600080fd5b50610140600480360381019061013b9190611aaf565b61043d565b60405161014d9190611af7565b60405180910390f35b34801561016257600080fd5b5061017d60048036038101906101789190611b48565b6104b7565b60405161018a9190611b84565b60405180910390f35b34801561019f57600080fd5b506101a86104d7565b6040516101b59190611b84565b60405180910390f35b3480156101ca57600080fd5b506101e560048036038101906101e09190611bfd565b6104fb565b005b3480156101f357600080fd5b5061020e60048036038101906102099190611bfd565b61051c565b005b34801561021c57600080fd5b5061023760048036038101906102329190611c3d565b61059f565b005b34801561024557600080fd5b5061024e610727565b005b61026a60048036038101906102659190611db0565b61075c565b005b34801561027857600080fd5b50610281610898565b60405161028e9190611b84565b60405180910390f35b3480156102a357600080fd5b506102ac610951565b6040516102b99190611af7565b60405180910390f35b3480156102ce57600080fd5b506102d7610968565b005b3480156102e557600080fd5b5061030060048036038101906102fb9190611bfd565b61099d565b60405161030d9190611af7565b60405180910390f35b34801561032257600080fd5b5061032b610a08565b6040516103389190611b84565b60405180910390f35b34801561034d57600080fd5b5061036860048036038101906103639190611ead565b610a0f565b005b34801561037657600080fd5b5061037f610a8f565b60405161038c9190611f75565b60405180910390f35b3480156103a157600080fd5b506103bc60048036038101906103b79190611bfd565b610b22565b005b3480156103ca57600080fd5b506103d3610b43565b6040516103e09190611b84565b60405180910390f35b3480156103f557600080fd5b50610410600480360381019061040b9190611ead565b610b67565b005b34801561041e57600080fd5b50610427610d52565b6040516104349190611b84565b60405180910390f35b60007f7965db0b000000000000000000000000000000000000000000000000000000007bffffffffffffffffffffffffffffffffffffffffffffffffffffffff1916827bffffffffffffffffffffffffffffffffffffffffffffffffffffffff191614806104b057506104af82610d76565b5b9050919050565b600060fb6000838152602001908152602001600020600101549050919050565b7ffdeede333c6261dc02ece53d289e60baf7bb77b797f7a4f0117b59fcca82698181565b610504826104b7565b61050d81610de0565b6105178383610df4565b505050565b610524610ed5565b73ffffffffffffffffffffffffffffffffffffffff168173ffffffffffffffffffffffffffffffffffffffff1614610591576040517f08c379a000000000000000000000000000000000000000000000000000000000815260040161058890612009565b60405180910390fd5b61059b8282610edd565b5050565b7f000000000000000000000000000000000000000000000000000000000000000073ffffffffffffffffffffffffffffffffffffffff163073ffffffffffffffffffffffffffffffffffffffff160361062d576040517f08c379a00000000000000000000000000000000000000000000000000000000081526004016106249061209b565b60405180910390fd5b7f000000000000000000000000000000000000000000000000000000000000000073ffffffffffffffffffffffffffffffffffffffff1661066c610fbf565b73ffffffffffffffffffffffffffffffffffffffff16146106c2576040517f08c379a00000000000000000000000000000000000000000000000000000000081526004016106b99061212d565b60405180910390fd5b6106cb81611016565b61072481600067ffffffffffffffff8111156106ea576106e9611c85565b5b6040519080825280601f01601f19166020018201604052801561071c5781602001600182028036833780820191505090505b506000611044565b50565b7f65d7a28e3265b37a6474929f336521b332c1681b933f6cb9f3376673440d862a61075181610de0565b6107596111b2565b50565b7f000000000000000000000000000000000000000000000000000000000000000073ffffffffffffffffffffffffffffffffffffffff163073ffffffffffffffffffffffffffffffffffffffff16036107ea576040517f08c379a00000000000000000000000000000000000000000000000000000000081526004016107e19061209b565b60405180910390fd5b7f000000000000000000000000000000000000000000000000000000000000000073ffffffffffffffffffffffffffffffffffffffff16610829610fbf565b73ffffffffffffffffffffffffffffffffffffffff161461087f576040517f08c379a00000000000000000000000000000000000000000000000000000000081526004016108769061212d565b60405180910390fd5b61088882611016565b61089482826001611044565b5050565b60007f000000000000000000000000000000000000000000000000000000000000000073ffffffffffffffffffffffffffffffffffffffff163073ffffffffffffffffffffffffffffffffffffffff1614610928576040517f08c379a000000000000000000000000000000000000000000000000000000000815260040161091f906121bf565b60405180910390fd5b7f360894a13ba1a3210667c828492db98dca3e2076cc3735a920a3ca505d382bbc60001b905090565b6000603360009054906101000a900460ff16905090565b7f65d7a28e3265b37a6474929f336521b332c1681b933f6cb9f3376673440d862a61099281610de0565b61099a611215565b50565b600060fb600084815260200190815260200160002060000160008373ffffffffffffffffffffffffffffffffffffffff1673ffffffffffffffffffffffffffffffffffffffff16815260200190815260200160002060009054906101000a900460ff16905092915050565b6000801b81565b610a17611278565b7ffdeede333c6261dc02ece53d289e60baf7bb77b797f7a4f0117b59fcca826981610a4181610de0565b8161012d9081610a5191906123f5565b507fea07f7ca8b8b2cfaab1214b6e1459ad859cf1ff2d60a948a1f9c4644970c89503383604051610a839291906124d6565b60405180910390a15050565b606061012d8054610a9f9061220e565b80601f0160208091040260200160405190810160405280929190818152602001828054610acb9061220e565b8015610b185780601f10610aed57610100808354040283529160200191610b18565b820191906000526020600020905b815481529060010190602001808311610afb57829003601f168201915b5050505050905090565b610b2b826104b7565b610b3481610de0565b610b3e8383610edd565b505050565b7f65d7a28e3265b37a6474929f336521b332c1681b933f6cb9f3376673440d862a81565b60008060019054906101000a900460ff16159050808015610b985750600160008054906101000a900460ff1660ff16105b80610bc55750610ba7306112c2565b158015610bc45750600160008054906101000a900460ff1660ff16145b5b610c04576040517f08c379a0000000000000000000000000000000000000000000000000000000008152600401610bfb90612578565b60405180910390fd5b60016000806101000a81548160ff021916908360ff1602179055508015610c41576001600060016101000a81548160ff0219169083151502179055505b8161012d9081610c5191906123f5565b50610c5a6112e5565b610c6261133e565b610c6a61138f565b610c776000801b33610df4565b610ca17f65d7a28e3265b37a6474929f336521b332c1681b933f6cb9f3376673440d862a33610df4565b610ccb7f189ab7a9244df0848122154315af71fe140f3db0fe014031783b0946b8c9d2e333610df4565b610cf57ffdeede333c6261dc02ece53d289e60baf7bb77b797f7a4f0117b59fcca82698133610df4565b8015610d4e5760008060016101000a81548160ff0219169083151502179055507f7f26b83ff96e1f2b6a682f133852f6798a09c465da95921460cefb38474024986001604051610d4591906125e0565b60405180910390a15b5050565b7f189ab7a9244df0848122154315af71fe140f3db0fe014031783b0946b8c9d2e381565b60007f01ffc9a7000000000000000000000000000000000000000000000000000000007bffffffffffffffffffffffffffffffffffffffffffffffffffffffff1916827bffffffffffffffffffffffffffffffffffffffffffffffffffffffff1916149050919050565b610df181610dec610ed5565b6113e0565b50565b610dfe828261099d565b610ed157600160fb600084815260200190815260200160002060000160008373ffffffffffffffffffffffffffffffffffffffff1673ffffffffffffffffffffffffffffffffffffffff16815260200190815260200160002060006101000a81548160ff021916908315150217905550610e76610ed5565b73ffffffffffffffffffffffffffffffffffffffff168173ffffffffffffffffffffffffffffffffffffffff16837f2f8788117e7eff1d82e926ec794901d17c78024a50270940304540a733656f0d60405160405180910390a45b5050565b600033905090565b610ee7828261099d565b15610fbb57600060fb600084815260200190815260200160002060000160008373ffffffffffffffffffffffffffffffffffffffff1673ffffffffffffffffffffffffffffffffffffffff16815260200190815260200160002060006101000a81548160ff021916908315150217905550610f60610ed5565b73ffffffffffffffffffffffffffffffffffffffff168173ffffffffffffffffffffffffffffffffffffffff16837ff6391f5c32d9c69d2a47ea670b442974b53935d1edc7fd64eb21e047a839171b60405160405180910390a45b5050565b6000610fed7f360894a13ba1a3210667c828492db98dca3e2076cc3735a920a3ca505d382bbc60001b611465565b60000160009054906101000a900473ffffffffffffffffffffffffffffffffffffffff16905090565b7f189ab7a9244df0848122154315af71fe140f3db0fe014031783b0946b8c9d2e361104081610de0565b5050565b6110707f4910fdfa16fed3260ed0e7147f7cc6da11a60208b5b9406d12a635614ffd914360001b61146f565b60000160009054906101000a900460ff16156110945761108f83611479565b6111ad565b8273ffffffffffffffffffffffffffffffffffffffff166352d1902d6040518163ffffffff1660e01b8152600401602060405180830381865afa9250505080156110fc57506040513d601f19601f820116820180604052508101906110f99190612610565b60015b61113b576040517f08c379a0000000000000000000000000000000000000000000000000000000008152600401611132906126af565b60405180910390fd5b7f360894a13ba1a3210667c828492db98dca3e2076cc3735a920a3ca505d382bbc60001b81146111a0576040517f08c379a000000000000000000000000000000000000000000000000000000000815260040161119790612741565b60405180910390fd5b506111ac838383611532565b5b505050565b6111ba61155e565b6000603360006101000a81548160ff0219169083151502179055507f5db9ee0a495bf2e6ff9c91a7834c1ba4fdd244a5e8aa4e537bd38aeae4b073aa6111fe610ed5565b60405161120b9190612761565b60405180910390a1565b61121d611278565b6001603360006101000a81548160ff0219169083151502179055507f62e78cea01bee320cd4e420270b5ea74000d11b0c9f74754ebdbfc544b05a258611261610ed5565b60405161126e9190612761565b60405180910390a1565b611280610951565b156112c0576040517f08c379a00000000000000000000000000000000000000000000000000000000081526004016112b7906127c8565b60405180910390fd5b565b6000808273ffffffffffffffffffffffffffffffffffffffff163b119050919050565b600060019054906101000a900460ff16611334576040517f08c379a000000000000000000000000000000000000000000000000000000000815260040161132b9061285a565b60405180910390fd5b61133c6115a7565b565b600060019054906101000a900460ff1661138d576040517f08c379a00000000000000000000000000000000000000000000000000000000081526004016113849061285a565b60405180910390fd5b565b600060019054906101000a900460ff166113de576040517f08c379a00000000000000000000000000000000000000000000000000000000081526004016113d59061285a565b60405180910390fd5b565b6113ea828261099d565b611461576113f781611613565b6114058360001c6020611640565b60405160200161141692919061294e565b6040516020818303038152906040526040517f08c379a00000000000000000000000000000000000000000000000000000000081526004016114589190611f75565b60405180910390fd5b5050565b6000819050919050565b6000819050919050565b611482816112c2565b6114c1576040517f08c379a00000000000000000000000000000000000000000000000000000000081526004016114b8906129fa565b60405180910390fd5b806114ee7f360894a13ba1a3210667c828492db98dca3e2076cc3735a920a3ca505d382bbc60001b611465565b60000160006101000a81548173ffffffffffffffffffffffffffffffffffffffff021916908373ffffffffffffffffffffffffffffffffffffffff16021790555050565b61153b8361187c565b6000825111806115485750805b156115595761155783836118cb565b505b505050565b611566610951565b6115a5576040517f08c379a000000000000000000000000000000000000000000000000000000000815260040161159c90612a66565b60405180910390fd5b565b600060019054906101000a900460ff166115f6576040517f08c379a00000000000000000000000000000000000000000000000000000000081526004016115ed9061285a565b60405180910390fd5b6000603360006101000a81548160ff021916908315150217905550565b60606116398273ffffffffffffffffffffffffffffffffffffffff16601460ff16611640565b9050919050565b6060600060028360026116539190612ab5565b61165d9190612af7565b67ffffffffffffffff81111561167657611675611c85565b5b6040519080825280601f01601f1916602001820160405280156116a85781602001600182028036833780820191505090505b5090507f3000000000000000000000000000000000000000000000000000000000000000816000815181106116e0576116df612b2b565b5b60200101907effffffffffffffffffffffffffffffffffffffffffffffffffffffffffffff1916908160001a9053507f78000000000000000000000000000000000000000000000000000000000000008160018151811061174457611743612b2b565b5b60200101907effffffffffffffffffffffffffffffffffffffffffffffffffffffffffffff1916908160001a905350600060018460026117849190612ab5565b61178e9190612af7565b90505b600181111561182e577f3031323334353637383961626364656600000000000000000000000000000000600f8616601081106117d0576117cf612b2b565b5b1a60f81b8282815181106117e7576117e6612b2b565b5b60200101907effffffffffffffffffffffffffffffffffffffffffffffffffffffffffffff1916908160001a905350600485901c94508061182790612b5a565b9050611791565b5060008414611872576040517f08c379a000000000000000000000000000000000000000000000000000000000815260040161186990612bcf565b60405180910390fd5b8091505092915050565b61188581611479565b8073ffffffffffffffffffffffffffffffffffffffff167fbc7cd75a20ee27fd9adebab32041f755214dbc6bffa90cc0225b39da2e5c2d3b60405160405180910390a250565b60606118f08383604051806060016040528060278152602001612cba602791396118f8565b905092915050565b60606000808573ffffffffffffffffffffffffffffffffffffffff16856040516119229190612c36565b600060405180830381855af49150503d806000811461195d576040519150601f19603f3d011682016040523d82523d6000602084013e611962565b606091505b50915091506119738683838761197e565b925050509392505050565b606083156119e05760008351036119d857611998856112c2565b6119d7576040517f08c379a00000000000000000000000000000000000000000000000000000000081526004016119ce90612c99565b60405180910390fd5b5b8290506119eb565b6119ea83836119f3565b5b949350505050565b600082511115611a065781518083602001fd5b806040517f08c379a0000000000000000000000000000000000000000000000000000000008152600401611a3a9190611f75565b60405180910390fd5b6000604051905090565b600080fd5b600080fd5b60007fffffffff0000000000000000000000000000000000000000000000000000000082169050919050565b611a8c81611a57565b8114611a9757600080fd5b50565b600081359050611aa981611a83565b92915050565b600060208284031215611ac557611ac4611a4d565b5b6000611ad384828501611a9a565b91505092915050565b60008115159050919050565b611af181611adc565b82525050565b6000602082019050611b0c6000830184611ae8565b92915050565b6000819050919050565b611b2581611b12565b8114611b3057600080fd5b50565b600081359050611b4281611b1c565b92915050565b600060208284031215611b5e57611b5d611a4d565b5b6000611b6c84828501611b33565b91505092915050565b611b7e81611b12565b82525050565b6000602082019050611b996000830184611b75565b92915050565b600073ffffffffffffffffffffffffffffffffffffffff82169050919050565b6000611bca82611b9f565b9050919050565b611bda81611bbf565b8114611be557600080fd5b50565b600081359050611bf781611bd1565b92915050565b60008060408385031215611c1457611c13611a4d565b5b6000611c2285828601611b33565b9250506020611c3385828601611be8565b9150509250929050565b600060208284031215611c5357611c52611a4d565b5b6000611c6184828501611be8565b91505092915050565b600080fd5b600080fd5b6000601f19601f8301169050919050565b7f4e487b7100000000000000000000000000000000000000000000000000000000600052604160045260246000fd5b611cbd82611c74565b810181811067ffffffffffffffff82111715611cdc57611cdb611c85565b5b80604052505050565b6000611cef611a43565b9050611cfb8282611cb4565b919050565b600067ffffffffffffffff821115611d1b57611d1a611c85565b5b611d2482611c74565b9050602081019050919050565b82818337600083830152505050565b6000611d53611d4e84611d00565b611ce5565b905082815260208101848484011115611d6f57611d6e611c6f565b5b611d7a848285611d31565b509392505050565b600082601f830112611d9757611d96611c6a565b5b8135611da7848260208601611d40565b91505092915050565b60008060408385031215611dc757611dc6611a4d565b5b6000611dd585828601611be8565b925050602083013567ffffffffffffffff811115611df657611df5611a52565b5b611e0285828601611d82565b9150509250929050565b600067ffffffffffffffff821115611e2757611e26611c85565b5b611e3082611c74565b9050602081019050919050565b6000611e50611e4b84611e0c565b611ce5565b905082815260208101848484011115611e6c57611e6b611c6f565b5b611e77848285611d31565b509392505050565b600082601f830112611e9457611e93611c6a565b5b8135611ea4848260208601611e3d565b91505092915050565b600060208284031215611ec357611ec2611a4d565b5b600082013567ffffffffffffffff811115611ee157611ee0611a52565b5b611eed84828501611e7f565b91505092915050565b600081519050919050565b600082825260208201905092915050565b60005b83811015611f30578082015181840152602081019050611f15565b60008484015250505050565b6000611f4782611ef6565b611f518185611f01565b9350611f61818560208601611f12565b611f6a81611c74565b840191505092915050565b60006020820190508181036000830152611f8f8184611f3c565b905092915050565b7f416363657373436f6e74726f6c3a2063616e206f6e6c792072656e6f756e636560008201527f20726f6c657320666f722073656c660000000000000000000000000000000000602082015250565b6000611ff3602f83611f01565b9150611ffe82611f97565b604082019050919050565b6000602082019050818103600083015261202281611fe6565b9050919050565b7f46756e6374696f6e206d7573742062652063616c6c6564207468726f7567682060008201527f64656c656761746563616c6c0000000000000000000000000000000000000000602082015250565b6000612085602c83611f01565b915061209082612029565b604082019050919050565b600060208201905081810360008301526120b481612078565b9050919050565b7f46756e6374696f6e206d7573742062652063616c6c6564207468726f7567682060008201527f6163746976652070726f78790000000000000000000000000000000000000000602082015250565b6000612117602c83611f01565b9150612122826120bb565b604082019050919050565b600060208201905081810360008301526121468161210a565b9050919050565b7f555550535570677261646561626c653a206d757374206e6f742062652063616c60008201527f6c6564207468726f7567682064656c656761746563616c6c0000000000000000602082015250565b60006121a9603883611f01565b91506121b48261214d565b604082019050919050565b600060208201905081810360008301526121d88161219c565b9050919050565b7f4e487b7100000000000000000000000000000000000000000000000000000000600052602260045260246000fd5b6000600282049050600182168061222657607f821691505b602082108103612239576122386121df565b5b50919050565b60008190508160005260206000209050919050565b60006020601f8301049050919050565b600082821b905092915050565b6000600883026122a17fffffffffffffffffffffffffffffffffffffffffffffffffffffffffffffffff82612264565b6122ab8683612264565b95508019841693508086168417925050509392505050565b6000819050919050565b6000819050919050565b60006122f26122ed6122e8846122c3565b6122cd565b6122c3565b9050919050565b6000819050919050565b61230c836122d7565b612320612318826122f9565b848454612271565b825550505050565b600090565b612335612328565b612340818484612303565b505050565b5b818110156123645761235960008261232d565b600181019050612346565b5050565b601f8211156123a95761237a8161223f565b61238384612254565b81016020851015612392578190505b6123a661239e85612254565b830182612345565b50505b505050565b600082821c905092915050565b60006123cc600019846008026123ae565b1980831691505092915050565b60006123e583836123bb565b9150826002028217905092915050565b6123fe82611ef6565b67ffffffffffffffff81111561241757612416611c85565b5b612421825461220e565b61242c828285612368565b600060209050601f83116001811461245f576000841561244d578287015190505b61245785826123d9565b8655506124bf565b601f19841661246d8661223f565b60005b8281101561249557848901518255600182019150602085019450602081019050612470565b868310156124b257848901516124ae601f8916826123bb565b8355505b6001600288020188555050505b505050505050565b6124d081611bbf565b82525050565b60006040820190506124eb60008301856124c7565b81810360208301526124fd8184611f3c565b90509392505050565b7f496e697469616c697a61626c653a20636f6e747261637420697320616c72656160008201527f647920696e697469616c697a6564000000000000000000000000000000000000602082015250565b6000612562602e83611f01565b915061256d82612506565b604082019050919050565b6000602082019050818103600083015261259181612555565b9050919050565b6000819050919050565b600060ff82169050919050565b60006125ca6125c56125c084612598565b6122cd565b6125a2565b9050919050565b6125da816125af565b82525050565b60006020820190506125f560008301846125d1565b92915050565b60008151905061260a81611b1c565b92915050565b60006020828403121561262657612625611a4d565b5b6000612634848285016125fb565b91505092915050565b7f45524331393637557067726164653a206e657720696d706c656d656e7461746960008201527f6f6e206973206e6f742055555053000000000000000000000000000000000000602082015250565b6000612699602e83611f01565b91506126a48261263d565b604082019050919050565b600060208201905081810360008301526126c88161268c565b9050919050565b7f45524331393637557067726164653a20756e737570706f727465642070726f7860008201527f6961626c65555549440000000000000000000000000000000000000000000000602082015250565b600061272b602983611f01565b9150612736826126cf565b604082019050919050565b6000602082019050818103600083015261275a8161271e565b9050919050565b600060208201905061277660008301846124c7565b92915050565b7f5061757361626c653a2070617573656400000000000000000000000000000000600082015250565b60006127b2601083611f01565b91506127bd8261277c565b602082019050919050565b600060208201905081810360008301526127e1816127a5565b9050919050565b7f496e697469616c697a61626c653a20636f6e7472616374206973206e6f74206960008201527f6e697469616c697a696e67000000000000000000000000000000000000000000602082015250565b6000612844602b83611f01565b915061284f826127e8565b604082019050919050565b6000602082019050818103600083015261287381612837565b9050919050565b600081905092915050565b7f416363657373436f6e74726f6c3a206163636f756e7420000000000000000000600082015250565b60006128bb60178361287a565b91506128c682612885565b601782019050919050565b60006128dc82611ef6565b6128e6818561287a565b93506128f6818560208601611f12565b80840191505092915050565b7f206973206d697373696e6720726f6c6520000000000000000000000000000000600082015250565b600061293860118361287a565b915061294382612902565b601182019050919050565b6000612959826128ae565b915061296582856128d1565b91506129708261292b565b915061297c82846128d1565b91508190509392505050565b7f455243313936373a206e657720696d706c656d656e746174696f6e206973206e60008201527f6f74206120636f6e747261637400000000000000000000000000000000000000602082015250565b60006129e4602d83611f01565b91506129ef82612988565b604082019050919050565b60006020820190508181036000830152612a13816129d7565b9050919050565b7f5061757361626c653a206e6f7420706175736564000000000000000000000000600082015250565b6000612a50601483611f01565b9150612a5b82612a1a565b602082019050919050565b60006020820190508181036000830152612a7f81612a43565b9050919050565b7f4e487b7100000000000000000000000000000000000000000000000000000000600052601160045260246000fd5b6000612ac0826122c3565b9150612acb836122c3565b9250828202612ad9816122c3565b91508282048414831517612af057612aef612a86565b5b5092915050565b6000612b02826122c3565b9150612b0d836122c3565b9250828201905080821115612b2557612b24612a86565b5b92915050565b7f4e487b7100000000000000000000000000000000000000000000000000000000600052603260045260246000fd5b6000612b65826122c3565b915060008203612b7857612b77612a86565b5b600182039050919050565b7f537472696e67733a20686578206c656e67746820696e73756666696369656e74600082015250565b6000612bb9602083611f01565b9150612bc482612b83565b602082019050919050565b60006020820190508181036000830152612be881612bac565b9050919050565b600081519050919050565b600081905092915050565b6000612c1082612bef565b612c1a8185612bfa565b9350612c2a818560208601611f12565b80840191505092915050565b6000612c428284612c05565b915081905092915050565b7f416464726573733a2063616c6c20746f206e6f6e2d636f6e7472616374000000600082015250565b6000612c83601d83611f01565b9150612c8e82612c4d565b602082019050919050565b60006020820190508181036000830152612cb281612c76565b905091905056fe416464726573733a206c6f772d6c6576656c2064656c65676174652063616c6c206661696c6564a26469706673582212205a19e5a097d6be291130842dd71ef6760121d74b270f94114da14916b9edc3a964736f6c63430008140033",
  "linkReferences": {},
  "deployedLinkReferences": {}
}