{
  "_format": "hh-sol-artifact-1",
  "contractName": "CarERC721",
  "sourceName": "contracts/tokens/CarERC721.sol",
  "abi": [
    {
      "inputs": [],
      "stateMutability": "nonpayable",
      "type": "constructor"
    },
    {
      "anonymous": false,
      "inputs": [
        {
          "indexed": false,
          "internalType": "address",
          "name": "previousAdmin",
          "type": "address"
        },
        {
          "indexed": false,
          "internalType": "address",
          "name": "newAdmin",
          "type": "address"
        }
      ],
      "name": "AdminChanged",
      "type": "event"
    },
    {
      "anonymous": false,
      "inputs": [
        {
          "indexed": true,
          "internalType": "address",
          "name": "owner",
          "type": "address"
        },
        {
          "indexed": true,
          "internalType": "address",
          "name": "approved",
          "type": "address"
        },
        {
          "indexed": true,
          "internalType": "uint256",
          "name": "tokenId",
          "type": "uint256"
        }
      ],
      "name": "Approval",
      "type": "event"
    },
    {
      "anonymous": false,
      "inputs": [
        {
          "indexed": true,
          "internalType": "address",
          "name": "owner",
          "type": "address"
        },
        {
          "indexed": true,
          "internalType": "address",
          "name": "operator",
          "type": "address"
        },
        {
          "indexed": false,
          "internalType": "bool",
          "name": "approved",
          "type": "bool"
        }
      ],
      "name": "ApprovalForAll",
      "type": "event"
    },
    {
      "anonymous": false,
      "inputs": [
        {
          "indexed": true,
          "internalType": "address",
          "name": "beacon",
          "type": "address"
        }
      ],
      "name": "BeaconUpgraded",
      "type": "event"
    },
    {
      "anonymous": false,
      "inputs": [
        {
          "indexed": false,
          "internalType": "uint8",
          "name": "version",
          "type": "uint8"
        }
      ],
      "name": "Initialized",
      "type": "event"
    },
    {
      "anonymous": false,
      "inputs": [
        {
          "indexed": false,
          "internalType": "address",
          "name": "account",
          "type": "address"
        }
      ],
      "name": "Paused",
      "type": "event"
    },
    {
      "anonymous": false,
      "inputs": [
        {
          "indexed": true,
          "internalType": "bytes32",
          "name": "role",
          "type": "bytes32"
        },
        {
          "indexed": true,
          "internalType": "bytes32",
          "name": "previousAdminRole",
          "type": "bytes32"
        },
        {
          "indexed": true,
          "internalType": "bytes32",
          "name": "newAdminRole",
          "type": "bytes32"
        }
      ],
      "name": "RoleAdminChanged",
      "type": "event"
    },
    {
      "anonymous": false,
      "inputs": [
        {
          "indexed": true,
          "internalType": "bytes32",
          "name": "role",
          "type": "bytes32"
        },
        {
          "indexed": true,
          "internalType": "address",
          "name": "account",
          "type": "address"
        },
        {
          "indexed": true,
          "internalType": "address",
          "name": "sender",
          "type": "address"
        }
      ],
      "name": "RoleGranted",
      "type": "event"
    },
    {
      "anonymous": false,
      "inputs": [
        {
          "indexed": true,
          "internalType": "bytes32",
          "name": "role",
          "type": "bytes32"
        },
        {
          "indexed": true,
          "internalType": "address",
          "name": "account",
          "type": "address"
        },
        {
          "indexed": true,
          "internalType": "address",
          "name": "sender",
          "type": "address"
        }
      ],
      "name": "RoleRevoked",
      "type": "event"
    },
    {
      "anonymous": false,
      "inputs": [
        {
          "indexed": true,
          "internalType": "address",
          "name": "from",
          "type": "address"
        },
        {
          "indexed": true,
          "internalType": "address",
          "name": "to",
          "type": "address"
        },
        {
          "indexed": true,
          "internalType": "uint256",
          "name": "tokenId",
          "type": "uint256"
        }
      ],
      "name": "Transfer",
      "type": "event"
    },
    {
      "anonymous": false,
      "inputs": [
        {
          "indexed": false,
          "internalType": "address",
          "name": "account",
          "type": "address"
        }
      ],
      "name": "Unpaused",
      "type": "event"
    },
    {
      "anonymous": false,
      "inputs": [
        {
          "indexed": true,
          "internalType": "address",
          "name": "implementation",
          "type": "address"
        }
      ],
      "name": "Upgraded",
      "type": "event"
    },
    {
      "inputs": [],
      "name": "DEFAULT_ADMIN_ROLE",
      "outputs": [
        {
          "internalType": "bytes32",
          "name": "",
          "type": "bytes32"
        }
      ],
      "stateMutability": "view",
      "type": "function"
    },
    {
      "inputs": [],
      "name": "MINTER_ROLE",
      "outputs": [
        {
          "internalType": "bytes32",
          "name": "",
          "type": "bytes32"
        }
      ],
      "stateMutability": "view",
      "type": "function"
    },
    {
      "inputs": [],
      "name": "PAUSER_ROLE",
      "outputs": [
        {
          "internalType": "bytes32",
          "name": "",
          "type": "bytes32"
        }
      ],
      "stateMutability": "view",
      "type": "function"
    },
    {
      "inputs": [],
      "name": "UPGRADER_ROLE",
      "outputs": [
        {
          "internalType": "bytes32",
          "name": "",
          "type": "bytes32"
        }
      ],
      "stateMutability": "view",
      "type": "function"
    },
    {
      "inputs": [
        {
          "internalType": "address",
          "name": "to",
          "type": "address"
        },
        {
          "internalType": "uint256",
          "name": "tokenId",
          "type": "uint256"
        }
      ],
      "name": "approve",
      "outputs": [],
      "stateMutability": "nonpayable",
      "type": "function"
    },
    {
      "inputs": [
        {
          "internalType": "address",
          "name": "owner",
          "type": "address"
        }
      ],
      "name": "balanceOf",
      "outputs": [
        {
          "internalType": "uint256",
          "name": "",
          "type": "uint256"
        }
      ],
      "stateMutability": "view",
      "type": "function"
    },
    {
      "inputs": [
        {
          "internalType": "uint256",
          "name": "tokenId",
          "type": "uint256"
        }
      ],
      "name": "getApproved",
      "outputs": [
        {
          "internalType": "address",
          "name": "",
          "type": "address"
        }
      ],
      "stateMutability": "view",
      "type": "function"
    },
    {
      "inputs": [
        {
          "internalType": "bytes32",
          "name": "role",
          "type": "bytes32"
        }
      ],
      "name": "getRoleAdmin",
      "outputs": [
        {
          "internalType": "bytes32",
          "name": "",
          "type": "bytes32"
        }
      ],
      "stateMutability": "view",
      "type": "function"
    },
    {
      "inputs": [
        {
          "internalType": "bytes32",
          "name": "role",
          "type": "bytes32"
        },
        {
          "internalType": "uint256",
          "name": "index",
          "type": "uint256"
        }
      ],
      "name": "getRoleMember",
      "outputs": [
        {
          "internalType": "address",
          "name": "",
          "type": "address"
        }
      ],
      "stateMutability": "view",
      "type": "function"
    },
    {
      "inputs": [
        {
          "internalType": "bytes32",
          "name": "role",
          "type": "bytes32"
        }
      ],
      "name": "getRoleMemberCount",
      "outputs": [
        {
          "internalType": "uint256",
          "name": "",
          "type": "uint256"
        }
      ],
      "stateMutability": "view",
      "type": "function"
    },
    {
      "inputs": [
        {
          "internalType": "bytes32",
          "name": "role",
          "type": "bytes32"
        },
        {
          "internalType": "address",
          "name": "account",
          "type": "address"
        }
      ],
      "name": "grantRole",
      "outputs": [],
      "stateMutability": "nonpayable",
      "type": "function"
    },
    {
      "inputs": [
        {
          "internalType": "bytes32",
          "name": "role",
          "type": "bytes32"
        },
        {
          "internalType": "address",
          "name": "account",
          "type": "address"
        }
      ],
      "name": "hasRole",
      "outputs": [
        {
          "internalType": "bool",
          "name": "",
          "type": "bool"
        }
      ],
      "stateMutability": "view",
      "type": "function"
    },
    {
      "inputs": [],
      "name": "initialize",
      "outputs": [],
      "stateMutability": "nonpayable",
      "type": "function"
    },
    {
      "inputs": [
        {
          "internalType": "address",
          "name": "owner",
          "type": "address"
        },
        {
          "internalType": "address",
          "name": "operator",
          "type": "address"
        }
      ],
      "name": "isApprovedForAll",
      "outputs": [
        {
          "internalType": "bool",
          "name": "",
          "type": "bool"
        }
      ],
      "stateMutability": "view",
      "type": "function"
    },
    {
      "inputs": [],
      "name": "name",
      "outputs": [
        {
          "internalType": "string",
          "name": "",
          "type": "string"
        }
      ],
      "stateMutability": "view",
      "type": "function"
    },
    {
      "inputs": [
        {
          "internalType": "uint256",
          "name": "tokenId",
          "type": "uint256"
        }
      ],
      "name": "ownerOf",
      "outputs": [
        {
          "internalType": "address",
          "name": "",
          "type": "address"
        }
      ],
      "stateMutability": "view",
      "type": "function"
    },
    {
      "inputs": [],
      "name": "pause",
      "outputs": [],
      "stateMutability": "nonpayable",
      "type": "function"
    },
    {
      "inputs": [],
      "name": "paused",
      "outputs": [
        {
          "internalType": "bool",
          "name": "",
          "type": "bool"
        }
      ],
      "stateMutability": "view",
      "type": "function"
    },
    {
      "inputs": [],
      "name": "proxiableUUID",
      "outputs": [
        {
          "internalType": "bytes32",
          "name": "",
          "type": "bytes32"
        }
      ],
      "stateMutability": "view",
      "type": "function"
    },
    {
      "inputs": [
        {
          "internalType": "bytes32",
          "name": "role",
          "type": "bytes32"
        },
        {
          "internalType": "address",
          "name": "account",
          "type": "address"
        }
      ],
      "name": "renounceRole",
      "outputs": [],
      "stateMutability": "nonpayable",
      "type": "function"
    },
    {
      "inputs": [
        {
          "internalType": "bytes32",
          "name": "role",
          "type": "bytes32"
        },
        {
          "internalType": "address",
          "name": "account",
          "type": "address"
        }
      ],
      "name": "revokeRole",
      "outputs": [],
      "stateMutability": "nonpayable",
      "type": "function"
    },
    {
      "inputs": [
        {
          "internalType": "address",
          "name": "to",
          "type": "address"
        },
        {
          "internalType": "uint256",
          "name": "tokenId",
          "type": "uint256"
        }
      ],
      "name": "safeMint",
      "outputs": [],
      "stateMutability": "nonpayable",
      "type": "function"
    },
    {
      "inputs": [
        {
          "internalType": "address",
          "name": "from",
          "type": "address"
        },
        {
          "internalType": "address",
          "name": "to",
          "type": "address"
        },
        {
          "internalType": "uint256",
          "name": "tokenId",
          "type": "uint256"
        }
      ],
      "name": "safeTransferFrom",
      "outputs": [],
      "stateMutability": "nonpayable",
      "type": "function"
    },
    {
      "inputs": [
        {
          "internalType": "address",
          "name": "from",
          "type": "address"
        },
        {
          "internalType": "address",
          "name": "to",
          "type": "address"
        },
        {
          "internalType": "uint256",
          "name": "tokenId",
          "type": "uint256"
        },
        {
          "internalType": "bytes",
          "name": "data",
          "type": "bytes"
        }
      ],
      "name": "safeTransferFrom",
      "outputs": [],
      "stateMutability": "nonpayable",
      "type": "function"
    },
    {
      "inputs": [
        {
          "internalType": "address",
          "name": "operator",
          "type": "address"
        },
        {
          "internalType": "bool",
          "name": "approved",
          "type": "bool"
        }
      ],
      "name": "setApprovalForAll",
      "outputs": [],
      "stateMutability": "nonpayable",
      "type": "function"
    },
    {
      "inputs": [
        {
          "internalType": "bytes4",
          "name": "interfaceId",
          "type": "bytes4"
        }
      ],
      "name": "supportsInterface",
      "outputs": [
        {
          "internalType": "bool",
          "name": "",
          "type": "bool"
        }
      ],
      "stateMutability": "view",
      "type": "function"
    },
    {
      "inputs": [],
      "name": "symbol",
      "outputs": [
        {
          "internalType": "string",
          "name": "",
          "type": "string"
        }
      ],
      "stateMutability": "view",
      "type": "function"
    },
    {
      "inputs": [
        {
          "internalType": "uint256",
          "name": "index",
          "type": "uint256"
        }
      ],
      "name": "tokenByIndex",
      "outputs": [
        {
          "internalType": "uint256",
          "name": "",
          "type": "uint256"
        }
      ],
      "stateMutability": "view",
      "type": "function"
    },
    {
      "inputs": [
        {
          "internalType": "address",
          "name": "owner",
          "type": "address"
        },
        {
          "internalType": "uint256",
          "name": "index",
          "type": "uint256"
        }
      ],
      "name": "tokenOfOwnerByIndex",
      "outputs": [
        {
          "internalType": "uint256",
          "name": "",
          "type": "uint256"
        }
      ],
      "stateMutability": "view",
      "type": "function"
    },
    {
      "inputs": [
        {
          "internalType": "uint256",
          "name": "tokenId",
          "type": "uint256"
        }
      ],
      "name": "tokenURI",
      "outputs": [
        {
          "internalType": "string",
          "name": "",
          "type": "string"
        }
      ],
      "stateMutability": "view",
      "type": "function"
    },
    {
      "inputs": [],
      "name": "totalSupply",
      "outputs": [
        {
          "internalType": "uint256",
          "name": "",
          "type": "uint256"
        }
      ],
      "stateMutability": "view",
      "type": "function"
    },
    {
      "inputs": [
        {
          "internalType": "address",
          "name": "from",
          "type": "address"
        },
        {
          "internalType": "address",
          "name": "to",
          "type": "address"
        },
        {
          "internalType": "uint256",
          "name": "tokenId",
          "type": "uint256"
        }
      ],
      "name": "transferFrom",
      "outputs": [],
      "stateMutability": "nonpayable",
      "type": "function"
    },
    {
      "inputs": [],
      "name": "unpause",
      "outputs": [],
      "stateMutability": "nonpayable",
      "type": "function"
    },
    {
      "inputs": [
        {
          "internalType": "address",
          "name": "newImplementation",
          "type": "address"
        }
      ],
      "name": "upgradeTo",
      "outputs": [],
      "stateMutability": "nonpayable",
      "type": "function"
    },
    {
      "inputs": [
        {
          "internalType": "address",
          "name": "newImplementation",
          "type": "address"
        },
        {
          "internalType": "bytes",
          "name": "data",
          "type": "bytes"
        }
      ],
      "name": "upgradeToAndCall",
      "outputs": [],
      "stateMutability": "payable",
      "type": "function"
    }
  ],
  "bytecode": "0x60a06040523073ffffffffffffffffffffffffffffffffffffffff1660809073ffffffffffffffffffffffffffffffffffffffff168152503480156200004457600080fd5b50620000556200005b60201b60201c565b62000205565b600060019054906101000a900460ff1615620000ae576040517f08c379a0000000000000000000000000000000000000000000000000000000008152600401620000a590620001a8565b60405180910390fd5b60ff801660008054906101000a900460ff1660ff16146200011f5760ff6000806101000a81548160ff021916908360ff1602179055507f7f26b83ff96e1f2b6a682f133852f6798a09c465da95921460cefb384740249860ff604051620001169190620001e8565b60405180910390a15b565b600082825260208201905092915050565b7f496e697469616c697a61626c653a20636f6e747261637420697320696e69746960008201527f616c697a696e6700000000000000000000000000000000000000000000000000602082015250565b60006200019060278362000121565b91506200019d8262000132565b604082019050919050565b60006020820190508181036000830152620001c38162000181565b9050919050565b600060ff82169050919050565b620001e281620001ca565b82525050565b6000602082019050620001ff6000830184620001d7565b92915050565b608051615a396200023d60003960008181610c3c01528181610cca01528181610e1901528181610ea70152610fc80152615a396000f3fe6080604052600436106102045760003560e01c80636352211e11610118578063a22cb465116100a0578063d53913931161006f578063d53913931461077c578063d547741f146107a7578063e63ab1e9146107d0578063e985e9c5146107fb578063f72c0d8b1461083857610204565b8063a22cb465146106b0578063b88d4fde146106d9578063c87b56dd14610702578063ca15c8731461073f57610204565b80639010d07c116100e75780639010d07c146105b757806391d14854146105f457806395d89b4114610631578063a14481941461065c578063a217fddf1461068557610204565b80636352211e1461050f57806370a082311461054c5780638129fc1c146105895780638456cb59146105a057610204565b80632f745c591161019b57806342842e0e1161016a57806342842e0e146104375780634f1ef286146104605780634f6ccce71461047c57806352d1902d146104b95780635c975abb146104e457610204565b80632f745c591461039157806336568abe146103ce5780633659cfe6146103f75780633f4ba83a1461042057610204565b806318160ddd116101d757806318160ddd146102d757806323b872dd14610302578063248a9ca31461032b5780632f2ff15d1461036857610204565b806301ffc9a71461020957806306fdde0314610246578063081812fc14610271578063095ea7b3146102ae575b600080fd5b34801561021557600080fd5b50610230600480360381019061022b9190613d3c565b610863565b60405161023d9190613d84565b60405180910390f35b34801561025257600080fd5b5061025b610875565b6040516102689190613e2f565b60405180910390f35b34801561027d57600080fd5b5061029860048036038101906102939190613e87565b610907565b6040516102a59190613ef5565b60405180910390f35b3480156102ba57600080fd5b506102d560048036038101906102d09190613f3c565b61094d565b005b3480156102e357600080fd5b506102ec610a64565b6040516102f99190613f8b565b60405180910390f35b34801561030e57600080fd5b5061032960048036038101906103249190613fa6565b610a71565b005b34801561033757600080fd5b50610352600480360381019061034d919061402f565b610ad1565b60405161035f919061406b565b60405180910390f35b34801561037457600080fd5b5061038f600480360381019061038a9190614086565b610af1565b005b34801561039d57600080fd5b506103b860048036038101906103b39190613f3c565b610b12565b6040516103c59190613f8b565b60405180910390f35b3480156103da57600080fd5b506103f560048036038101906103f09190614086565b610bb7565b005b34801561040357600080fd5b5061041e600480360381019061041991906140c6565b610c3a565b005b34801561042c57600080fd5b50610435610dc2565b005b34801561044357600080fd5b5061045e60048036038101906104599190613fa6565b610df7565b005b61047a60048036038101906104759190614228565b610e17565b005b34801561048857600080fd5b506104a3600480360381019061049e9190613e87565b610f53565b6040516104b09190613f8b565b60405180910390f35b3480156104c557600080fd5b506104ce610fc4565b6040516104db919061406b565b60405180910390f35b3480156104f057600080fd5b506104f961107d565b6040516105069190613d84565b60405180910390f35b34801561051b57600080fd5b5061053660048036038101906105319190613e87565b611094565b6040516105439190613ef5565b60405180910390f35b34801561055857600080fd5b50610573600480360381019061056e91906140c6565b61111a565b6040516105809190613f8b565b60405180910390f35b34801561059557600080fd5b5061059e6111d1565b005b3480156105ac57600080fd5b506105b5611426565b005b3480156105c357600080fd5b506105de60048036038101906105d99190614284565b61145b565b6040516105eb9190613ef5565b60405180910390f35b34801561060057600080fd5b5061061b60048036038101906106169190614086565b61148b565b6040516106289190613d84565b60405180910390f35b34801561063d57600080fd5b506106466114f6565b6040516106539190613e2f565b60405180910390f35b34801561066857600080fd5b50610683600480360381019061067e9190613f3c565b611588565b005b34801561069157600080fd5b5061069a6115c9565b6040516106a7919061406b565b60405180910390f35b3480156106bc57600080fd5b506106d760048036038101906106d291906142f0565b6115d0565b005b3480156106e557600080fd5b5061070060048036038101906106fb9190614330565b6115e6565b005b34801561070e57600080fd5b5061072960048036038101906107249190613e87565b611648565b6040516107369190613e2f565b60405180910390f35b34801561074b57600080fd5b506107666004803603810190610761919061402f565b6116b0565b6040516107739190613f8b565b60405180910390f35b34801561078857600080fd5b506107916116d5565b60405161079e919061406b565b60405180910390f35b3480156107b357600080fd5b506107ce60048036038101906107c99190614086565b6116f9565b005b3480156107dc57600080fd5b506107e561171a565b6040516107f2919061406b565b60405180910390f35b34801561080757600080fd5b50610822600480360381019061081d91906143b3565b61173e565b60405161082f9190613d84565b60405180910390f35b34801561084457600080fd5b5061084d6117d2565b60405161085a919061406b565b60405180910390f35b600061086e826117f6565b9050919050565b60606065805461088490614422565b80601f01602080910402602001604051908101604052809291908181526020018280546108b090614422565b80156108fd5780601f106108d2576101008083540402835291602001916108fd565b820191906000526020600020905b8154815290600101906020018083116108e057829003601f168201915b5050505050905090565b600061091282611870565b6069600083815260200190815260200160002060009054906101000a900473ffffffffffffffffffffffffffffffffffffffff169050919050565b600061095882611094565b90508073ffffffffffffffffffffffffffffffffffffffff168373ffffffffffffffffffffffffffffffffffffffff16036109c8576040517f08c379a00000000000000000000000000000000000000000000000000000000081526004016109bf906144c5565b60405180910390fd5b8073ffffffffffffffffffffffffffffffffffffffff166109e76118bb565b73ffffffffffffffffffffffffffffffffffffffff161480610a165750610a1581610a106118bb565b61173e565b5b610a55576040517f08c379a0000000000000000000000000000000000000000000000000000000008152600401610a4c90614557565b60405180910390fd5b610a5f83836118c3565b505050565b6000609980549050905090565b610a82610a7c6118bb565b8261197c565b610ac1576040517f08c379a0000000000000000000000000000000000000000000000000000000008152600401610ab8906145e9565b60405180910390fd5b610acc838383611a11565b505050565b600060fb6000838152602001908152602001600020600101549050919050565b610afa82610ad1565b610b0381611d0a565b610b0d8383611d1e565b505050565b6000610b1d8361111a565b8210610b5e576040517f08c379a0000000000000000000000000000000000000000000000000000000008152600401610b559061467b565b60405180910390fd5b609760008473ffffffffffffffffffffffffffffffffffffffff1673ffffffffffffffffffffffffffffffffffffffff168152602001908152602001600020600083815260200190815260200160002054905092915050565b610bbf6118bb565b73ffffffffffffffffffffffffffffffffffffffff168173ffffffffffffffffffffffffffffffffffffffff1614610c2c576040517f08c379a0000000000000000000000000000000000000000000000000000000008152600401610c239061470d565b60405180910390fd5b610c368282611d53565b5050565b7f000000000000000000000000000000000000000000000000000000000000000073ffffffffffffffffffffffffffffffffffffffff163073ffffffffffffffffffffffffffffffffffffffff1603610cc8576040517f08c379a0000000000000000000000000000000000000000000000000000000008152600401610cbf9061479f565b60405180910390fd5b7f000000000000000000000000000000000000000000000000000000000000000073ffffffffffffffffffffffffffffffffffffffff16610d07611d88565b73ffffffffffffffffffffffffffffffffffffffff1614610d5d576040517f08c379a0000000000000000000000000000000000000000000000000000000008152600401610d5490614831565b60405180910390fd5b610d6681611ddf565b610dbf81600067ffffffffffffffff811115610d8557610d846140fd565b5b6040519080825280601f01601f191660200182016040528015610db75781602001600182028036833780820191505090505b506000611e0d565b50565b7f65d7a28e3265b37a6474929f336521b332c1681b933f6cb9f3376673440d862a610dec81611d0a565b610df4611f7b565b50565b610e12838383604051806020016040528060008152506115e6565b505050565b7f000000000000000000000000000000000000000000000000000000000000000073ffffffffffffffffffffffffffffffffffffffff163073ffffffffffffffffffffffffffffffffffffffff1603610ea5576040517f08c379a0000000000000000000000000000000000000000000000000000000008152600401610e9c9061479f565b60405180910390fd5b7f000000000000000000000000000000000000000000000000000000000000000073ffffffffffffffffffffffffffffffffffffffff16610ee4611d88565b73ffffffffffffffffffffffffffffffffffffffff1614610f3a576040517f08c379a0000000000000000000000000000000000000000000000000000000008152600401610f3190614831565b60405180910390fd5b610f4382611ddf565b610f4f82826001611e0d565b5050565b6000610f5d610a64565b8210610f9e576040517f08c379a0000000000000000000000000000000000000000000000000000000008152600401610f95906148c3565b60405180910390fd5b60998281548110610fb257610fb16148e3565b5b90600052602060002001549050919050565b60007f000000000000000000000000000000000000000000000000000000000000000073ffffffffffffffffffffffffffffffffffffffff163073ffffffffffffffffffffffffffffffffffffffff1614611054576040517f08c379a000000000000000000000000000000000000000000000000000000000815260040161104b90614984565b60405180910390fd5b7f360894a13ba1a3210667c828492db98dca3e2076cc3735a920a3ca505d382bbc60001b905090565b600060c960009054906101000a900460ff16905090565b6000806110a083611fde565b9050600073ffffffffffffffffffffffffffffffffffffffff168173ffffffffffffffffffffffffffffffffffffffff1603611111576040517f08c379a0000000000000000000000000000000000000000000000000000000008152600401611108906149f0565b60405180910390fd5b80915050919050565b60008073ffffffffffffffffffffffffffffffffffffffff168273ffffffffffffffffffffffffffffffffffffffff160361118a576040517f08c379a000000000000000000000000000000000000000000000000000000000815260040161118190614a82565b60405180910390fd5b606860008373ffffffffffffffffffffffffffffffffffffffff1673ffffffffffffffffffffffffffffffffffffffff168152602001908152602001600020549050919050565b60008060019054906101000a900460ff161590508080156112025750600160008054906101000a900460ff1660ff16105b8061122f57506112113061201b565b15801561122e5750600160008054906101000a900460ff1660ff16145b5b61126e576040517f08c379a000000000000000000000000000000000000000000000000000000000815260040161126590614b14565b60405180910390fd5b60016000806101000a81548160ff021916908360ff16021790555080156112ab576001600060016101000a81548160ff0219169083151502179055505b61131f6040518060400160405280600a81526020017f4c6f744c6f6f74436172000000000000000000000000000000000000000000008152506040518060400160405280600381526020017f4c4c43000000000000000000000000000000000000000000000000000000000081525061203e565b61132761209b565b61132f6120ec565b611337612145565b61133f612196565b61134c6000801b33611d1e565b6113767f65d7a28e3265b37a6474929f336521b332c1681b933f6cb9f3376673440d862a33611d1e565b6113a07f9f2df0fed2c77648de5860a4cc508cd0818c85b8b8a1ab4ceeef8d981c8956a633611d1e565b6113ca7f189ab7a9244df0848122154315af71fe140f3db0fe014031783b0946b8c9d2e333611d1e565b80156114235760008060016101000a81548160ff0219169083151502179055507f7f26b83ff96e1f2b6a682f133852f6798a09c465da95921460cefb3847402498600160405161141a9190614b86565b60405180910390a15b50565b7f65d7a28e3265b37a6474929f336521b332c1681b933f6cb9f3376673440d862a61145081611d0a565b6114586121e7565b50565b60006114838261012d600086815260200190815260200160002061224a90919063ffffffff16565b905092915050565b600060fb600084815260200190815260200160002060000160008373ffffffffffffffffffffffffffffffffffffffff1673ffffffffffffffffffffffffffffffffffffffff16815260200190815260200160002060009054906101000a900460ff16905092915050565b60606066805461150590614422565b80601f016020809104026020016040519081016040528092919081815260200182805461153190614422565b801561157e5780601f106115535761010080835404028352916020019161157e565b820191906000526020600020905b81548152906001019060200180831161156157829003601f168201915b5050505050905090565b7f9f2df0fed2c77648de5860a4cc508cd0818c85b8b8a1ab4ceeef8d981c8956a66115b281611d0a565b6115ba612264565b6115c483836122ae565b505050565b6000801b81565b6115e26115db6118bb565b83836122cc565b5050565b6115f76115f16118bb565b8361197c565b611636576040517f08c379a000000000000000000000000000000000000000000000000000000000815260040161162d906145e9565b60405180910390fd5b61164284848484612438565b50505050565b606061165382611870565b600061165d612494565b9050600081511161167d57604051806020016040528060008152506116a8565b80611687846124b4565b604051602001611698929190614bdd565b6040516020818303038152906040525b915050919050565b60006116ce61012d6000848152602001908152602001600020612582565b9050919050565b7f9f2df0fed2c77648de5860a4cc508cd0818c85b8b8a1ab4ceeef8d981c8956a681565b61170282610ad1565b61170b81611d0a565b6117158383611d53565b505050565b7f65d7a28e3265b37a6474929f336521b332c1681b933f6cb9f3376673440d862a81565b6000606a60008473ffffffffffffffffffffffffffffffffffffffff1673ffffffffffffffffffffffffffffffffffffffff16815260200190815260200160002060008373ffffffffffffffffffffffffffffffffffffffff1673ffffffffffffffffffffffffffffffffffffffff16815260200190815260200160002060009054906101000a900460ff16905092915050565b7f189ab7a9244df0848122154315af71fe140f3db0fe014031783b0946b8c9d2e381565b60007f5a05180f000000000000000000000000000000000000000000000000000000007bffffffffffffffffffffffffffffffffffffffffffffffffffffffff1916827bffffffffffffffffffffffffffffffffffffffffffffffffffffffff19161480611869575061186882612597565b5b9050919050565b61187981612611565b6118b8576040517f08c379a00000000000000000000000000000000000000000000000000000000081526004016118af906149f0565b60405180910390fd5b50565b600033905090565b816069600083815260200190815260200160002060006101000a81548173ffffffffffffffffffffffffffffffffffffffff021916908373ffffffffffffffffffffffffffffffffffffffff160217905550808273ffffffffffffffffffffffffffffffffffffffff1661193683611094565b73ffffffffffffffffffffffffffffffffffffffff167f8c5be1e5ebec7d5bd14f71427d1e84f3dd0314c0f7b2291e5b200ac8c7c3b92560405160405180910390a45050565b60008061198883611094565b90508073ffffffffffffffffffffffffffffffffffffffff168473ffffffffffffffffffffffffffffffffffffffff1614806119ca57506119c9818561173e565b5b80611a0857508373ffffffffffffffffffffffffffffffffffffffff166119f084610907565b73ffffffffffffffffffffffffffffffffffffffff16145b91505092915050565b8273ffffffffffffffffffffffffffffffffffffffff16611a3182611094565b73ffffffffffffffffffffffffffffffffffffffff1614611a87576040517f08c379a0000000000000000000000000000000000000000000000000000000008152600401611a7e90614c73565b60405180910390fd5b600073ffffffffffffffffffffffffffffffffffffffff168273ffffffffffffffffffffffffffffffffffffffff1603611af6576040517f08c379a0000000000000000000000000000000000000000000000000000000008152600401611aed90614d05565b60405180910390fd5b611b038383836001612652565b8273ffffffffffffffffffffffffffffffffffffffff16611b2382611094565b73ffffffffffffffffffffffffffffffffffffffff1614611b79576040517f08c379a0000000000000000000000000000000000000000000000000000000008152600401611b7090614c73565b60405180910390fd5b6069600082815260200190815260200160002060006101000a81549073ffffffffffffffffffffffffffffffffffffffff02191690556001606860008573ffffffffffffffffffffffffffffffffffffffff1673ffffffffffffffffffffffffffffffffffffffff168152602001908152602001600020600082825403925050819055506001606860008473ffffffffffffffffffffffffffffffffffffffff1673ffffffffffffffffffffffffffffffffffffffff16815260200190815260200160002060008282540192505081905550816067600083815260200190815260200160002060006101000a81548173ffffffffffffffffffffffffffffffffffffffff021916908373ffffffffffffffffffffffffffffffffffffffff160217905550808273ffffffffffffffffffffffffffffffffffffffff168473ffffffffffffffffffffffffffffffffffffffff167fddf252ad1be2c89b69c2b068fc378daa952ba7f163c4a11628f55a4df523b3ef60405160405180910390a4611d05838383600161266c565b505050565b611d1b81611d166118bb565b612672565b50565b611d2882826126f7565b611d4e8161012d60008581526020019081526020016000206127d890919063ffffffff16565b505050565b611d5d8282612808565b611d838161012d60008581526020019081526020016000206128ea90919063ffffffff16565b505050565b6000611db67f360894a13ba1a3210667c828492db98dca3e2076cc3735a920a3ca505d382bbc60001b61291a565b60000160009054906101000a900473ffffffffffffffffffffffffffffffffffffffff16905090565b7f189ab7a9244df0848122154315af71fe140f3db0fe014031783b0946b8c9d2e3611e0981611d0a565b5050565b611e397f4910fdfa16fed3260ed0e7147f7cc6da11a60208b5b9406d12a635614ffd914360001b612924565b60000160009054906101000a900460ff1615611e5d57611e588361292e565b611f76565b8273ffffffffffffffffffffffffffffffffffffffff166352d1902d6040518163ffffffff1660e01b8152600401602060405180830381865afa925050508015611ec557506040513d601f19601f82011682018060405250810190611ec29190614d3a565b60015b611f04576040517f08c379a0000000000000000000000000000000000000000000000000000000008152600401611efb90614dd9565b60405180910390fd5b7f360894a13ba1a3210667c828492db98dca3e2076cc3735a920a3ca505d382bbc60001b8114611f69576040517f08c379a0000000000000000000000000000000000000000000000000000000008152600401611f6090614e6b565b60405180910390fd5b50611f758383836129e7565b5b505050565b611f83612a13565b600060c960006101000a81548160ff0219169083151502179055507f5db9ee0a495bf2e6ff9c91a7834c1ba4fdd244a5e8aa4e537bd38aeae4b073aa611fc76118bb565b604051611fd49190613ef5565b60405180910390a1565b60006067600083815260200190815260200160002060009054906101000a900473ffffffffffffffffffffffffffffffffffffffff169050919050565b6000808273ffffffffffffffffffffffffffffffffffffffff163b119050919050565b600060019054906101000a900460ff1661208d576040517f08c379a000000000000000000000000000000000000000000000000000000000815260040161208490614efd565b60405180910390fd5b6120978282612a5c565b5050565b600060019054906101000a900460ff166120ea576040517f08c379a00000000000000000000000000000000000000000000000000000000081526004016120e190614efd565b60405180910390fd5b565b600060019054906101000a900460ff1661213b576040517f08c379a000000000000000000000000000000000000000000000000000000000815260040161213290614efd565b60405180910390fd5b612143612acf565b565b600060019054906101000a900460ff16612194576040517f08c379a000000000000000000000000000000000000000000000000000000000815260040161218b90614efd565b60405180910390fd5b565b600060019054906101000a900460ff166121e5576040517f08c379a00000000000000000000000000000000000000000000000000000000081526004016121dc90614efd565b60405180910390fd5b565b6121ef612264565b600160c960006101000a81548160ff0219169083151502179055507f62e78cea01bee320cd4e420270b5ea74000d11b0c9f74754ebdbfc544b05a2586122336118bb565b6040516122409190613ef5565b60405180910390a1565b60006122598360000183612b3b565b60001c905092915050565b61226c61107d565b156122ac576040517f08c379a00000000000000000000000000000000000000000000000000000000081526004016122a390614f69565b60405180910390fd5b565b6122c8828260405180602001604052806000815250612b66565b5050565b8173ffffffffffffffffffffffffffffffffffffffff168373ffffffffffffffffffffffffffffffffffffffff160361233a576040517f08c379a000000000000000000000000000000000000000000000000000000000815260040161233190614fd5565b60405180910390fd5b80606a60008573ffffffffffffffffffffffffffffffffffffffff1673ffffffffffffffffffffffffffffffffffffffff16815260200190815260200160002060008473ffffffffffffffffffffffffffffffffffffffff1673ffffffffffffffffffffffffffffffffffffffff16815260200190815260200160002060006101000a81548160ff0219169083151502179055508173ffffffffffffffffffffffffffffffffffffffff168373ffffffffffffffffffffffffffffffffffffffff167f17307eab39ab6107e8899845ad3d59bd9653f200f220920489ca2b5937696c318360405161242b9190613d84565b60405180910390a3505050565b612443848484611a11565b61244f84848484612bc1565b61248e576040517f08c379a000000000000000000000000000000000000000000000000000000000815260040161248590615067565b60405180910390fd5b50505050565b60606040518060600160405280603981526020016159cb60399139905090565b6060600060016124c384612d48565b01905060008167ffffffffffffffff8111156124e2576124e16140fd565b5b6040519080825280601f01601f1916602001820160405280156125145781602001600182028036833780820191505090505b509050600082602001820190505b600115612577578080600190039150507f3031323334353637383961626364656600000000000000000000000000000000600a86061a8153600a858161256b5761256a615087565b5b04945060008503612522575b819350505050919050565b600061259082600001612e9b565b9050919050565b60007f7965db0b000000000000000000000000000000000000000000000000000000007bffffffffffffffffffffffffffffffffffffffffffffffffffffffff1916827bffffffffffffffffffffffffffffffffffffffffffffffffffffffff1916148061260a575061260982612eac565b5b9050919050565b60008073ffffffffffffffffffffffffffffffffffffffff1661263383611fde565b73ffffffffffffffffffffffffffffffffffffffff1614159050919050565b61265a612264565b61266684848484612f26565b50505050565b50505050565b61267c828261148b565b6126f35761268981613084565b6126978360001c60206130b1565b6040516020016126a892919061514e565b6040516020818303038152906040526040517f08c379a00000000000000000000000000000000000000000000000000000000081526004016126ea9190613e2f565b60405180910390fd5b5050565b612701828261148b565b6127d457600160fb600084815260200190815260200160002060000160008373ffffffffffffffffffffffffffffffffffffffff1673ffffffffffffffffffffffffffffffffffffffff16815260200190815260200160002060006101000a81548160ff0219169083151502179055506127796118bb565b73ffffffffffffffffffffffffffffffffffffffff168173ffffffffffffffffffffffffffffffffffffffff16837f2f8788117e7eff1d82e926ec794901d17c78024a50270940304540a733656f0d60405160405180910390a45b5050565b6000612800836000018373ffffffffffffffffffffffffffffffffffffffff1660001b6132ed565b905092915050565b612812828261148b565b156128e657600060fb600084815260200190815260200160002060000160008373ffffffffffffffffffffffffffffffffffffffff1673ffffffffffffffffffffffffffffffffffffffff16815260200190815260200160002060006101000a81548160ff02191690831515021790555061288b6118bb565b73ffffffffffffffffffffffffffffffffffffffff168173ffffffffffffffffffffffffffffffffffffffff16837ff6391f5c32d9c69d2a47ea670b442974b53935d1edc7fd64eb21e047a839171b60405160405180910390a45b5050565b6000612912836000018373ffffffffffffffffffffffffffffffffffffffff1660001b61335d565b905092915050565b6000819050919050565b6000819050919050565b6129378161201b565b612976576040517f08c379a000000000000000000000000000000000000000000000000000000000815260040161296d906151fa565b60405180910390fd5b806129a37f360894a13ba1a3210667c828492db98dca3e2076cc3735a920a3ca505d382bbc60001b61291a565b60000160006101000a81548173ffffffffffffffffffffffffffffffffffffffff021916908373ffffffffffffffffffffffffffffffffffffffff16021790555050565b6129f083613471565b6000825111806129fd5750805b15612a0e57612a0c83836134c0565b505b505050565b612a1b61107d565b612a5a576040517f08c379a0000000000000000000000000000000000000000000000000000000008152600401612a5190615266565b60405180910390fd5b565b600060019054906101000a900460ff16612aab576040517f08c379a0000000000000000000000000000000000000000000000000000000008152600401612aa290614efd565b60405180910390fd5b8160659081612aba9190615428565b508060669081612aca9190615428565b505050565b600060019054906101000a900460ff16612b1e576040517f08c379a0000000000000000000000000000000000000000000000000000000008152600401612b1590614efd565b60405180910390fd5b600060c960006101000a81548160ff021916908315150217905550565b6000826000018281548110612b5357612b526148e3565b5b9060005260206000200154905092915050565b612b7083836134ed565b612b7d6000848484612bc1565b612bbc576040517f08c379a0000000000000000000000000000000000000000000000000000000008152600401612bb390615067565b60405180910390fd5b505050565b6000612be28473ffffffffffffffffffffffffffffffffffffffff1661201b565b15612d3b578373ffffffffffffffffffffffffffffffffffffffff1663150b7a02612c0b6118bb565b8786866040518563ffffffff1660e01b8152600401612c2d949392919061554f565b6020604051808303816000875af1925050508015612c6957506040513d601f19601f82011682018060405250810190612c6691906155b0565b60015b612ceb573d8060008114612c99576040519150601f19603f3d011682016040523d82523d6000602084013e612c9e565b606091505b506000815103612ce3576040517f08c379a0000000000000000000000000000000000000000000000000000000008152600401612cda90615067565b60405180910390fd5b805181602001fd5b63150b7a0260e01b7bffffffffffffffffffffffffffffffffffffffffffffffffffffffff1916817bffffffffffffffffffffffffffffffffffffffffffffffffffffffff191614915050612d40565b600190505b949350505050565b600080600090507a184f03e93ff9f4daa797ed6e38ed64bf6a1f0100000000000000008310612da6577a184f03e93ff9f4daa797ed6e38ed64bf6a1f0100000000000000008381612d9c57612d9b615087565b5b0492506040810190505b6d04ee2d6d415b85acef81000000008310612de3576d04ee2d6d415b85acef81000000008381612dd957612dd8615087565b5b0492506020810190505b662386f26fc100008310612e1257662386f26fc100008381612e0857612e07615087565b5b0492506010810190505b6305f5e1008310612e3b576305f5e1008381612e3157612e30615087565b5b0492506008810190505b6127108310612e60576127108381612e5657612e55615087565b5b0492506004810190505b60648310612e835760648381612e7957612e78615087565b5b0492506002810190505b600a8310612e92576001810190505b80915050919050565b600081600001805490509050919050565b60007f780e9d63000000000000000000000000000000000000000000000000000000007bffffffffffffffffffffffffffffffffffffffffffffffffffffffff1916827bffffffffffffffffffffffffffffffffffffffffffffffffffffffff19161480612f1f5750612f1e8261370a565b5b9050919050565b612f32848484846137ec565b6001811115612f76576040517f08c379a0000000000000000000000000000000000000000000000000000000008152600401612f6d9061564f565b60405180910390fd5b6000829050600073ffffffffffffffffffffffffffffffffffffffff168573ffffffffffffffffffffffffffffffffffffffff1603612fbd57612fb8816137f2565b612ffc565b8373ffffffffffffffffffffffffffffffffffffffff168573ffffffffffffffffffffffffffffffffffffffff1614612ffb57612ffa858261383b565b5b5b600073ffffffffffffffffffffffffffffffffffffffff168473ffffffffffffffffffffffffffffffffffffffff160361303e57613039816139a8565b61307d565b8473ffffffffffffffffffffffffffffffffffffffff168473ffffffffffffffffffffffffffffffffffffffff161461307c5761307b8482613a79565b5b5b5050505050565b60606130aa8273ffffffffffffffffffffffffffffffffffffffff16601460ff166130b1565b9050919050565b6060600060028360026130c4919061569e565b6130ce91906156e0565b67ffffffffffffffff8111156130e7576130e66140fd565b5b6040519080825280601f01601f1916602001820160405280156131195781602001600182028036833780820191505090505b5090507f300000000000000000000000000000000000000000000000000000000000000081600081518110613151576131506148e3565b5b60200101907effffffffffffffffffffffffffffffffffffffffffffffffffffffffffffff1916908160001a9053507f7800000000000000000000000000000000000000000000000000000000000000816001815181106131b5576131b46148e3565b5b60200101907effffffffffffffffffffffffffffffffffffffffffffffffffffffffffffff1916908160001a905350600060018460026131f5919061569e565b6131ff91906156e0565b90505b600181111561329f577f3031323334353637383961626364656600000000000000000000000000000000600f861660108110613241576132406148e3565b5b1a60f81b828281518110613258576132576148e3565b5b60200101907effffffffffffffffffffffffffffffffffffffffffffffffffffffffffffff1916908160001a905350600485901c94508061329890615714565b9050613202565b50600084146132e3576040517f08c379a00000000000000000000000000000000000000000000000000000000081526004016132da90615789565b60405180910390fd5b8091505092915050565b60006132f98383613af8565b613352578260000182908060018154018082558091505060019003906000526020600020016000909190919091505582600001805490508360010160008481526020019081526020016000208190555060019050613357565b600090505b92915050565b6000808360010160008481526020019081526020016000205490506000811461346557600060018261338f91906157a9565b90506000600186600001805490506133a791906157a9565b90508181146134165760008660000182815481106133c8576133c76148e3565b5b90600052602060002001549050808760000184815481106133ec576133eb6148e3565b5b90600052602060002001819055508387600101600083815260200190815260200160002081905550505b8560000180548061342a576134296157dd565b5b60019003818190600052602060002001600090559055856001016000868152602001908152602001600020600090556001935050505061346b565b60009150505b92915050565b61347a8161292e565b8073ffffffffffffffffffffffffffffffffffffffff167fbc7cd75a20ee27fd9adebab32041f755214dbc6bffa90cc0225b39da2e5c2d3b60405160405180910390a250565b60606134e583836040518060600160405280602781526020016159a460279139613b1b565b905092915050565b600073ffffffffffffffffffffffffffffffffffffffff168273ffffffffffffffffffffffffffffffffffffffff160361355c576040517f08c379a000000000000000000000000000000000000000000000000000000000815260040161355390615858565b60405180910390fd5b61356581612611565b156135a5576040517f08c379a000000000000000000000000000000000000000000000000000000000815260040161359c906158c4565b60405180910390fd5b6135b3600083836001612652565b6135bc81612611565b156135fc576040517f08c379a00000000000000000000000000000000000000000000000000000000081526004016135f3906158c4565b60405180910390fd5b6001606860008473ffffffffffffffffffffffffffffffffffffffff1673ffffffffffffffffffffffffffffffffffffffff16815260200190815260200160002060008282540192505081905550816067600083815260200190815260200160002060006101000a81548173ffffffffffffffffffffffffffffffffffffffff021916908373ffffffffffffffffffffffffffffffffffffffff160217905550808273ffffffffffffffffffffffffffffffffffffffff16600073ffffffffffffffffffffffffffffffffffffffff167fddf252ad1be2c89b69c2b068fc378daa952ba7f163c4a11628f55a4df523b3ef60405160405180910390a461370660008383600161266c565b5050565b60007f80ac58cd000000000000000000000000000000000000000000000000000000007bffffffffffffffffffffffffffffffffffffffffffffffffffffffff1916827bffffffffffffffffffffffffffffffffffffffffffffffffffffffff191614806137d557507f5b5e139f000000000000000000000000000000000000000000000000000000007bffffffffffffffffffffffffffffffffffffffffffffffffffffffff1916827bffffffffffffffffffffffffffffffffffffffffffffffffffffffff1916145b806137e557506137e482613ba1565b5b9050919050565b50505050565b609980549050609a600083815260200190815260200160002081905550609981908060018154018082558091505060019003906000526020600020016000909190919091505550565b600060016138488461111a565b61385291906157a9565b9050600060986000848152602001908152602001600020549050818114613937576000609760008673ffffffffffffffffffffffffffffffffffffffff1673ffffffffffffffffffffffffffffffffffffffff168152602001908152602001600020600084815260200190815260200160002054905080609760008773ffffffffffffffffffffffffffffffffffffffff1673ffffffffffffffffffffffffffffffffffffffff168152602001908152602001600020600084815260200190815260200160002081905550816098600083815260200190815260200160002081905550505b6098600084815260200190815260200160002060009055609760008573ffffffffffffffffffffffffffffffffffffffff1673ffffffffffffffffffffffffffffffffffffffff16815260200190815260200160002060008381526020019081526020016000206000905550505050565b600060016099805490506139bc91906157a9565b90506000609a60008481526020019081526020016000205490506000609983815481106139ec576139eb6148e3565b5b906000526020600020015490508060998381548110613a0e57613a0d6148e3565b5b906000526020600020018190555081609a600083815260200190815260200160002081905550609a6000858152602001908152602001600020600090556099805480613a5d57613a5c6157dd565b5b6001900381819060005260206000200160009055905550505050565b6000613a848361111a565b905081609760008573ffffffffffffffffffffffffffffffffffffffff1673ffffffffffffffffffffffffffffffffffffffff168152602001908152602001600020600083815260200190815260200160002081905550806098600084815260200190815260200160002081905550505050565b600080836001016000848152602001908152602001600020541415905092915050565b60606000808573ffffffffffffffffffffffffffffffffffffffff1685604051613b459190615920565b600060405180830381855af49150503d8060008114613b80576040519150601f19603f3d011682016040523d82523d6000602084013e613b85565b606091505b5091509150613b9686838387613c0b565b925050509392505050565b60007f01ffc9a7000000000000000000000000000000000000000000000000000000007bffffffffffffffffffffffffffffffffffffffffffffffffffffffff1916827bffffffffffffffffffffffffffffffffffffffffffffffffffffffff1916149050919050565b60608315613c6d576000835103613c6557613c258561201b565b613c64576040517f08c379a0000000000000000000000000000000000000000000000000000000008152600401613c5b90615983565b60405180910390fd5b5b829050613c78565b613c778383613c80565b5b949350505050565b600082511115613c935781518083602001fd5b806040517f08c379a0000000000000000000000000000000000000000000000000000000008152600401613cc79190613e2f565b60405180910390fd5b6000604051905090565b600080fd5b600080fd5b60007fffffffff0000000000000000000000000000000000000000000000000000000082169050919050565b613d1981613ce4565b8114613d2457600080fd5b50565b600081359050613d3681613d10565b92915050565b600060208284031215613d5257613d51613cda565b5b6000613d6084828501613d27565b91505092915050565b60008115159050919050565b613d7e81613d69565b82525050565b6000602082019050613d996000830184613d75565b92915050565b600081519050919050565b600082825260208201905092915050565b60005b83811015613dd9578082015181840152602081019050613dbe565b60008484015250505050565b6000601f19601f8301169050919050565b6000613e0182613d9f565b613e0b8185613daa565b9350613e1b818560208601613dbb565b613e2481613de5565b840191505092915050565b60006020820190508181036000830152613e498184613df6565b905092915050565b6000819050919050565b613e6481613e51565b8114613e6f57600080fd5b50565b600081359050613e8181613e5b565b92915050565b600060208284031215613e9d57613e9c613cda565b5b6000613eab84828501613e72565b91505092915050565b600073ffffffffffffffffffffffffffffffffffffffff82169050919050565b6000613edf82613eb4565b9050919050565b613eef81613ed4565b82525050565b6000602082019050613f0a6000830184613ee6565b92915050565b613f1981613ed4565b8114613f2457600080fd5b50565b600081359050613f3681613f10565b92915050565b60008060408385031215613f5357613f52613cda565b5b6000613f6185828601613f27565b9250506020613f7285828601613e72565b9150509250929050565b613f8581613e51565b82525050565b6000602082019050613fa06000830184613f7c565b92915050565b600080600060608486031215613fbf57613fbe613cda565b5b6000613fcd86828701613f27565b9350506020613fde86828701613f27565b9250506040613fef86828701613e72565b9150509250925092565b6000819050919050565b61400c81613ff9565b811461401757600080fd5b50565b60008135905061402981614003565b92915050565b60006020828403121561404557614044613cda565b5b60006140538482850161401a565b91505092915050565b61406581613ff9565b82525050565b6000602082019050614080600083018461405c565b92915050565b6000806040838503121561409d5761409c613cda565b5b60006140ab8582860161401a565b92505060206140bc85828601613f27565b9150509250929050565b6000602082840312156140dc576140db613cda565b5b60006140ea84828501613f27565b91505092915050565b600080fd5b600080fd5b7f4e487b7100000000000000000000000000000000000000000000000000000000600052604160045260246000fd5b61413582613de5565b810181811067ffffffffffffffff82111715614154576141536140fd565b5b80604052505050565b6000614167613cd0565b9050614173828261412c565b919050565b600067ffffffffffffffff821115614193576141926140fd565b5b61419c82613de5565b9050602081019050919050565b82818337600083830152505050565b60006141cb6141c684614178565b61415d565b9050828152602081018484840111156141e7576141e66140f8565b5b6141f28482856141a9565b509392505050565b600082601f83011261420f5761420e6140f3565b5b813561421f8482602086016141b8565b91505092915050565b6000806040838503121561423f5761423e613cda565b5b600061424d85828601613f27565b925050602083013567ffffffffffffffff81111561426e5761426d613cdf565b5b61427a858286016141fa565b9150509250929050565b6000806040838503121561429b5761429a613cda565b5b60006142a98582860161401a565b92505060206142ba85828601613e72565b9150509250929050565b6142cd81613d69565b81146142d857600080fd5b50565b6000813590506142ea816142c4565b92915050565b6000806040838503121561430757614306613cda565b5b600061431585828601613f27565b9250506020614326858286016142db565b9150509250929050565b6000806000806080858703121561434a57614349613cda565b5b600061435887828801613f27565b945050602061436987828801613f27565b935050604061437a87828801613e72565b925050606085013567ffffffffffffffff81111561439b5761439a613cdf565b5b6143a7878288016141fa565b91505092959194509250565b600080604083850312156143ca576143c9613cda565b5b60006143d885828601613f27565b92505060206143e985828601613f27565b9150509250929050565b7f4e487b7100000000000000000000000000000000000000000000000000000000600052602260045260246000fd5b6000600282049050600182168061443a57607f821691505b60208210810361444d5761444c6143f3565b5b50919050565b7f4552433732313a20617070726f76616c20746f2063757272656e74206f776e6560008201527f7200000000000000000000000000000000000000000000000000000000000000602082015250565b60006144af602183613daa565b91506144ba82614453565b604082019050919050565b600060208201905081810360008301526144de816144a2565b9050919050565b7f4552433732313a20617070726f76652063616c6c6572206973206e6f7420746f60008201527f6b656e206f776e6572206f7220617070726f76656420666f7220616c6c000000602082015250565b6000614541603d83613daa565b915061454c826144e5565b604082019050919050565b6000602082019050818103600083015261457081614534565b9050919050565b7f4552433732313a2063616c6c6572206973206e6f7420746f6b656e206f776e6560008201527f72206f7220617070726f76656400000000000000000000000000000000000000602082015250565b60006145d3602d83613daa565b91506145de82614577565b604082019050919050565b60006020820190508181036000830152614602816145c6565b9050919050565b7f455243373231456e756d657261626c653a206f776e657220696e646578206f7560008201527f74206f6620626f756e6473000000000000000000000000000000000000000000602082015250565b6000614665602b83613daa565b915061467082614609565b604082019050919050565b6000602082019050818103600083015261469481614658565b9050919050565b7f416363657373436f6e74726f6c3a2063616e206f6e6c792072656e6f756e636560008201527f20726f6c657320666f722073656c660000000000000000000000000000000000602082015250565b60006146f7602f83613daa565b91506147028261469b565b604082019050919050565b60006020820190508181036000830152614726816146ea565b9050919050565b7f46756e6374696f6e206d7573742062652063616c6c6564207468726f7567682060008201527f64656c656761746563616c6c0000000000000000000000000000000000000000602082015250565b6000614789602c83613daa565b91506147948261472d565b604082019050919050565b600060208201905081810360008301526147b88161477c565b9050919050565b7f46756e6374696f6e206d7573742062652063616c6c6564207468726f7567682060008201527f6163746976652070726f78790000000000000000000000000000000000000000602082015250565b600061481b602c83613daa565b9150614826826147bf565b604082019050919050565b6000602082019050818103600083015261484a8161480e565b9050919050565b7f455243373231456e756d657261626c653a20676c6f62616c20696e646578206f60008201527f7574206f6620626f756e64730000000000000000000000000000000000000000602082015250565b60006148ad602c83613daa565b91506148b882614851565b604082019050919050565b600060208201905081810360008301526148dc816148a0565b9050919050565b7f4e487b7100000000000000000000000000000000000000000000000000000000600052603260045260246000fd5b7f555550535570677261646561626c653a206d757374206e6f742062652063616c60008201527f6c6564207468726f7567682064656c656761746563616c6c0000000000000000602082015250565b600061496e603883613daa565b915061497982614912565b604082019050919050565b6000602082019050818103600083015261499d81614961565b9050919050565b7f4552433732313a20696e76616c696420746f6b656e2049440000000000000000600082015250565b60006149da601883613daa565b91506149e5826149a4565b602082019050919050565b60006020820190508181036000830152614a09816149cd565b9050919050565b7f4552433732313a2061646472657373207a65726f206973206e6f74206120766160008201527f6c6964206f776e65720000000000000000000000000000000000000000000000602082015250565b6000614a6c602983613daa565b9150614a7782614a10565b604082019050919050565b60006020820190508181036000830152614a9b81614a5f565b9050919050565b7f496e697469616c697a61626c653a20636f6e747261637420697320616c72656160008201527f647920696e697469616c697a6564000000000000000000000000000000000000602082015250565b6000614afe602e83613daa565b9150614b0982614aa2565b604082019050919050565b60006020820190508181036000830152614b2d81614af1565b9050919050565b6000819050919050565b600060ff82169050919050565b6000819050919050565b6000614b70614b6b614b6684614b34565b614b4b565b614b3e565b9050919050565b614b8081614b55565b82525050565b6000602082019050614b9b6000830184614b77565b92915050565b600081905092915050565b6000614bb782613d9f565b614bc18185614ba1565b9350614bd1818560208601613dbb565b80840191505092915050565b6000614be98285614bac565b9150614bf58284614bac565b91508190509392505050565b7f4552433732313a207472616e736665722066726f6d20696e636f72726563742060008201527f6f776e6572000000000000000000000000000000000000000000000000000000602082015250565b6000614c5d602583613daa565b9150614c6882614c01565b604082019050919050565b60006020820190508181036000830152614c8c81614c50565b9050919050565b7f4552433732313a207472616e7366657220746f20746865207a65726f2061646460008201527f7265737300000000000000000000000000000000000000000000000000000000602082015250565b6000614cef602483613daa565b9150614cfa82614c93565b604082019050919050565b60006020820190508181036000830152614d1e81614ce2565b9050919050565b600081519050614d3481614003565b92915050565b600060208284031215614d5057614d4f613cda565b5b6000614d5e84828501614d25565b91505092915050565b7f45524331393637557067726164653a206e657720696d706c656d656e7461746960008201527f6f6e206973206e6f742055555053000000000000000000000000000000000000602082015250565b6000614dc3602e83613daa565b9150614dce82614d67565b604082019050919050565b60006020820190508181036000830152614df281614db6565b9050919050565b7f45524331393637557067726164653a20756e737570706f727465642070726f7860008201527f6961626c65555549440000000000000000000000000000000000000000000000602082015250565b6000614e55602983613daa565b9150614e6082614df9565b604082019050919050565b60006020820190508181036000830152614e8481614e48565b9050919050565b7f496e697469616c697a61626c653a20636f6e7472616374206973206e6f74206960008201527f6e697469616c697a696e67000000000000000000000000000000000000000000602082015250565b6000614ee7602b83613daa565b9150614ef282614e8b565b604082019050919050565b60006020820190508181036000830152614f1681614eda565b9050919050565b7f5061757361626c653a2070617573656400000000000000000000000000000000600082015250565b6000614f53601083613daa565b9150614f5e82614f1d565b602082019050919050565b60006020820190508181036000830152614f8281614f46565b9050919050565b7f4552433732313a20617070726f766520746f2063616c6c657200000000000000600082015250565b6000614fbf601983613daa565b9150614fca82614f89565b602082019050919050565b60006020820190508181036000830152614fee81614fb2565b9050919050565b7f4552433732313a207472616e7366657220746f206e6f6e20455243373231526560008201527f63656976657220696d706c656d656e7465720000000000000000000000000000602082015250565b6000615051603283613daa565b915061505c82614ff5565b604082019050919050565b6000602082019050818103600083015261508081615044565b9050919050565b7f4e487b7100000000000000000000000000000000000000000000000000000000600052601260045260246000fd5b7f416363657373436f6e74726f6c3a206163636f756e7420000000000000000000600082015250565b60006150ec601783614ba1565b91506150f7826150b6565b601782019050919050565b7f206973206d697373696e6720726f6c6520000000000000000000000000000000600082015250565b6000615138601183614ba1565b915061514382615102565b601182019050919050565b6000615159826150df565b91506151658285614bac565b91506151708261512b565b915061517c8284614bac565b91508190509392505050565b7f455243313936373a206e657720696d706c656d656e746174696f6e206973206e60008201527f6f74206120636f6e747261637400000000000000000000000000000000000000602082015250565b60006151e4602d83613daa565b91506151ef82615188565b604082019050919050565b60006020820190508181036000830152615213816151d7565b9050919050565b7f5061757361626c653a206e6f7420706175736564000000000000000000000000600082015250565b6000615250601483613daa565b915061525b8261521a565b602082019050919050565b6000602082019050818103600083015261527f81615243565b9050919050565b60008190508160005260206000209050919050565b60006020601f8301049050919050565b600082821b905092915050565b6000600883026152e87fffffffffffffffffffffffffffffffffffffffffffffffffffffffffffffffff826152ab565b6152f286836152ab565b95508019841693508086168417925050509392505050565b600061532561532061531b84613e51565b614b4b565b613e51565b9050919050565b6000819050919050565b61533f8361530a565b61535361534b8261532c565b8484546152b8565b825550505050565b600090565b61536861535b565b615373818484615336565b505050565b5b818110156153975761538c600082615360565b600181019050615379565b5050565b601f8211156153dc576153ad81615286565b6153b68461529b565b810160208510156153c5578190505b6153d96153d18561529b565b830182615378565b50505b505050565b600082821c905092915050565b60006153ff600019846008026153e1565b1980831691505092915050565b600061541883836153ee565b9150826002028217905092915050565b61543182613d9f565b67ffffffffffffffff81111561544a576154496140fd565b5b6154548254614422565b61545f82828561539b565b600060209050601f8311600181146154925760008415615480578287015190505b61548a858261540c565b8655506154f2565b601f1984166154a086615286565b60005b828110156154c8578489015182556001820191506020850194506020810190506154a3565b868310156154e557848901516154e1601f8916826153ee565b8355505b6001600288020188555050505b505050505050565b600081519050919050565b600082825260208201905092915050565b6000615521826154fa565b61552b8185615505565b935061553b818560208601613dbb565b61554481613de5565b840191505092915050565b60006080820190506155646000830187613ee6565b6155716020830186613ee6565b61557e6040830185613f7c565b81810360608301526155908184615516565b905095945050505050565b6000815190506155aa81613d10565b92915050565b6000602082840312156155c6576155c5613cda565b5b60006155d48482850161559b565b91505092915050565b7f455243373231456e756d657261626c653a20636f6e736563757469766520747260008201527f616e7366657273206e6f7420737570706f727465640000000000000000000000602082015250565b6000615639603583613daa565b9150615644826155dd565b604082019050919050565b600060208201905081810360008301526156688161562c565b9050919050565b7f4e487b7100000000000000000000000000000000000000000000000000000000600052601160045260246000fd5b60006156a982613e51565b91506156b483613e51565b92508282026156c281613e51565b915082820484148315176156d9576156d861566f565b5b5092915050565b60006156eb82613e51565b91506156f683613e51565b925082820190508082111561570e5761570d61566f565b5b92915050565b600061571f82613e51565b9150600082036157325761573161566f565b5b600182039050919050565b7f537472696e67733a20686578206c656e67746820696e73756666696369656e74600082015250565b6000615773602083613daa565b915061577e8261573d565b602082019050919050565b600060208201905081810360008301526157a281615766565b9050919050565b60006157b482613e51565b91506157bf83613e51565b92508282039050818111156157d7576157d661566f565b5b92915050565b7f4e487b7100000000000000000000000000000000000000000000000000000000600052603160045260246000fd5b7f4552433732313a206d696e7420746f20746865207a65726f2061646472657373600082015250565b6000615842602083613daa565b915061584d8261580c565b602082019050919050565b6000602082019050818103600083015261587181615835565b9050919050565b7f4552433732313a20746f6b656e20616c7265616479206d696e74656400000000600082015250565b60006158ae601c83613daa565b91506158b982615878565b602082019050919050565b600060208201905081810360008301526158dd816158a1565b9050919050565b600081905092915050565b60006158fa826154fa565b61590481856158e4565b9350615914818560208601613dbb565b80840191505092915050565b600061592c82846158ef565b915081905092915050565b7f416464726573733a2063616c6c20746f206e6f6e2d636f6e7472616374000000600082015250565b600061596d601d83613daa565b915061597882615937565b602082019050919050565b6000602082019050818103600083015261599c81615960565b905091905056fe416464726573733a206c6f772d6c6576656c2064656c65676174652063616c6c206661696c656468747470733a2f2f6c6f746c6f6f742e6f736169726f2e78797a2f6c6f746c6f6f745f6361725f6d6574612e6a736f6e3f746f6b656e69643da26469706673582212202f4d0c0b46a73c6a68b7d8478fdd9562797aca45375ed97faf91bd529d1a440b64736f6c63430008140033",
  "linkReferences": {},
  "deployedLinkReferences": {}
}