{
  "_format": "hh-sol-artifact-1",
  "contractName": "ERC721Car",
  "sourceName": "contracts/tokens/ERC721Car.sol",
  "abi": [
    {
      "inputs": [],
      "stateMutability": "nonpayable",
      "type": "constructor"
    },
    {
      "anonymous": false,
      "inputs": [
        {
          "indexed": false,
          "internalType": "address",
          "name": "previousAdmin",
          "type": "address"
        },
        {
          "indexed": false,
          "internalType": "address",
          "name": "newAdmin",
          "type": "address"
        }
      ],
      "name": "AdminChanged",
      "type": "event"
    },
    {
      "anonymous": false,
      "inputs": [
        {
          "indexed": true,
          "internalType": "address",
          "name": "owner",
          "type": "address"
        },
        {
          "indexed": true,
          "internalType": "address",
          "name": "approved",
          "type": "address"
        },
        {
          "indexed": true,
          "internalType": "uint256",
          "name": "tokenId",
          "type": "uint256"
        }
      ],
      "name": "Approval",
      "type": "event"
    },
    {
      "anonymous": false,
      "inputs": [
        {
          "indexed": true,
          "internalType": "address",
          "name": "owner",
          "type": "address"
        },
        {
          "indexed": true,
          "internalType": "address",
          "name": "operator",
          "type": "address"
        },
        {
          "indexed": false,
          "internalType": "bool",
          "name": "approved",
          "type": "bool"
        }
      ],
      "name": "ApprovalForAll",
      "type": "event"
    },
    {
      "anonymous": false,
      "inputs": [
        {
          "indexed": true,
          "internalType": "address",
          "name": "beacon",
          "type": "address"
        }
      ],
      "name": "BeaconUpgraded",
      "type": "event"
    },
    {
      "anonymous": false,
      "inputs": [
        {
          "indexed": false,
          "internalType": "uint8",
          "name": "version",
          "type": "uint8"
        }
      ],
      "name": "Initialized",
      "type": "event"
    },
    {
      "anonymous": false,
      "inputs": [
        {
          "indexed": false,
          "internalType": "address",
          "name": "account",
          "type": "address"
        }
      ],
      "name": "Paused",
      "type": "event"
    },
    {
      "anonymous": false,
      "inputs": [
        {
          "indexed": true,
          "internalType": "bytes32",
          "name": "role",
          "type": "bytes32"
        },
        {
          "indexed": true,
          "internalType": "bytes32",
          "name": "previousAdminRole",
          "type": "bytes32"
        },
        {
          "indexed": true,
          "internalType": "bytes32",
          "name": "newAdminRole",
          "type": "bytes32"
        }
      ],
      "name": "RoleAdminChanged",
      "type": "event"
    },
    {
      "anonymous": false,
      "inputs": [
        {
          "indexed": true,
          "internalType": "bytes32",
          "name": "role",
          "type": "bytes32"
        },
        {
          "indexed": true,
          "internalType": "address",
          "name": "account",
          "type": "address"
        },
        {
          "indexed": true,
          "internalType": "address",
          "name": "sender",
          "type": "address"
        }
      ],
      "name": "RoleGranted",
      "type": "event"
    },
    {
      "anonymous": false,
      "inputs": [
        {
          "indexed": true,
          "internalType": "bytes32",
          "name": "role",
          "type": "bytes32"
        },
        {
          "indexed": true,
          "internalType": "address",
          "name": "account",
          "type": "address"
        },
        {
          "indexed": true,
          "internalType": "address",
          "name": "sender",
          "type": "address"
        }
      ],
      "name": "RoleRevoked",
      "type": "event"
    },
    {
      "anonymous": false,
      "inputs": [
        {
          "indexed": true,
          "internalType": "address",
          "name": "from",
          "type": "address"
        },
        {
          "indexed": true,
          "internalType": "address",
          "name": "to",
          "type": "address"
        },
        {
          "indexed": true,
          "internalType": "uint256",
          "name": "tokenId",
          "type": "uint256"
        }
      ],
      "name": "Transfer",
      "type": "event"
    },
    {
      "anonymous": false,
      "inputs": [
        {
          "indexed": false,
          "internalType": "address",
          "name": "account",
          "type": "address"
        }
      ],
      "name": "Unpaused",
      "type": "event"
    },
    {
      "anonymous": false,
      "inputs": [
        {
          "indexed": true,
          "internalType": "address",
          "name": "implementation",
          "type": "address"
        }
      ],
      "name": "Upgraded",
      "type": "event"
    },
    {
      "inputs": [],
      "name": "DEFAULT_ADMIN_ROLE",
      "outputs": [
        {
          "internalType": "bytes32",
          "name": "",
          "type": "bytes32"
        }
      ],
      "stateMutability": "view",
      "type": "function"
    },
    {
      "inputs": [],
      "name": "MINTER_ROLE",
      "outputs": [
        {
          "internalType": "bytes32",
          "name": "",
          "type": "bytes32"
        }
      ],
      "stateMutability": "view",
      "type": "function"
    },
    {
      "inputs": [],
      "name": "PAUSER_ROLE",
      "outputs": [
        {
          "internalType": "bytes32",
          "name": "",
          "type": "bytes32"
        }
      ],
      "stateMutability": "view",
      "type": "function"
    },
    {
      "inputs": [],
      "name": "UPGRADER_ROLE",
      "outputs": [
        {
          "internalType": "bytes32",
          "name": "",
          "type": "bytes32"
        }
      ],
      "stateMutability": "view",
      "type": "function"
    },
    {
      "inputs": [
        {
          "internalType": "address",
          "name": "to",
          "type": "address"
        },
        {
          "internalType": "uint256",
          "name": "tokenId",
          "type": "uint256"
        }
      ],
      "name": "approve",
      "outputs": [],
      "stateMutability": "nonpayable",
      "type": "function"
    },
    {
      "inputs": [
        {
          "internalType": "address",
          "name": "owner",
          "type": "address"
        }
      ],
      "name": "balanceOf",
      "outputs": [
        {
          "internalType": "uint256",
          "name": "",
          "type": "uint256"
        }
      ],
      "stateMutability": "view",
      "type": "function"
    },
    {
      "inputs": [
        {
          "internalType": "uint256",
          "name": "tokenId",
          "type": "uint256"
        }
      ],
      "name": "getApproved",
      "outputs": [
        {
          "internalType": "address",
          "name": "",
          "type": "address"
        }
      ],
      "stateMutability": "view",
      "type": "function"
    },
    {
      "inputs": [
        {
          "internalType": "bytes32",
          "name": "role",
          "type": "bytes32"
        }
      ],
      "name": "getRoleAdmin",
      "outputs": [
        {
          "internalType": "bytes32",
          "name": "",
          "type": "bytes32"
        }
      ],
      "stateMutability": "view",
      "type": "function"
    },
    {
      "inputs": [
        {
          "internalType": "bytes32",
          "name": "role",
          "type": "bytes32"
        },
        {
          "internalType": "uint256",
          "name": "index",
          "type": "uint256"
        }
      ],
      "name": "getRoleMember",
      "outputs": [
        {
          "internalType": "address",
          "name": "",
          "type": "address"
        }
      ],
      "stateMutability": "view",
      "type": "function"
    },
    {
      "inputs": [
        {
          "internalType": "bytes32",
          "name": "role",
          "type": "bytes32"
        }
      ],
      "name": "getRoleMemberCount",
      "outputs": [
        {
          "internalType": "uint256",
          "name": "",
          "type": "uint256"
        }
      ],
      "stateMutability": "view",
      "type": "function"
    },
    {
      "inputs": [
        {
          "internalType": "bytes32",
          "name": "role",
          "type": "bytes32"
        },
        {
          "internalType": "address",
          "name": "account",
          "type": "address"
        }
      ],
      "name": "grantRole",
      "outputs": [],
      "stateMutability": "nonpayable",
      "type": "function"
    },
    {
      "inputs": [
        {
          "internalType": "bytes32",
          "name": "role",
          "type": "bytes32"
        },
        {
          "internalType": "address",
          "name": "account",
          "type": "address"
        }
      ],
      "name": "hasRole",
      "outputs": [
        {
          "internalType": "bool",
          "name": "",
          "type": "bool"
        }
      ],
      "stateMutability": "view",
      "type": "function"
    },
    {
      "inputs": [
        {
          "internalType": "string",
          "name": "name_",
          "type": "string"
        },
        {
          "internalType": "string",
          "name": "symbol_",
          "type": "string"
        }
      ],
      "name": "initialize",
      "outputs": [],
      "stateMutability": "nonpayable",
      "type": "function"
    },
    {
      "inputs": [
        {
          "internalType": "address",
          "name": "owner",
          "type": "address"
        },
        {
          "internalType": "address",
          "name": "operator",
          "type": "address"
        }
      ],
      "name": "isApprovedForAll",
      "outputs": [
        {
          "internalType": "bool",
          "name": "",
          "type": "bool"
        }
      ],
      "stateMutability": "view",
      "type": "function"
    },
    {
      "inputs": [],
      "name": "name",
      "outputs": [
        {
          "internalType": "string",
          "name": "",
          "type": "string"
        }
      ],
      "stateMutability": "view",
      "type": "function"
    },
    {
      "inputs": [
        {
          "internalType": "uint256",
          "name": "tokenId",
          "type": "uint256"
        }
      ],
      "name": "ownerOf",
      "outputs": [
        {
          "internalType": "address",
          "name": "",
          "type": "address"
        }
      ],
      "stateMutability": "view",
      "type": "function"
    },
    {
      "inputs": [],
      "name": "pause",
      "outputs": [],
      "stateMutability": "nonpayable",
      "type": "function"
    },
    {
      "inputs": [],
      "name": "paused",
      "outputs": [
        {
          "internalType": "bool",
          "name": "",
          "type": "bool"
        }
      ],
      "stateMutability": "view",
      "type": "function"
    },
    {
      "inputs": [],
      "name": "proxiableUUID",
      "outputs": [
        {
          "internalType": "bytes32",
          "name": "",
          "type": "bytes32"
        }
      ],
      "stateMutability": "view",
      "type": "function"
    },
    {
      "inputs": [
        {
          "internalType": "bytes32",
          "name": "role",
          "type": "bytes32"
        },
        {
          "internalType": "address",
          "name": "account",
          "type": "address"
        }
      ],
      "name": "renounceRole",
      "outputs": [],
      "stateMutability": "nonpayable",
      "type": "function"
    },
    {
      "inputs": [
        {
          "internalType": "bytes32",
          "name": "role",
          "type": "bytes32"
        },
        {
          "internalType": "address",
          "name": "account",
          "type": "address"
        }
      ],
      "name": "revokeRole",
      "outputs": [],
      "stateMutability": "nonpayable",
      "type": "function"
    },
    {
      "inputs": [
        {
          "internalType": "address",
          "name": "to",
          "type": "address"
        },
        {
          "internalType": "uint256",
          "name": "tokenId",
          "type": "uint256"
        }
      ],
      "name": "safeMint",
      "outputs": [],
      "stateMutability": "nonpayable",
      "type": "function"
    },
    {
      "inputs": [
        {
          "internalType": "address",
          "name": "from",
          "type": "address"
        },
        {
          "internalType": "address",
          "name": "to",
          "type": "address"
        },
        {
          "internalType": "uint256",
          "name": "tokenId",
          "type": "uint256"
        }
      ],
      "name": "safeTransferFrom",
      "outputs": [],
      "stateMutability": "nonpayable",
      "type": "function"
    },
    {
      "inputs": [
        {
          "internalType": "address",
          "name": "from",
          "type": "address"
        },
        {
          "internalType": "address",
          "name": "to",
          "type": "address"
        },
        {
          "internalType": "uint256",
          "name": "tokenId",
          "type": "uint256"
        },
        {
          "internalType": "bytes",
          "name": "data",
          "type": "bytes"
        }
      ],
      "name": "safeTransferFrom",
      "outputs": [],
      "stateMutability": "nonpayable",
      "type": "function"
    },
    {
      "inputs": [
        {
          "internalType": "address",
          "name": "operator",
          "type": "address"
        },
        {
          "internalType": "bool",
          "name": "approved",
          "type": "bool"
        }
      ],
      "name": "setApprovalForAll",
      "outputs": [],
      "stateMutability": "nonpayable",
      "type": "function"
    },
    {
      "inputs": [
        {
          "internalType": "bytes4",
          "name": "interfaceId",
          "type": "bytes4"
        }
      ],
      "name": "supportsInterface",
      "outputs": [
        {
          "internalType": "bool",
          "name": "",
          "type": "bool"
        }
      ],
      "stateMutability": "view",
      "type": "function"
    },
    {
      "inputs": [],
      "name": "symbol",
      "outputs": [
        {
          "internalType": "string",
          "name": "",
          "type": "string"
        }
      ],
      "stateMutability": "view",
      "type": "function"
    },
    {
      "inputs": [
        {
          "internalType": "uint256",
          "name": "index",
          "type": "uint256"
        }
      ],
      "name": "tokenByIndex",
      "outputs": [
        {
          "internalType": "uint256",
          "name": "",
          "type": "uint256"
        }
      ],
      "stateMutability": "view",
      "type": "function"
    },
    {
      "inputs": [
        {
          "internalType": "address",
          "name": "owner",
          "type": "address"
        },
        {
          "internalType": "uint256",
          "name": "index",
          "type": "uint256"
        }
      ],
      "name": "tokenOfOwnerByIndex",
      "outputs": [
        {
          "internalType": "uint256",
          "name": "",
          "type": "uint256"
        }
      ],
      "stateMutability": "view",
      "type": "function"
    },
    {
      "inputs": [
        {
          "internalType": "uint256",
          "name": "tokenId",
          "type": "uint256"
        }
      ],
      "name": "tokenURI",
      "outputs": [
        {
          "internalType": "string",
          "name": "",
          "type": "string"
        }
      ],
      "stateMutability": "view",
      "type": "function"
    },
    {
      "inputs": [],
      "name": "totalSupply",
      "outputs": [
        {
          "internalType": "uint256",
          "name": "",
          "type": "uint256"
        }
      ],
      "stateMutability": "view",
      "type": "function"
    },
    {
      "inputs": [
        {
          "internalType": "address",
          "name": "from",
          "type": "address"
        },
        {
          "internalType": "address",
          "name": "to",
          "type": "address"
        },
        {
          "internalType": "uint256",
          "name": "tokenId",
          "type": "uint256"
        }
      ],
      "name": "transferFrom",
      "outputs": [],
      "stateMutability": "nonpayable",
      "type": "function"
    },
    {
      "inputs": [],
      "name": "unpause",
      "outputs": [],
      "stateMutability": "nonpayable",
      "type": "function"
    },
    {
      "inputs": [
        {
          "internalType": "address",
          "name": "newImplementation",
          "type": "address"
        }
      ],
      "name": "upgradeTo",
      "outputs": [],
      "stateMutability": "nonpayable",
      "type": "function"
    },
    {
      "inputs": [
        {
          "internalType": "address",
          "name": "newImplementation",
          "type": "address"
        },
        {
          "internalType": "bytes",
          "name": "data",
          "type": "bytes"
        }
      ],
      "name": "upgradeToAndCall",
      "outputs": [],
      "stateMutability": "payable",
      "type": "function"
    }
  ],
  "bytecode": "0x60a06040523073ffffffffffffffffffffffffffffffffffffffff1660809073ffffffffffffffffffffffffffffffffffffffff168152503480156200004457600080fd5b50620000556200005b60201b60201c565b62000205565b600060019054906101000a900460ff1615620000ae576040517f08c379a0000000000000000000000000000000000000000000000000000000008152600401620000a590620001a8565b60405180910390fd5b60ff801660008054906101000a900460ff1660ff16146200011f5760ff6000806101000a81548160ff021916908360ff1602179055507f7f26b83ff96e1f2b6a682f133852f6798a09c465da95921460cefb384740249860ff604051620001169190620001e8565b60405180910390a15b565b600082825260208201905092915050565b7f496e697469616c697a61626c653a20636f6e747261637420697320696e69746960008201527f616c697a696e6700000000000000000000000000000000000000000000000000602082015250565b60006200019060278362000121565b91506200019d8262000132565b604082019050919050565b60006020820190508181036000830152620001c38162000181565b9050919050565b600060ff82169050919050565b620001e281620001ca565b82525050565b6000602082019050620001ff6000830184620001d7565b92915050565b608051615afc6200023d60003960008181610c4e01528181610cdc01528181611018015281816110a601526111c70152615afc6000f3fe6080604052600436106102045760003560e01c80635c975abb11610118578063a22cb465116100a0578063d53913931161006f578063d53913931461078e578063d547741f146107b9578063e63ab1e9146107e2578063e985e9c51461080d578063f72c0d8b1461084a57610204565b8063a22cb465146106c2578063b88d4fde146106eb578063c87b56dd14610714578063ca15c8731461075157610204565b80639010d07c116100e75780639010d07c146105c957806391d148541461060657806395d89b4114610643578063a14481941461066e578063a217fddf1461069757610204565b80635c975abb1461050d5780636352211e1461053857806370a08231146105755780638456cb59146105b257610204565b80632f745c591161019b57806342842e0e1161016a57806342842e0e146104375780634cd88b76146104605780634f1ef286146104895780634f6ccce7146104a557806352d1902d146104e257610204565b80632f745c591461039157806336568abe146103ce5780633659cfe6146103f75780633f4ba83a1461042057610204565b806318160ddd116101d757806318160ddd146102d757806323b872dd14610302578063248a9ca31461032b5780632f2ff15d1461036857610204565b806301ffc9a71461020957806306fdde0314610246578063081812fc14610271578063095ea7b3146102ae575b600080fd5b34801561021557600080fd5b50610230600480360381019061022b9190613ce6565b610875565b60405161023d9190613d2e565b60405180910390f35b34801561025257600080fd5b5061025b610887565b6040516102689190613dd9565b60405180910390f35b34801561027d57600080fd5b5061029860048036038101906102939190613e31565b610919565b6040516102a59190613e9f565b60405180910390f35b3480156102ba57600080fd5b506102d560048036038101906102d09190613ee6565b61095f565b005b3480156102e357600080fd5b506102ec610a76565b6040516102f99190613f35565b60405180910390f35b34801561030e57600080fd5b5061032960048036038101906103249190613f50565b610a83565b005b34801561033757600080fd5b50610352600480360381019061034d9190613fd9565b610ae3565b60405161035f9190614015565b60405180910390f35b34801561037457600080fd5b5061038f600480360381019061038a9190614030565b610b03565b005b34801561039d57600080fd5b506103b860048036038101906103b39190613ee6565b610b24565b6040516103c59190613f35565b60405180910390f35b3480156103da57600080fd5b506103f560048036038101906103f09190614030565b610bc9565b005b34801561040357600080fd5b5061041e60048036038101906104199190614070565b610c4c565b005b34801561042c57600080fd5b50610435610dd4565b005b34801561044357600080fd5b5061045e60048036038101906104599190613f50565b610e09565b005b34801561046c57600080fd5b50610487600480360381019061048291906141d2565b610e29565b005b6104a3600480360381019061049e91906142eb565b611016565b005b3480156104b157600080fd5b506104cc60048036038101906104c79190613e31565b611152565b6040516104d99190613f35565b60405180910390f35b3480156104ee57600080fd5b506104f76111c3565b6040516105049190614015565b60405180910390f35b34801561051957600080fd5b5061052261127c565b60405161052f9190613d2e565b60405180910390f35b34801561054457600080fd5b5061055f600480360381019061055a9190613e31565b611293565b60405161056c9190613e9f565b60405180910390f35b34801561058157600080fd5b5061059c60048036038101906105979190614070565b611319565b6040516105a99190613f35565b60405180910390f35b3480156105be57600080fd5b506105c76113d0565b005b3480156105d557600080fd5b506105f060048036038101906105eb9190614347565b611405565b6040516105fd9190613e9f565b60405180910390f35b34801561061257600080fd5b5061062d60048036038101906106289190614030565b611435565b60405161063a9190613d2e565b60405180910390f35b34801561064f57600080fd5b506106586114a0565b6040516106659190613dd9565b60405180910390f35b34801561067a57600080fd5b5061069560048036038101906106909190613ee6565b611532565b005b3480156106a357600080fd5b506106ac611573565b6040516106b99190614015565b60405180910390f35b3480156106ce57600080fd5b506106e960048036038101906106e491906143b3565b61157a565b005b3480156106f757600080fd5b50610712600480360381019061070d91906143f3565b611590565b005b34801561072057600080fd5b5061073b60048036038101906107369190613e31565b6115f2565b6040516107489190613dd9565b60405180910390f35b34801561075d57600080fd5b5061077860048036038101906107739190613fd9565b61165a565b6040516107859190613f35565b60405180910390f35b34801561079a57600080fd5b506107a361167f565b6040516107b09190614015565b60405180910390f35b3480156107c557600080fd5b506107e060048036038101906107db9190614030565b6116a3565b005b3480156107ee57600080fd5b506107f76116c4565b6040516108049190614015565b60405180910390f35b34801561081957600080fd5b50610834600480360381019061082f9190614476565b6116e8565b6040516108419190613d2e565b60405180910390f35b34801561085657600080fd5b5061085f61177c565b60405161086c9190614015565b60405180910390f35b6000610880826117a0565b9050919050565b606060658054610896906144e5565b80601f01602080910402602001604051908101604052809291908181526020018280546108c2906144e5565b801561090f5780601f106108e45761010080835404028352916020019161090f565b820191906000526020600020905b8154815290600101906020018083116108f257829003601f168201915b5050505050905090565b60006109248261181a565b6069600083815260200190815260200160002060009054906101000a900473ffffffffffffffffffffffffffffffffffffffff169050919050565b600061096a82611293565b90508073ffffffffffffffffffffffffffffffffffffffff168373ffffffffffffffffffffffffffffffffffffffff16036109da576040517f08c379a00000000000000000000000000000000000000000000000000000000081526004016109d190614588565b60405180910390fd5b8073ffffffffffffffffffffffffffffffffffffffff166109f9611865565b73ffffffffffffffffffffffffffffffffffffffff161480610a285750610a2781610a22611865565b6116e8565b5b610a67576040517f08c379a0000000000000000000000000000000000000000000000000000000008152600401610a5e9061461a565b60405180910390fd5b610a71838361186d565b505050565b6000609980549050905090565b610a94610a8e611865565b82611926565b610ad3576040517f08c379a0000000000000000000000000000000000000000000000000000000008152600401610aca906146ac565b60405180910390fd5b610ade8383836119bb565b505050565b600060fb6000838152602001908152602001600020600101549050919050565b610b0c82610ae3565b610b1581611cb4565b610b1f8383611cc8565b505050565b6000610b2f83611319565b8210610b70576040517f08c379a0000000000000000000000000000000000000000000000000000000008152600401610b679061473e565b60405180910390fd5b609760008473ffffffffffffffffffffffffffffffffffffffff1673ffffffffffffffffffffffffffffffffffffffff168152602001908152602001600020600083815260200190815260200160002054905092915050565b610bd1611865565b73ffffffffffffffffffffffffffffffffffffffff168173ffffffffffffffffffffffffffffffffffffffff1614610c3e576040517f08c379a0000000000000000000000000000000000000000000000000000000008152600401610c35906147d0565b60405180910390fd5b610c488282611cfd565b5050565b7f000000000000000000000000000000000000000000000000000000000000000073ffffffffffffffffffffffffffffffffffffffff163073ffffffffffffffffffffffffffffffffffffffff1603610cda576040517f08c379a0000000000000000000000000000000000000000000000000000000008152600401610cd190614862565b60405180910390fd5b7f000000000000000000000000000000000000000000000000000000000000000073ffffffffffffffffffffffffffffffffffffffff16610d19611d32565b73ffffffffffffffffffffffffffffffffffffffff1614610d6f576040517f08c379a0000000000000000000000000000000000000000000000000000000008152600401610d66906148f4565b60405180910390fd5b610d7881611d89565b610dd181600067ffffffffffffffff811115610d9757610d966140a7565b5b6040519080825280601f01601f191660200182016040528015610dc95781602001600182028036833780820191505090505b506000611db7565b50565b7f65d7a28e3265b37a6474929f336521b332c1681b933f6cb9f3376673440d862a610dfe81611cb4565b610e06611f25565b50565b610e2483838360405180602001604052806000815250611590565b505050565b60008060019054906101000a900460ff16159050808015610e5a5750600160008054906101000a900460ff1660ff16105b80610e875750610e6930611f88565b158015610e865750600160008054906101000a900460ff1660ff16145b5b610ec6576040517f08c379a0000000000000000000000000000000000000000000000000000000008152600401610ebd90614986565b60405180910390fd5b60016000806101000a81548160ff021916908360ff1602179055508015610f03576001600060016101000a81548160ff0219169083151502179055505b610f0d8383611fab565b610f15612008565b610f1d612059565b610f256120b2565b610f2d612103565b610f3a6000801b33611cc8565b610f647f65d7a28e3265b37a6474929f336521b332c1681b933f6cb9f3376673440d862a33611cc8565b610f8e7f9f2df0fed2c77648de5860a4cc508cd0818c85b8b8a1ab4ceeef8d981c8956a633611cc8565b610fb87f189ab7a9244df0848122154315af71fe140f3db0fe014031783b0946b8c9d2e333611cc8565b80156110115760008060016101000a81548160ff0219169083151502179055507f7f26b83ff96e1f2b6a682f133852f6798a09c465da95921460cefb3847402498600160405161100891906149f8565b60405180910390a15b505050565b7f000000000000000000000000000000000000000000000000000000000000000073ffffffffffffffffffffffffffffffffffffffff163073ffffffffffffffffffffffffffffffffffffffff16036110a4576040517f08c379a000000000000000000000000000000000000000000000000000000000815260040161109b90614862565b60405180910390fd5b7f000000000000000000000000000000000000000000000000000000000000000073ffffffffffffffffffffffffffffffffffffffff166110e3611d32565b73ffffffffffffffffffffffffffffffffffffffff1614611139576040517f08c379a0000000000000000000000000000000000000000000000000000000008152600401611130906148f4565b60405180910390fd5b61114282611d89565b61114e82826001611db7565b5050565b600061115c610a76565b821061119d576040517f08c379a000000000000000000000000000000000000000000000000000000000815260040161119490614a85565b60405180910390fd5b609982815481106111b1576111b0614aa5565b5b90600052602060002001549050919050565b60007f000000000000000000000000000000000000000000000000000000000000000073ffffffffffffffffffffffffffffffffffffffff163073ffffffffffffffffffffffffffffffffffffffff1614611253576040517f08c379a000000000000000000000000000000000000000000000000000000000815260040161124a90614b46565b60405180910390fd5b7f360894a13ba1a3210667c828492db98dca3e2076cc3735a920a3ca505d382bbc60001b905090565b600060c960009054906101000a900460ff16905090565b60008061129f83612154565b9050600073ffffffffffffffffffffffffffffffffffffffff168173ffffffffffffffffffffffffffffffffffffffff1603611310576040517f08c379a000000000000000000000000000000000000000000000000000000000815260040161130790614bb2565b60405180910390fd5b80915050919050565b60008073ffffffffffffffffffffffffffffffffffffffff168273ffffffffffffffffffffffffffffffffffffffff1603611389576040517f08c379a000000000000000000000000000000000000000000000000000000000815260040161138090614c44565b60405180910390fd5b606860008373ffffffffffffffffffffffffffffffffffffffff1673ffffffffffffffffffffffffffffffffffffffff168152602001908152602001600020549050919050565b7f65d7a28e3265b37a6474929f336521b332c1681b933f6cb9f3376673440d862a6113fa81611cb4565b611402612191565b50565b600061142d8261012d60008681526020019081526020016000206121f490919063ffffffff16565b905092915050565b600060fb600084815260200190815260200160002060000160008373ffffffffffffffffffffffffffffffffffffffff1673ffffffffffffffffffffffffffffffffffffffff16815260200190815260200160002060009054906101000a900460ff16905092915050565b6060606680546114af906144e5565b80601f01602080910402602001604051908101604052809291908181526020018280546114db906144e5565b80156115285780601f106114fd57610100808354040283529160200191611528565b820191906000526020600020905b81548152906001019060200180831161150b57829003601f168201915b5050505050905090565b7f9f2df0fed2c77648de5860a4cc508cd0818c85b8b8a1ab4ceeef8d981c8956a661155c81611cb4565b61156461220e565b61156e8383612258565b505050565b6000801b81565b61158c611585611865565b8383612276565b5050565b6115a161159b611865565b83611926565b6115e0576040517f08c379a00000000000000000000000000000000000000000000000000000000081526004016115d7906146ac565b60405180910390fd5b6115ec848484846123e2565b50505050565b60606115fd8261181a565b600061160761243e565b905060008151116116275760405180602001604052806000815250611652565b806116318461245e565b604051602001611642929190614ca0565b6040516020818303038152906040525b915050919050565b600061167861012d600084815260200190815260200160002061252c565b9050919050565b7f9f2df0fed2c77648de5860a4cc508cd0818c85b8b8a1ab4ceeef8d981c8956a681565b6116ac82610ae3565b6116b581611cb4565b6116bf8383611cfd565b505050565b7f65d7a28e3265b37a6474929f336521b332c1681b933f6cb9f3376673440d862a81565b6000606a60008473ffffffffffffffffffffffffffffffffffffffff1673ffffffffffffffffffffffffffffffffffffffff16815260200190815260200160002060008373ffffffffffffffffffffffffffffffffffffffff1673ffffffffffffffffffffffffffffffffffffffff16815260200190815260200160002060009054906101000a900460ff16905092915050565b7f189ab7a9244df0848122154315af71fe140f3db0fe014031783b0946b8c9d2e381565b60007f5a05180f000000000000000000000000000000000000000000000000000000007bffffffffffffffffffffffffffffffffffffffffffffffffffffffff1916827bffffffffffffffffffffffffffffffffffffffffffffffffffffffff19161480611813575061181282612541565b5b9050919050565b611823816125bb565b611862576040517f08c379a000000000000000000000000000000000000000000000000000000000815260040161185990614bb2565b60405180910390fd5b50565b600033905090565b816069600083815260200190815260200160002060006101000a81548173ffffffffffffffffffffffffffffffffffffffff021916908373ffffffffffffffffffffffffffffffffffffffff160217905550808273ffffffffffffffffffffffffffffffffffffffff166118e083611293565b73ffffffffffffffffffffffffffffffffffffffff167f8c5be1e5ebec7d5bd14f71427d1e84f3dd0314c0f7b2291e5b200ac8c7c3b92560405160405180910390a45050565b60008061193283611293565b90508073ffffffffffffffffffffffffffffffffffffffff168473ffffffffffffffffffffffffffffffffffffffff161480611974575061197381856116e8565b5b806119b257508373ffffffffffffffffffffffffffffffffffffffff1661199a84610919565b73ffffffffffffffffffffffffffffffffffffffff16145b91505092915050565b8273ffffffffffffffffffffffffffffffffffffffff166119db82611293565b73ffffffffffffffffffffffffffffffffffffffff1614611a31576040517f08c379a0000000000000000000000000000000000000000000000000000000008152600401611a2890614d36565b60405180910390fd5b600073ffffffffffffffffffffffffffffffffffffffff168273ffffffffffffffffffffffffffffffffffffffff1603611aa0576040517f08c379a0000000000000000000000000000000000000000000000000000000008152600401611a9790614dc8565b60405180910390fd5b611aad83838360016125fc565b8273ffffffffffffffffffffffffffffffffffffffff16611acd82611293565b73ffffffffffffffffffffffffffffffffffffffff1614611b23576040517f08c379a0000000000000000000000000000000000000000000000000000000008152600401611b1a90614d36565b60405180910390fd5b6069600082815260200190815260200160002060006101000a81549073ffffffffffffffffffffffffffffffffffffffff02191690556001606860008573ffffffffffffffffffffffffffffffffffffffff1673ffffffffffffffffffffffffffffffffffffffff168152602001908152602001600020600082825403925050819055506001606860008473ffffffffffffffffffffffffffffffffffffffff1673ffffffffffffffffffffffffffffffffffffffff16815260200190815260200160002060008282540192505081905550816067600083815260200190815260200160002060006101000a81548173ffffffffffffffffffffffffffffffffffffffff021916908373ffffffffffffffffffffffffffffffffffffffff160217905550808273ffffffffffffffffffffffffffffffffffffffff168473ffffffffffffffffffffffffffffffffffffffff167fddf252ad1be2c89b69c2b068fc378daa952ba7f163c4a11628f55a4df523b3ef60405160405180910390a4611caf8383836001612616565b505050565b611cc581611cc0611865565b61261c565b50565b611cd282826126a1565b611cf88161012d600085815260200190815260200160002061278290919063ffffffff16565b505050565b611d0782826127b2565b611d2d8161012d600085815260200190815260200160002061289490919063ffffffff16565b505050565b6000611d607f360894a13ba1a3210667c828492db98dca3e2076cc3735a920a3ca505d382bbc60001b6128c4565b60000160009054906101000a900473ffffffffffffffffffffffffffffffffffffffff16905090565b7f189ab7a9244df0848122154315af71fe140f3db0fe014031783b0946b8c9d2e3611db381611cb4565b5050565b611de37f4910fdfa16fed3260ed0e7147f7cc6da11a60208b5b9406d12a635614ffd914360001b6128ce565b60000160009054906101000a900460ff1615611e0757611e02836128d8565b611f20565b8273ffffffffffffffffffffffffffffffffffffffff166352d1902d6040518163ffffffff1660e01b8152600401602060405180830381865afa925050508015611e6f57506040513d601f19601f82011682018060405250810190611e6c9190614dfd565b60015b611eae576040517f08c379a0000000000000000000000000000000000000000000000000000000008152600401611ea590614e9c565b60405180910390fd5b7f360894a13ba1a3210667c828492db98dca3e2076cc3735a920a3ca505d382bbc60001b8114611f13576040517f08c379a0000000000000000000000000000000000000000000000000000000008152600401611f0a90614f2e565b60405180910390fd5b50611f1f838383612991565b5b505050565b611f2d6129bd565b600060c960006101000a81548160ff0219169083151502179055507f5db9ee0a495bf2e6ff9c91a7834c1ba4fdd244a5e8aa4e537bd38aeae4b073aa611f71611865565b604051611f7e9190613e9f565b60405180910390a1565b6000808273ffffffffffffffffffffffffffffffffffffffff163b119050919050565b600060019054906101000a900460ff16611ffa576040517f08c379a0000000000000000000000000000000000000000000000000000000008152600401611ff190614fc0565b60405180910390fd5b6120048282612a06565b5050565b600060019054906101000a900460ff16612057576040517f08c379a000000000000000000000000000000000000000000000000000000000815260040161204e90614fc0565b60405180910390fd5b565b600060019054906101000a900460ff166120a8576040517f08c379a000000000000000000000000000000000000000000000000000000000815260040161209f90614fc0565b60405180910390fd5b6120b0612a79565b565b600060019054906101000a900460ff16612101576040517f08c379a00000000000000000000000000000000000000000000000000000000081526004016120f890614fc0565b60405180910390fd5b565b600060019054906101000a900460ff16612152576040517f08c379a000000000000000000000000000000000000000000000000000000000815260040161214990614fc0565b60405180910390fd5b565b60006067600083815260200190815260200160002060009054906101000a900473ffffffffffffffffffffffffffffffffffffffff169050919050565b61219961220e565b600160c960006101000a81548160ff0219169083151502179055507f62e78cea01bee320cd4e420270b5ea74000d11b0c9f74754ebdbfc544b05a2586121dd611865565b6040516121ea9190613e9f565b60405180910390a1565b60006122038360000183612ae5565b60001c905092915050565b61221661127c565b15612256576040517f08c379a000000000000000000000000000000000000000000000000000000000815260040161224d9061502c565b60405180910390fd5b565b612272828260405180602001604052806000815250612b10565b5050565b8173ffffffffffffffffffffffffffffffffffffffff168373ffffffffffffffffffffffffffffffffffffffff16036122e4576040517f08c379a00000000000000000000000000000000000000000000000000000000081526004016122db90615098565b60405180910390fd5b80606a60008573ffffffffffffffffffffffffffffffffffffffff1673ffffffffffffffffffffffffffffffffffffffff16815260200190815260200160002060008473ffffffffffffffffffffffffffffffffffffffff1673ffffffffffffffffffffffffffffffffffffffff16815260200190815260200160002060006101000a81548160ff0219169083151502179055508173ffffffffffffffffffffffffffffffffffffffff168373ffffffffffffffffffffffffffffffffffffffff167f17307eab39ab6107e8899845ad3d59bd9653f200f220920489ca2b5937696c31836040516123d59190613d2e565b60405180910390a3505050565b6123ed8484846119bb565b6123f984848484612b6b565b612438576040517f08c379a000000000000000000000000000000000000000000000000000000000815260040161242f9061512a565b60405180910390fd5b50505050565b6060604051806060016040528060398152602001615a8e60399139905090565b60606000600161246d84612cf2565b01905060008167ffffffffffffffff81111561248c5761248b6140a7565b5b6040519080825280601f01601f1916602001820160405280156124be5781602001600182028036833780820191505090505b509050600082602001820190505b600115612521578080600190039150507f3031323334353637383961626364656600000000000000000000000000000000600a86061a8153600a85816125155761251461514a565b5b049450600085036124cc575b819350505050919050565b600061253a82600001612e45565b9050919050565b60007f7965db0b000000000000000000000000000000000000000000000000000000007bffffffffffffffffffffffffffffffffffffffffffffffffffffffff1916827bffffffffffffffffffffffffffffffffffffffffffffffffffffffff191614806125b457506125b382612e56565b5b9050919050565b60008073ffffffffffffffffffffffffffffffffffffffff166125dd83612154565b73ffffffffffffffffffffffffffffffffffffffff1614159050919050565b61260461220e565b61261084848484612ed0565b50505050565b50505050565b6126268282611435565b61269d576126338161302e565b6126418360001c602061305b565b604051602001612652929190615211565b6040516020818303038152906040526040517f08c379a00000000000000000000000000000000000000000000000000000000081526004016126949190613dd9565b60405180910390fd5b5050565b6126ab8282611435565b61277e57600160fb600084815260200190815260200160002060000160008373ffffffffffffffffffffffffffffffffffffffff1673ffffffffffffffffffffffffffffffffffffffff16815260200190815260200160002060006101000a81548160ff021916908315150217905550612723611865565b73ffffffffffffffffffffffffffffffffffffffff168173ffffffffffffffffffffffffffffffffffffffff16837f2f8788117e7eff1d82e926ec794901d17c78024a50270940304540a733656f0d60405160405180910390a45b5050565b60006127aa836000018373ffffffffffffffffffffffffffffffffffffffff1660001b613297565b905092915050565b6127bc8282611435565b1561289057600060fb600084815260200190815260200160002060000160008373ffffffffffffffffffffffffffffffffffffffff1673ffffffffffffffffffffffffffffffffffffffff16815260200190815260200160002060006101000a81548160ff021916908315150217905550612835611865565b73ffffffffffffffffffffffffffffffffffffffff168173ffffffffffffffffffffffffffffffffffffffff16837ff6391f5c32d9c69d2a47ea670b442974b53935d1edc7fd64eb21e047a839171b60405160405180910390a45b5050565b60006128bc836000018373ffffffffffffffffffffffffffffffffffffffff1660001b613307565b905092915050565b6000819050919050565b6000819050919050565b6128e181611f88565b612920576040517f08c379a0000000000000000000000000000000000000000000000000000000008152600401612917906152bd565b60405180910390fd5b8061294d7f360894a13ba1a3210667c828492db98dca3e2076cc3735a920a3ca505d382bbc60001b6128c4565b60000160006101000a81548173ffffffffffffffffffffffffffffffffffffffff021916908373ffffffffffffffffffffffffffffffffffffffff16021790555050565b61299a8361341b565b6000825111806129a75750805b156129b8576129b6838361346a565b505b505050565b6129c561127c565b612a04576040517f08c379a00000000000000000000000000000000000000000000000000000000081526004016129fb90615329565b60405180910390fd5b565b600060019054906101000a900460ff16612a55576040517f08c379a0000000000000000000000000000000000000000000000000000000008152600401612a4c90614fc0565b60405180910390fd5b8160659081612a6491906154eb565b508060669081612a7491906154eb565b505050565b600060019054906101000a900460ff16612ac8576040517f08c379a0000000000000000000000000000000000000000000000000000000008152600401612abf90614fc0565b60405180910390fd5b600060c960006101000a81548160ff021916908315150217905550565b6000826000018281548110612afd57612afc614aa5565b5b9060005260206000200154905092915050565b612b1a8383613497565b612b276000848484612b6b565b612b66576040517f08c379a0000000000000000000000000000000000000000000000000000000008152600401612b5d9061512a565b60405180910390fd5b505050565b6000612b8c8473ffffffffffffffffffffffffffffffffffffffff16611f88565b15612ce5578373ffffffffffffffffffffffffffffffffffffffff1663150b7a02612bb5611865565b8786866040518563ffffffff1660e01b8152600401612bd79493929190615612565b6020604051808303816000875af1925050508015612c1357506040513d601f19601f82011682018060405250810190612c109190615673565b60015b612c95573d8060008114612c43576040519150601f19603f3d011682016040523d82523d6000602084013e612c48565b606091505b506000815103612c8d576040517f08c379a0000000000000000000000000000000000000000000000000000000008152600401612c849061512a565b60405180910390fd5b805181602001fd5b63150b7a0260e01b7bffffffffffffffffffffffffffffffffffffffffffffffffffffffff1916817bffffffffffffffffffffffffffffffffffffffffffffffffffffffff191614915050612cea565b600190505b949350505050565b600080600090507a184f03e93ff9f4daa797ed6e38ed64bf6a1f0100000000000000008310612d50577a184f03e93ff9f4daa797ed6e38ed64bf6a1f0100000000000000008381612d4657612d4561514a565b5b0492506040810190505b6d04ee2d6d415b85acef81000000008310612d8d576d04ee2d6d415b85acef81000000008381612d8357612d8261514a565b5b0492506020810190505b662386f26fc100008310612dbc57662386f26fc100008381612db257612db161514a565b5b0492506010810190505b6305f5e1008310612de5576305f5e1008381612ddb57612dda61514a565b5b0492506008810190505b6127108310612e0a576127108381612e0057612dff61514a565b5b0492506004810190505b60648310612e2d5760648381612e2357612e2261514a565b5b0492506002810190505b600a8310612e3c576001810190505b80915050919050565b600081600001805490509050919050565b60007f780e9d63000000000000000000000000000000000000000000000000000000007bffffffffffffffffffffffffffffffffffffffffffffffffffffffff1916827bffffffffffffffffffffffffffffffffffffffffffffffffffffffff19161480612ec95750612ec8826136b4565b5b9050919050565b612edc84848484613796565b6001811115612f20576040517f08c379a0000000000000000000000000000000000000000000000000000000008152600401612f1790615712565b60405180910390fd5b6000829050600073ffffffffffffffffffffffffffffffffffffffff168573ffffffffffffffffffffffffffffffffffffffff1603612f6757612f628161379c565b612fa6565b8373ffffffffffffffffffffffffffffffffffffffff168573ffffffffffffffffffffffffffffffffffffffff1614612fa557612fa485826137e5565b5b5b600073ffffffffffffffffffffffffffffffffffffffff168473ffffffffffffffffffffffffffffffffffffffff1603612fe857612fe381613952565b613027565b8473ffffffffffffffffffffffffffffffffffffffff168473ffffffffffffffffffffffffffffffffffffffff1614613026576130258482613a23565b5b5b5050505050565b60606130548273ffffffffffffffffffffffffffffffffffffffff16601460ff1661305b565b9050919050565b60606000600283600261306e9190615761565b61307891906157a3565b67ffffffffffffffff811115613091576130906140a7565b5b6040519080825280601f01601f1916602001820160405280156130c35781602001600182028036833780820191505090505b5090507f3000000000000000000000000000000000000000000000000000000000000000816000815181106130fb576130fa614aa5565b5b60200101907effffffffffffffffffffffffffffffffffffffffffffffffffffffffffffff1916908160001a9053507f78000000000000000000000000000000000000000000000000000000000000008160018151811061315f5761315e614aa5565b5b60200101907effffffffffffffffffffffffffffffffffffffffffffffffffffffffffffff1916908160001a9053506000600184600261319f9190615761565b6131a991906157a3565b90505b6001811115613249577f3031323334353637383961626364656600000000000000000000000000000000600f8616601081106131eb576131ea614aa5565b5b1a60f81b82828151811061320257613201614aa5565b5b60200101907effffffffffffffffffffffffffffffffffffffffffffffffffffffffffffff1916908160001a905350600485901c945080613242906157d7565b90506131ac565b506000841461328d576040517f08c379a00000000000000000000000000000000000000000000000000000000081526004016132849061584c565b60405180910390fd5b8091505092915050565b60006132a38383613aa2565b6132fc578260000182908060018154018082558091505060019003906000526020600020016000909190919091505582600001805490508360010160008481526020019081526020016000208190555060019050613301565b600090505b92915050565b6000808360010160008481526020019081526020016000205490506000811461340f576000600182613339919061586c565b9050600060018660000180549050613351919061586c565b90508181146133c057600086600001828154811061337257613371614aa5565b5b906000526020600020015490508087600001848154811061339657613395614aa5565b5b90600052602060002001819055508387600101600083815260200190815260200160002081905550505b856000018054806133d4576133d36158a0565b5b600190038181906000526020600020016000905590558560010160008681526020019081526020016000206000905560019350505050613415565b60009150505b92915050565b613424816128d8565b8073ffffffffffffffffffffffffffffffffffffffff167fbc7cd75a20ee27fd9adebab32041f755214dbc6bffa90cc0225b39da2e5c2d3b60405160405180910390a250565b606061348f8383604051806060016040528060278152602001615a6760279139613ac5565b905092915050565b600073ffffffffffffffffffffffffffffffffffffffff168273ffffffffffffffffffffffffffffffffffffffff1603613506576040517f08c379a00000000000000000000000000000000000000000000000000000000081526004016134fd9061591b565b60405180910390fd5b61350f816125bb565b1561354f576040517f08c379a000000000000000000000000000000000000000000000000000000000815260040161354690615987565b60405180910390fd5b61355d6000838360016125fc565b613566816125bb565b156135a6576040517f08c379a000000000000000000000000000000000000000000000000000000000815260040161359d90615987565b60405180910390fd5b6001606860008473ffffffffffffffffffffffffffffffffffffffff1673ffffffffffffffffffffffffffffffffffffffff16815260200190815260200160002060008282540192505081905550816067600083815260200190815260200160002060006101000a81548173ffffffffffffffffffffffffffffffffffffffff021916908373ffffffffffffffffffffffffffffffffffffffff160217905550808273ffffffffffffffffffffffffffffffffffffffff16600073ffffffffffffffffffffffffffffffffffffffff167fddf252ad1be2c89b69c2b068fc378daa952ba7f163c4a11628f55a4df523b3ef60405160405180910390a46136b0600083836001612616565b5050565b60007f80ac58cd000000000000000000000000000000000000000000000000000000007bffffffffffffffffffffffffffffffffffffffffffffffffffffffff1916827bffffffffffffffffffffffffffffffffffffffffffffffffffffffff1916148061377f57507f5b5e139f000000000000000000000000000000000000000000000000000000007bffffffffffffffffffffffffffffffffffffffffffffffffffffffff1916827bffffffffffffffffffffffffffffffffffffffffffffffffffffffff1916145b8061378f575061378e82613b4b565b5b9050919050565b50505050565b609980549050609a600083815260200190815260200160002081905550609981908060018154018082558091505060019003906000526020600020016000909190919091505550565b600060016137f284611319565b6137fc919061586c565b90506000609860008481526020019081526020016000205490508181146138e1576000609760008673ffffffffffffffffffffffffffffffffffffffff1673ffffffffffffffffffffffffffffffffffffffff168152602001908152602001600020600084815260200190815260200160002054905080609760008773ffffffffffffffffffffffffffffffffffffffff1673ffffffffffffffffffffffffffffffffffffffff168152602001908152602001600020600084815260200190815260200160002081905550816098600083815260200190815260200160002081905550505b6098600084815260200190815260200160002060009055609760008573ffffffffffffffffffffffffffffffffffffffff1673ffffffffffffffffffffffffffffffffffffffff16815260200190815260200160002060008381526020019081526020016000206000905550505050565b60006001609980549050613966919061586c565b90506000609a600084815260200190815260200160002054905060006099838154811061399657613995614aa5565b5b9060005260206000200154905080609983815481106139b8576139b7614aa5565b5b906000526020600020018190555081609a600083815260200190815260200160002081905550609a6000858152602001908152602001600020600090556099805480613a0757613a066158a0565b5b6001900381819060005260206000200160009055905550505050565b6000613a2e83611319565b905081609760008573ffffffffffffffffffffffffffffffffffffffff1673ffffffffffffffffffffffffffffffffffffffff168152602001908152602001600020600083815260200190815260200160002081905550806098600084815260200190815260200160002081905550505050565b600080836001016000848152602001908152602001600020541415905092915050565b60606000808573ffffffffffffffffffffffffffffffffffffffff1685604051613aef91906159e3565b600060405180830381855af49150503d8060008114613b2a576040519150601f19603f3d011682016040523d82523d6000602084013e613b2f565b606091505b5091509150613b4086838387613bb5565b925050509392505050565b60007f01ffc9a7000000000000000000000000000000000000000000000000000000007bffffffffffffffffffffffffffffffffffffffffffffffffffffffff1916827bffffffffffffffffffffffffffffffffffffffffffffffffffffffff1916149050919050565b60608315613c17576000835103613c0f57613bcf85611f88565b613c0e576040517f08c379a0000000000000000000000000000000000000000000000000000000008152600401613c0590615a46565b60405180910390fd5b5b829050613c22565b613c218383613c2a565b5b949350505050565b600082511115613c3d5781518083602001fd5b806040517f08c379a0000000000000000000000000000000000000000000000000000000008152600401613c719190613dd9565b60405180910390fd5b6000604051905090565b600080fd5b600080fd5b60007fffffffff0000000000000000000000000000000000000000000000000000000082169050919050565b613cc381613c8e565b8114613cce57600080fd5b50565b600081359050613ce081613cba565b92915050565b600060208284031215613cfc57613cfb613c84565b5b6000613d0a84828501613cd1565b91505092915050565b60008115159050919050565b613d2881613d13565b82525050565b6000602082019050613d436000830184613d1f565b92915050565b600081519050919050565b600082825260208201905092915050565b60005b83811015613d83578082015181840152602081019050613d68565b60008484015250505050565b6000601f19601f8301169050919050565b6000613dab82613d49565b613db58185613d54565b9350613dc5818560208601613d65565b613dce81613d8f565b840191505092915050565b60006020820190508181036000830152613df38184613da0565b905092915050565b6000819050919050565b613e0e81613dfb565b8114613e1957600080fd5b50565b600081359050613e2b81613e05565b92915050565b600060208284031215613e4757613e46613c84565b5b6000613e5584828501613e1c565b91505092915050565b600073ffffffffffffffffffffffffffffffffffffffff82169050919050565b6000613e8982613e5e565b9050919050565b613e9981613e7e565b82525050565b6000602082019050613eb46000830184613e90565b92915050565b613ec381613e7e565b8114613ece57600080fd5b50565b600081359050613ee081613eba565b92915050565b60008060408385031215613efd57613efc613c84565b5b6000613f0b85828601613ed1565b9250506020613f1c85828601613e1c565b9150509250929050565b613f2f81613dfb565b82525050565b6000602082019050613f4a6000830184613f26565b92915050565b600080600060608486031215613f6957613f68613c84565b5b6000613f7786828701613ed1565b9350506020613f8886828701613ed1565b9250506040613f9986828701613e1c565b9150509250925092565b6000819050919050565b613fb681613fa3565b8114613fc157600080fd5b50565b600081359050613fd381613fad565b92915050565b600060208284031215613fef57613fee613c84565b5b6000613ffd84828501613fc4565b91505092915050565b61400f81613fa3565b82525050565b600060208201905061402a6000830184614006565b92915050565b6000806040838503121561404757614046613c84565b5b600061405585828601613fc4565b925050602061406685828601613ed1565b9150509250929050565b60006020828403121561408657614085613c84565b5b600061409484828501613ed1565b91505092915050565b600080fd5b600080fd5b7f4e487b7100000000000000000000000000000000000000000000000000000000600052604160045260246000fd5b6140df82613d8f565b810181811067ffffffffffffffff821117156140fe576140fd6140a7565b5b80604052505050565b6000614111613c7a565b905061411d82826140d6565b919050565b600067ffffffffffffffff82111561413d5761413c6140a7565b5b61414682613d8f565b9050602081019050919050565b82818337600083830152505050565b600061417561417084614122565b614107565b905082815260208101848484011115614191576141906140a2565b5b61419c848285614153565b509392505050565b600082601f8301126141b9576141b861409d565b5b81356141c9848260208601614162565b91505092915050565b600080604083850312156141e9576141e8613c84565b5b600083013567ffffffffffffffff81111561420757614206613c89565b5b614213858286016141a4565b925050602083013567ffffffffffffffff81111561423457614233613c89565b5b614240858286016141a4565b9150509250929050565b600067ffffffffffffffff821115614265576142646140a7565b5b61426e82613d8f565b9050602081019050919050565b600061428e6142898461424a565b614107565b9050828152602081018484840111156142aa576142a96140a2565b5b6142b5848285614153565b509392505050565b600082601f8301126142d2576142d161409d565b5b81356142e284826020860161427b565b91505092915050565b6000806040838503121561430257614301613c84565b5b600061431085828601613ed1565b925050602083013567ffffffffffffffff81111561433157614330613c89565b5b61433d858286016142bd565b9150509250929050565b6000806040838503121561435e5761435d613c84565b5b600061436c85828601613fc4565b925050602061437d85828601613e1c565b9150509250929050565b61439081613d13565b811461439b57600080fd5b50565b6000813590506143ad81614387565b92915050565b600080604083850312156143ca576143c9613c84565b5b60006143d885828601613ed1565b92505060206143e98582860161439e565b9150509250929050565b6000806000806080858703121561440d5761440c613c84565b5b600061441b87828801613ed1565b945050602061442c87828801613ed1565b935050604061443d87828801613e1c565b925050606085013567ffffffffffffffff81111561445e5761445d613c89565b5b61446a878288016142bd565b91505092959194509250565b6000806040838503121561448d5761448c613c84565b5b600061449b85828601613ed1565b92505060206144ac85828601613ed1565b9150509250929050565b7f4e487b7100000000000000000000000000000000000000000000000000000000600052602260045260246000fd5b600060028204905060018216806144fd57607f821691505b6020821081036145105761450f6144b6565b5b50919050565b7f4552433732313a20617070726f76616c20746f2063757272656e74206f776e6560008201527f7200000000000000000000000000000000000000000000000000000000000000602082015250565b6000614572602183613d54565b915061457d82614516565b604082019050919050565b600060208201905081810360008301526145a181614565565b9050919050565b7f4552433732313a20617070726f76652063616c6c6572206973206e6f7420746f60008201527f6b656e206f776e6572206f7220617070726f76656420666f7220616c6c000000602082015250565b6000614604603d83613d54565b915061460f826145a8565b604082019050919050565b60006020820190508181036000830152614633816145f7565b9050919050565b7f4552433732313a2063616c6c6572206973206e6f7420746f6b656e206f776e6560008201527f72206f7220617070726f76656400000000000000000000000000000000000000602082015250565b6000614696602d83613d54565b91506146a18261463a565b604082019050919050565b600060208201905081810360008301526146c581614689565b9050919050565b7f455243373231456e756d657261626c653a206f776e657220696e646578206f7560008201527f74206f6620626f756e6473000000000000000000000000000000000000000000602082015250565b6000614728602b83613d54565b9150614733826146cc565b604082019050919050565b600060208201905081810360008301526147578161471b565b9050919050565b7f416363657373436f6e74726f6c3a2063616e206f6e6c792072656e6f756e636560008201527f20726f6c657320666f722073656c660000000000000000000000000000000000602082015250565b60006147ba602f83613d54565b91506147c58261475e565b604082019050919050565b600060208201905081810360008301526147e9816147ad565b9050919050565b7f46756e6374696f6e206d7573742062652063616c6c6564207468726f7567682060008201527f64656c656761746563616c6c0000000000000000000000000000000000000000602082015250565b600061484c602c83613d54565b9150614857826147f0565b604082019050919050565b6000602082019050818103600083015261487b8161483f565b9050919050565b7f46756e6374696f6e206d7573742062652063616c6c6564207468726f7567682060008201527f6163746976652070726f78790000000000000000000000000000000000000000602082015250565b60006148de602c83613d54565b91506148e982614882565b604082019050919050565b6000602082019050818103600083015261490d816148d1565b9050919050565b7f496e697469616c697a61626c653a20636f6e747261637420697320616c72656160008201527f647920696e697469616c697a6564000000000000000000000000000000000000602082015250565b6000614970602e83613d54565b915061497b82614914565b604082019050919050565b6000602082019050818103600083015261499f81614963565b9050919050565b6000819050919050565b600060ff82169050919050565b6000819050919050565b60006149e26149dd6149d8846149a6565b6149bd565b6149b0565b9050919050565b6149f2816149c7565b82525050565b6000602082019050614a0d60008301846149e9565b92915050565b7f455243373231456e756d657261626c653a20676c6f62616c20696e646578206f60008201527f7574206f6620626f756e64730000000000000000000000000000000000000000602082015250565b6000614a6f602c83613d54565b9150614a7a82614a13565b604082019050919050565b60006020820190508181036000830152614a9e81614a62565b9050919050565b7f4e487b7100000000000000000000000000000000000000000000000000000000600052603260045260246000fd5b7f555550535570677261646561626c653a206d757374206e6f742062652063616c60008201527f6c6564207468726f7567682064656c656761746563616c6c0000000000000000602082015250565b6000614b30603883613d54565b9150614b3b82614ad4565b604082019050919050565b60006020820190508181036000830152614b5f81614b23565b9050919050565b7f4552433732313a20696e76616c696420746f6b656e2049440000000000000000600082015250565b6000614b9c601883613d54565b9150614ba782614b66565b602082019050919050565b60006020820190508181036000830152614bcb81614b8f565b9050919050565b7f4552433732313a2061646472657373207a65726f206973206e6f74206120766160008201527f6c6964206f776e65720000000000000000000000000000000000000000000000602082015250565b6000614c2e602983613d54565b9150614c3982614bd2565b604082019050919050565b60006020820190508181036000830152614c5d81614c21565b9050919050565b600081905092915050565b6000614c7a82613d49565b614c848185614c64565b9350614c94818560208601613d65565b80840191505092915050565b6000614cac8285614c6f565b9150614cb88284614c6f565b91508190509392505050565b7f4552433732313a207472616e736665722066726f6d20696e636f72726563742060008201527f6f776e6572000000000000000000000000000000000000000000000000000000602082015250565b6000614d20602583613d54565b9150614d2b82614cc4565b604082019050919050565b60006020820190508181036000830152614d4f81614d13565b9050919050565b7f4552433732313a207472616e7366657220746f20746865207a65726f2061646460008201527f7265737300000000000000000000000000000000000000000000000000000000602082015250565b6000614db2602483613d54565b9150614dbd82614d56565b604082019050919050565b60006020820190508181036000830152614de181614da5565b9050919050565b600081519050614df781613fad565b92915050565b600060208284031215614e1357614e12613c84565b5b6000614e2184828501614de8565b91505092915050565b7f45524331393637557067726164653a206e657720696d706c656d656e7461746960008201527f6f6e206973206e6f742055555053000000000000000000000000000000000000602082015250565b6000614e86602e83613d54565b9150614e9182614e2a565b604082019050919050565b60006020820190508181036000830152614eb581614e79565b9050919050565b7f45524331393637557067726164653a20756e737570706f727465642070726f7860008201527f6961626c65555549440000000000000000000000000000000000000000000000602082015250565b6000614f18602983613d54565b9150614f2382614ebc565b604082019050919050565b60006020820190508181036000830152614f4781614f0b565b9050919050565b7f496e697469616c697a61626c653a20636f6e7472616374206973206e6f74206960008201527f6e697469616c697a696e67000000000000000000000000000000000000000000602082015250565b6000614faa602b83613d54565b9150614fb582614f4e565b604082019050919050565b60006020820190508181036000830152614fd981614f9d565b9050919050565b7f5061757361626c653a2070617573656400000000000000000000000000000000600082015250565b6000615016601083613d54565b915061502182614fe0565b602082019050919050565b6000602082019050818103600083015261504581615009565b9050919050565b7f4552433732313a20617070726f766520746f2063616c6c657200000000000000600082015250565b6000615082601983613d54565b915061508d8261504c565b602082019050919050565b600060208201905081810360008301526150b181615075565b9050919050565b7f4552433732313a207472616e7366657220746f206e6f6e20455243373231526560008201527f63656976657220696d706c656d656e7465720000000000000000000000000000602082015250565b6000615114603283613d54565b915061511f826150b8565b604082019050919050565b6000602082019050818103600083015261514381615107565b9050919050565b7f4e487b7100000000000000000000000000000000000000000000000000000000600052601260045260246000fd5b7f416363657373436f6e74726f6c3a206163636f756e7420000000000000000000600082015250565b60006151af601783614c64565b91506151ba82615179565b601782019050919050565b7f206973206d697373696e6720726f6c6520000000000000000000000000000000600082015250565b60006151fb601183614c64565b9150615206826151c5565b601182019050919050565b600061521c826151a2565b91506152288285614c6f565b9150615233826151ee565b915061523f8284614c6f565b91508190509392505050565b7f455243313936373a206e657720696d706c656d656e746174696f6e206973206e60008201527f6f74206120636f6e747261637400000000000000000000000000000000000000602082015250565b60006152a7602d83613d54565b91506152b28261524b565b604082019050919050565b600060208201905081810360008301526152d68161529a565b9050919050565b7f5061757361626c653a206e6f7420706175736564000000000000000000000000600082015250565b6000615313601483613d54565b915061531e826152dd565b602082019050919050565b6000602082019050818103600083015261534281615306565b9050919050565b60008190508160005260206000209050919050565b60006020601f8301049050919050565b600082821b905092915050565b6000600883026153ab7fffffffffffffffffffffffffffffffffffffffffffffffffffffffffffffffff8261536e565b6153b5868361536e565b95508019841693508086168417925050509392505050565b60006153e86153e36153de84613dfb565b6149bd565b613dfb565b9050919050565b6000819050919050565b615402836153cd565b61541661540e826153ef565b84845461537b565b825550505050565b600090565b61542b61541e565b6154368184846153f9565b505050565b5b8181101561545a5761544f600082615423565b60018101905061543c565b5050565b601f82111561549f5761547081615349565b6154798461535e565b81016020851015615488578190505b61549c6154948561535e565b83018261543b565b50505b505050565b600082821c905092915050565b60006154c2600019846008026154a4565b1980831691505092915050565b60006154db83836154b1565b9150826002028217905092915050565b6154f482613d49565b67ffffffffffffffff81111561550d5761550c6140a7565b5b61551782546144e5565b61552282828561545e565b600060209050601f8311600181146155555760008415615543578287015190505b61554d85826154cf565b8655506155b5565b601f19841661556386615349565b60005b8281101561558b57848901518255600182019150602085019450602081019050615566565b868310156155a857848901516155a4601f8916826154b1565b8355505b6001600288020188555050505b505050505050565b600081519050919050565b600082825260208201905092915050565b60006155e4826155bd565b6155ee81856155c8565b93506155fe818560208601613d65565b61560781613d8f565b840191505092915050565b60006080820190506156276000830187613e90565b6156346020830186613e90565b6156416040830185613f26565b818103606083015261565381846155d9565b905095945050505050565b60008151905061566d81613cba565b92915050565b60006020828403121561568957615688613c84565b5b60006156978482850161565e565b91505092915050565b7f455243373231456e756d657261626c653a20636f6e736563757469766520747260008201527f616e7366657273206e6f7420737570706f727465640000000000000000000000602082015250565b60006156fc603583613d54565b9150615707826156a0565b604082019050919050565b6000602082019050818103600083015261572b816156ef565b9050919050565b7f4e487b7100000000000000000000000000000000000000000000000000000000600052601160045260246000fd5b600061576c82613dfb565b915061577783613dfb565b925082820261578581613dfb565b9150828204841483151761579c5761579b615732565b5b5092915050565b60006157ae82613dfb565b91506157b983613dfb565b92508282019050808211156157d1576157d0615732565b5b92915050565b60006157e282613dfb565b9150600082036157f5576157f4615732565b5b600182039050919050565b7f537472696e67733a20686578206c656e67746820696e73756666696369656e74600082015250565b6000615836602083613d54565b915061584182615800565b602082019050919050565b6000602082019050818103600083015261586581615829565b9050919050565b600061587782613dfb565b915061588283613dfb565b925082820390508181111561589a57615899615732565b5b92915050565b7f4e487b7100000000000000000000000000000000000000000000000000000000600052603160045260246000fd5b7f4552433732313a206d696e7420746f20746865207a65726f2061646472657373600082015250565b6000615905602083613d54565b9150615910826158cf565b602082019050919050565b60006020820190508181036000830152615934816158f8565b9050919050565b7f4552433732313a20746f6b656e20616c7265616479206d696e74656400000000600082015250565b6000615971601c83613d54565b915061597c8261593b565b602082019050919050565b600060208201905081810360008301526159a081615964565b9050919050565b600081905092915050565b60006159bd826155bd565b6159c781856159a7565b93506159d7818560208601613d65565b80840191505092915050565b60006159ef82846159b2565b915081905092915050565b7f416464726573733a2063616c6c20746f206e6f6e2d636f6e7472616374000000600082015250565b6000615a30601d83613d54565b9150615a3b826159fa565b602082019050919050565b60006020820190508181036000830152615a5f81615a23565b905091905056fe416464726573733a206c6f772d6c6576656c2064656c65676174652063616c6c206661696c656468747470733a2f2f6c6f746c6f6f742e6f736169726f2e78797a2f6c6f746c6f6f745f6361725f6d6574612e6a736f6e3f746f6b656e69643da264697066735822122054f6428f41081248a672fb8edd1ccdd057ba757cd8d2d1ba0780da56e914b85d64736f6c63430008140033",
  "linkReferences": {},
  "deployedLinkReferences": {}
}