{
  "_format": "hh-sol-artifact-1",
  "contractName": "LLTToken",
  "sourceName": "contracts/tokens/LLTToken.sol",
  "abi": [
    {
      "inputs": [],
      "stateMutability": "nonpayable",
      "type": "constructor"
    },
    {
      "anonymous": false,
      "inputs": [
        {
          "indexed": false,
          "internalType": "address",
          "name": "previousAdmin",
          "type": "address"
        },
        {
          "indexed": false,
          "internalType": "address",
          "name": "newAdmin",
          "type": "address"
        }
      ],
      "name": "AdminChanged",
      "type": "event"
    },
    {
      "anonymous": false,
      "inputs": [
        {
          "indexed": true,
          "internalType": "address",
          "name": "owner",
          "type": "address"
        },
        {
          "indexed": true,
          "internalType": "address",
          "name": "spender",
          "type": "address"
        },
        {
          "indexed": false,
          "internalType": "uint256",
          "name": "value",
          "type": "uint256"
        }
      ],
      "name": "Approval",
      "type": "event"
    },
    {
      "anonymous": false,
      "inputs": [
        {
          "indexed": true,
          "internalType": "address",
          "name": "beacon",
          "type": "address"
        }
      ],
      "name": "BeaconUpgraded",
      "type": "event"
    },
    {
      "anonymous": false,
      "inputs": [
        {
          "indexed": false,
          "internalType": "uint8",
          "name": "version",
          "type": "uint8"
        }
      ],
      "name": "Initialized",
      "type": "event"
    },
    {
      "anonymous": false,
      "inputs": [
        {
          "indexed": false,
          "internalType": "address",
          "name": "account",
          "type": "address"
        }
      ],
      "name": "Paused",
      "type": "event"
    },
    {
      "anonymous": false,
      "inputs": [
        {
          "indexed": true,
          "internalType": "bytes32",
          "name": "role",
          "type": "bytes32"
        },
        {
          "indexed": true,
          "internalType": "bytes32",
          "name": "previousAdminRole",
          "type": "bytes32"
        },
        {
          "indexed": true,
          "internalType": "bytes32",
          "name": "newAdminRole",
          "type": "bytes32"
        }
      ],
      "name": "RoleAdminChanged",
      "type": "event"
    },
    {
      "anonymous": false,
      "inputs": [
        {
          "indexed": true,
          "internalType": "bytes32",
          "name": "role",
          "type": "bytes32"
        },
        {
          "indexed": true,
          "internalType": "address",
          "name": "account",
          "type": "address"
        },
        {
          "indexed": true,
          "internalType": "address",
          "name": "sender",
          "type": "address"
        }
      ],
      "name": "RoleGranted",
      "type": "event"
    },
    {
      "anonymous": false,
      "inputs": [
        {
          "indexed": true,
          "internalType": "bytes32",
          "name": "role",
          "type": "bytes32"
        },
        {
          "indexed": true,
          "internalType": "address",
          "name": "account",
          "type": "address"
        },
        {
          "indexed": true,
          "internalType": "address",
          "name": "sender",
          "type": "address"
        }
      ],
      "name": "RoleRevoked",
      "type": "event"
    },
    {
      "anonymous": false,
      "inputs": [
        {
          "indexed": true,
          "internalType": "address",
          "name": "from",
          "type": "address"
        },
        {
          "indexed": true,
          "internalType": "address",
          "name": "to",
          "type": "address"
        },
        {
          "indexed": false,
          "internalType": "uint256",
          "name": "value",
          "type": "uint256"
        }
      ],
      "name": "Transfer",
      "type": "event"
    },
    {
      "anonymous": false,
      "inputs": [
        {
          "indexed": false,
          "internalType": "address",
          "name": "account",
          "type": "address"
        }
      ],
      "name": "Unpaused",
      "type": "event"
    },
    {
      "anonymous": false,
      "inputs": [
        {
          "indexed": true,
          "internalType": "address",
          "name": "implementation",
          "type": "address"
        }
      ],
      "name": "Upgraded",
      "type": "event"
    },
    {
      "inputs": [],
      "name": "DEFAULT_ADMIN_ROLE",
      "outputs": [
        {
          "internalType": "bytes32",
          "name": "",
          "type": "bytes32"
        }
      ],
      "stateMutability": "view",
      "type": "function"
    },
    {
      "inputs": [],
      "name": "MINTER_ROLE",
      "outputs": [
        {
          "internalType": "bytes32",
          "name": "",
          "type": "bytes32"
        }
      ],
      "stateMutability": "view",
      "type": "function"
    },
    {
      "inputs": [],
      "name": "PAUSER_ROLE",
      "outputs": [
        {
          "internalType": "bytes32",
          "name": "",
          "type": "bytes32"
        }
      ],
      "stateMutability": "view",
      "type": "function"
    },
    {
      "inputs": [],
      "name": "UPGRADER_ROLE",
      "outputs": [
        {
          "internalType": "bytes32",
          "name": "",
          "type": "bytes32"
        }
      ],
      "stateMutability": "view",
      "type": "function"
    },
    {
      "inputs": [
        {
          "internalType": "address",
          "name": "owner",
          "type": "address"
        },
        {
          "internalType": "address",
          "name": "spender",
          "type": "address"
        }
      ],
      "name": "allowance",
      "outputs": [
        {
          "internalType": "uint256",
          "name": "",
          "type": "uint256"
        }
      ],
      "stateMutability": "view",
      "type": "function"
    },
    {
      "inputs": [
        {
          "internalType": "address",
          "name": "spender",
          "type": "address"
        },
        {
          "internalType": "uint256",
          "name": "amount",
          "type": "uint256"
        }
      ],
      "name": "approve",
      "outputs": [
        {
          "internalType": "bool",
          "name": "",
          "type": "bool"
        }
      ],
      "stateMutability": "nonpayable",
      "type": "function"
    },
    {
      "inputs": [
        {
          "internalType": "address",
          "name": "account",
          "type": "address"
        }
      ],
      "name": "balanceOf",
      "outputs": [
        {
          "internalType": "uint256",
          "name": "",
          "type": "uint256"
        }
      ],
      "stateMutability": "view",
      "type": "function"
    },
    {
      "inputs": [],
      "name": "decimals",
      "outputs": [
        {
          "internalType": "uint8",
          "name": "",
          "type": "uint8"
        }
      ],
      "stateMutability": "view",
      "type": "function"
    },
    {
      "inputs": [
        {
          "internalType": "address",
          "name": "spender",
          "type": "address"
        },
        {
          "internalType": "uint256",
          "name": "subtractedValue",
          "type": "uint256"
        }
      ],
      "name": "decreaseAllowance",
      "outputs": [
        {
          "internalType": "bool",
          "name": "",
          "type": "bool"
        }
      ],
      "stateMutability": "nonpayable",
      "type": "function"
    },
    {
      "inputs": [
        {
          "internalType": "bytes32",
          "name": "role",
          "type": "bytes32"
        }
      ],
      "name": "getRoleAdmin",
      "outputs": [
        {
          "internalType": "bytes32",
          "name": "",
          "type": "bytes32"
        }
      ],
      "stateMutability": "view",
      "type": "function"
    },
    {
      "inputs": [
        {
          "internalType": "bytes32",
          "name": "role",
          "type": "bytes32"
        },
        {
          "internalType": "address",
          "name": "account",
          "type": "address"
        }
      ],
      "name": "grantRole",
      "outputs": [],
      "stateMutability": "nonpayable",
      "type": "function"
    },
    {
      "inputs": [
        {
          "internalType": "bytes32",
          "name": "role",
          "type": "bytes32"
        },
        {
          "internalType": "address",
          "name": "account",
          "type": "address"
        }
      ],
      "name": "hasRole",
      "outputs": [
        {
          "internalType": "bool",
          "name": "",
          "type": "bool"
        }
      ],
      "stateMutability": "view",
      "type": "function"
    },
    {
      "inputs": [
        {
          "internalType": "address",
          "name": "spender",
          "type": "address"
        },
        {
          "internalType": "uint256",
          "name": "addedValue",
          "type": "uint256"
        }
      ],
      "name": "increaseAllowance",
      "outputs": [
        {
          "internalType": "bool",
          "name": "",
          "type": "bool"
        }
      ],
      "stateMutability": "nonpayable",
      "type": "function"
    },
    {
      "inputs": [],
      "name": "initialize",
      "outputs": [],
      "stateMutability": "nonpayable",
      "type": "function"
    },
    {
      "inputs": [
        {
          "internalType": "address",
          "name": "to",
          "type": "address"
        },
        {
          "internalType": "uint256",
          "name": "amount",
          "type": "uint256"
        }
      ],
      "name": "mint",
      "outputs": [],
      "stateMutability": "nonpayable",
      "type": "function"
    },
    {
      "inputs": [],
      "name": "name",
      "outputs": [
        {
          "internalType": "string",
          "name": "",
          "type": "string"
        }
      ],
      "stateMutability": "view",
      "type": "function"
    },
    {
      "inputs": [],
      "name": "pause",
      "outputs": [],
      "stateMutability": "nonpayable",
      "type": "function"
    },
    {
      "inputs": [],
      "name": "paused",
      "outputs": [
        {
          "internalType": "bool",
          "name": "",
          "type": "bool"
        }
      ],
      "stateMutability": "view",
      "type": "function"
    },
    {
      "inputs": [],
      "name": "proxiableUUID",
      "outputs": [
        {
          "internalType": "bytes32",
          "name": "",
          "type": "bytes32"
        }
      ],
      "stateMutability": "view",
      "type": "function"
    },
    {
      "inputs": [
        {
          "internalType": "bytes32",
          "name": "role",
          "type": "bytes32"
        },
        {
          "internalType": "address",
          "name": "account",
          "type": "address"
        }
      ],
      "name": "renounceRole",
      "outputs": [],
      "stateMutability": "nonpayable",
      "type": "function"
    },
    {
      "inputs": [
        {
          "internalType": "bytes32",
          "name": "role",
          "type": "bytes32"
        },
        {
          "internalType": "address",
          "name": "account",
          "type": "address"
        }
      ],
      "name": "revokeRole",
      "outputs": [],
      "stateMutability": "nonpayable",
      "type": "function"
    },
    {
      "inputs": [
        {
          "internalType": "bytes4",
          "name": "interfaceId",
          "type": "bytes4"
        }
      ],
      "name": "supportsInterface",
      "outputs": [
        {
          "internalType": "bool",
          "name": "",
          "type": "bool"
        }
      ],
      "stateMutability": "view",
      "type": "function"
    },
    {
      "inputs": [],
      "name": "symbol",
      "outputs": [
        {
          "internalType": "string",
          "name": "",
          "type": "string"
        }
      ],
      "stateMutability": "view",
      "type": "function"
    },
    {
      "inputs": [],
      "name": "totalSupply",
      "outputs": [
        {
          "internalType": "uint256",
          "name": "",
          "type": "uint256"
        }
      ],
      "stateMutability": "view",
      "type": "function"
    },
    {
      "inputs": [
        {
          "internalType": "address",
          "name": "to",
          "type": "address"
        },
        {
          "internalType": "uint256",
          "name": "amount",
          "type": "uint256"
        }
      ],
      "name": "transfer",
      "outputs": [
        {
          "internalType": "bool",
          "name": "",
          "type": "bool"
        }
      ],
      "stateMutability": "nonpayable",
      "type": "function"
    },
    {
      "inputs": [
        {
          "internalType": "address",
          "name": "from",
          "type": "address"
        },
        {
          "internalType": "address",
          "name": "to",
          "type": "address"
        },
        {
          "internalType": "uint256",
          "name": "amount",
          "type": "uint256"
        }
      ],
      "name": "transferFrom",
      "outputs": [
        {
          "internalType": "bool",
          "name": "",
          "type": "bool"
        }
      ],
      "stateMutability": "nonpayable",
      "type": "function"
    },
    {
      "inputs": [],
      "name": "unpause",
      "outputs": [],
      "stateMutability": "nonpayable",
      "type": "function"
    },
    {
      "inputs": [
        {
          "internalType": "address",
          "name": "newImplementation",
          "type": "address"
        }
      ],
      "name": "upgradeTo",
      "outputs": [],
      "stateMutability": "nonpayable",
      "type": "function"
    },
    {
      "inputs": [
        {
          "internalType": "address",
          "name": "newImplementation",
          "type": "address"
        },
        {
          "internalType": "bytes",
          "name": "data",
          "type": "bytes"
        }
      ],
      "name": "upgradeToAndCall",
      "outputs": [],
      "stateMutability": "payable",
      "type": "function"
    }
  ],
  "bytecode": "0x60a06040523073ffffffffffffffffffffffffffffffffffffffff1660809073ffffffffffffffffffffffffffffffffffffffff168152503480156200004457600080fd5b50620000556200005b60201b60201c565b62000205565b600060019054906101000a900460ff1615620000ae576040517f08c379a0000000000000000000000000000000000000000000000000000000008152600401620000a590620001a8565b60405180910390fd5b60ff801660008054906101000a900460ff1660ff16146200011f5760ff6000806101000a81548160ff021916908360ff1602179055507f7f26b83ff96e1f2b6a682f133852f6798a09c465da95921460cefb384740249860ff604051620001169190620001e8565b60405180910390a15b565b600082825260208201905092915050565b7f496e697469616c697a61626c653a20636f6e747261637420697320696e69746960008201527f616c697a696e6700000000000000000000000000000000000000000000000000602082015250565b60006200019060278362000121565b91506200019d8262000132565b604082019050919050565b60006020820190508181036000830152620001c38162000181565b9050919050565b600060ff82169050919050565b620001e281620001ca565b82525050565b6000602082019050620001ff6000830184620001d7565b92915050565b608051613f0e6200023d6000396000818161093c015281816109ca01528181610b7101528181610bff0152610caf0152613f0e6000f3fe6080604052600436106101c25760003560e01c806352d1902d116100f7578063a217fddf11610095578063d547741f11610064578063d547741f14610649578063dd62ed3e14610672578063e63ab1e9146106af578063f72c0d8b146106da576101c2565b8063a217fddf14610579578063a457c2d7146105a4578063a9059cbb146105e1578063d53913931461061e576101c2565b80638129fc1c116100d15780638129fc1c146104e35780638456cb59146104fa57806391d148541461051157806395d89b411461054e576101c2565b806352d1902d146104505780635c975abb1461047b57806370a08231146104a6576101c2565b8063313ce56711610164578063395093511161013e57806339509351146103b75780633f4ba83a146103f457806340c10f191461040b5780634f1ef28614610434576101c2565b8063313ce5671461033a57806336568abe146103655780633659cfe61461038e576101c2565b806318160ddd116101a057806318160ddd1461026c57806323b872dd14610297578063248a9ca3146102d45780632f2ff15d14610311576101c2565b806301ffc9a7146101c757806306fdde0314610204578063095ea7b31461022f575b600080fd5b3480156101d357600080fd5b506101ee60048036038101906101e99190612798565b610705565b6040516101fb91906127e0565b60405180910390f35b34801561021057600080fd5b5061021961077f565b604051610226919061288b565b60405180910390f35b34801561023b57600080fd5b5061025660048036038101906102519190612941565b610811565b60405161026391906127e0565b60405180910390f35b34801561027857600080fd5b50610281610834565b60405161028e9190612990565b60405180910390f35b3480156102a357600080fd5b506102be60048036038101906102b991906129ab565b61083e565b6040516102cb91906127e0565b60405180910390f35b3480156102e057600080fd5b506102fb60048036038101906102f69190612a34565b61086d565b6040516103089190612a70565b60405180910390f35b34801561031d57600080fd5b5061033860048036038101906103339190612a8b565b61088d565b005b34801561034657600080fd5b5061034f6108ae565b60405161035c9190612ae7565b60405180910390f35b34801561037157600080fd5b5061038c60048036038101906103879190612a8b565b6108b7565b005b34801561039a57600080fd5b506103b560048036038101906103b09190612b02565b61093a565b005b3480156103c357600080fd5b506103de60048036038101906103d99190612941565b610ac2565b6040516103eb91906127e0565b60405180910390f35b34801561040057600080fd5b50610409610af9565b005b34801561041757600080fd5b50610432600480360381019061042d9190612941565b610b2e565b005b61044e60048036038101906104499190612c64565b610b6f565b005b34801561045c57600080fd5b50610465610cab565b6040516104729190612a70565b60405180910390f35b34801561048757600080fd5b50610490610d64565b60405161049d91906127e0565b60405180910390f35b3480156104b257600080fd5b506104cd60048036038101906104c89190612b02565b610d7b565b6040516104da9190612990565b60405180910390f35b3480156104ef57600080fd5b506104f8610dc4565b005b34801561050657600080fd5b5061050f611011565b005b34801561051d57600080fd5b5061053860048036038101906105339190612a8b565b611046565b60405161054591906127e0565b60405180910390f35b34801561055a57600080fd5b506105636110b1565b604051610570919061288b565b60405180910390f35b34801561058557600080fd5b5061058e611143565b60405161059b9190612a70565b60405180910390f35b3480156105b057600080fd5b506105cb60048036038101906105c69190612941565b61114a565b6040516105d891906127e0565b60405180910390f35b3480156105ed57600080fd5b5061060860048036038101906106039190612941565b6111c1565b60405161061591906127e0565b60405180910390f35b34801561062a57600080fd5b506106336111e4565b6040516106409190612a70565b60405180910390f35b34801561065557600080fd5b50610670600480360381019061066b9190612a8b565b611208565b005b34801561067e57600080fd5b5061069960048036038101906106949190612cc0565b611229565b6040516106a69190612990565b60405180910390f35b3480156106bb57600080fd5b506106c46112b0565b6040516106d19190612a70565b60405180910390f35b3480156106e657600080fd5b506106ef6112d4565b6040516106fc9190612a70565b60405180910390f35b60007f7965db0b000000000000000000000000000000000000000000000000000000007bffffffffffffffffffffffffffffffffffffffffffffffffffffffff1916827bffffffffffffffffffffffffffffffffffffffffffffffffffffffff191614806107785750610777826112f8565b5b9050919050565b60606036805461078e90612d2f565b80601f01602080910402602001604051908101604052809291908181526020018280546107ba90612d2f565b80156108075780601f106107dc57610100808354040283529160200191610807565b820191906000526020600020905b8154815290600101906020018083116107ea57829003601f168201915b5050505050905090565b60008061081c611362565b905061082981858561136a565b600191505092915050565b6000603554905090565b600080610849611362565b9050610856858285611533565b6108618585856115bf565b60019150509392505050565b600060fb6000838152602001908152602001600020600101549050919050565b6108968261086d565b61089f81611838565b6108a9838361184c565b505050565b60006012905090565b6108bf611362565b73ffffffffffffffffffffffffffffffffffffffff168173ffffffffffffffffffffffffffffffffffffffff161461092c576040517f08c379a000000000000000000000000000000000000000000000000000000000815260040161092390612dd2565b60405180910390fd5b610936828261192d565b5050565b7f000000000000000000000000000000000000000000000000000000000000000073ffffffffffffffffffffffffffffffffffffffff163073ffffffffffffffffffffffffffffffffffffffff16036109c8576040517f08c379a00000000000000000000000000000000000000000000000000000000081526004016109bf90612e64565b60405180910390fd5b7f000000000000000000000000000000000000000000000000000000000000000073ffffffffffffffffffffffffffffffffffffffff16610a07611a0f565b73ffffffffffffffffffffffffffffffffffffffff1614610a5d576040517f08c379a0000000000000000000000000000000000000000000000000000000008152600401610a5490612ef6565b60405180910390fd5b610a6681611a66565b610abf81600067ffffffffffffffff811115610a8557610a84612b39565b5b6040519080825280601f01601f191660200182016040528015610ab75781602001600182028036833780820191505090505b506000611a94565b50565b600080610acd611362565b9050610aee818585610adf8589611229565b610ae99190612f45565b61136a565b600191505092915050565b7f65d7a28e3265b37a6474929f336521b332c1681b933f6cb9f3376673440d862a610b2381611838565b610b2b611c02565b50565b7f9f2df0fed2c77648de5860a4cc508cd0818c85b8b8a1ab4ceeef8d981c8956a6610b5881611838565b610b60611c65565b610b6a8383611caf565b505050565b7f000000000000000000000000000000000000000000000000000000000000000073ffffffffffffffffffffffffffffffffffffffff163073ffffffffffffffffffffffffffffffffffffffff1603610bfd576040517f08c379a0000000000000000000000000000000000000000000000000000000008152600401610bf490612e64565b60405180910390fd5b7f000000000000000000000000000000000000000000000000000000000000000073ffffffffffffffffffffffffffffffffffffffff16610c3c611a0f565b73ffffffffffffffffffffffffffffffffffffffff1614610c92576040517f08c379a0000000000000000000000000000000000000000000000000000000008152600401610c8990612ef6565b60405180910390fd5b610c9b82611a66565b610ca782826001611a94565b5050565b60007f000000000000000000000000000000000000000000000000000000000000000073ffffffffffffffffffffffffffffffffffffffff163073ffffffffffffffffffffffffffffffffffffffff1614610d3b576040517f08c379a0000000000000000000000000000000000000000000000000000000008152600401610d3290612feb565b60405180910390fd5b7f360894a13ba1a3210667c828492db98dca3e2076cc3735a920a3ca505d382bbc60001b905090565b6000606560009054906101000a900460ff16905090565b6000603360008373ffffffffffffffffffffffffffffffffffffffff1673ffffffffffffffffffffffffffffffffffffffff168152602001908152602001600020549050919050565b60008060019054906101000a900460ff16159050808015610df55750600160008054906101000a900460ff1660ff16105b80610e225750610e0430611e06565b158015610e215750600160008054906101000a900460ff1660ff16145b5b610e61576040517f08c379a0000000000000000000000000000000000000000000000000000000008152600401610e589061307d565b60405180910390fd5b60016000806101000a81548160ff021916908360ff1602179055508015610e9e576001600060016101000a81548160ff0219169083151502179055505b610f126040518060400160405280600c81526020017f4c6f744c6f6f74546f6b656e00000000000000000000000000000000000000008152506040518060400160405280600381526020017f4c4c540000000000000000000000000000000000000000000000000000000000815250611e29565b610f1a611e86565b610f22611edf565b610f2a611f30565b610f376000801b3361184c565b610f617f65d7a28e3265b37a6474929f336521b332c1681b933f6cb9f3376673440d862a3361184c565b610f8b7f9f2df0fed2c77648de5860a4cc508cd0818c85b8b8a1ab4ceeef8d981c8956a63361184c565b610fb57f189ab7a9244df0848122154315af71fe140f3db0fe014031783b0946b8c9d2e33361184c565b801561100e5760008060016101000a81548160ff0219169083151502179055507f7f26b83ff96e1f2b6a682f133852f6798a09c465da95921460cefb3847402498600160405161100591906130e2565b60405180910390a15b50565b7f65d7a28e3265b37a6474929f336521b332c1681b933f6cb9f3376673440d862a61103b81611838565b611043611f81565b50565b600060fb600084815260200190815260200160002060000160008373ffffffffffffffffffffffffffffffffffffffff1673ffffffffffffffffffffffffffffffffffffffff16815260200190815260200160002060009054906101000a900460ff16905092915050565b6060603780546110c090612d2f565b80601f01602080910402602001604051908101604052809291908181526020018280546110ec90612d2f565b80156111395780601f1061110e57610100808354040283529160200191611139565b820191906000526020600020905b81548152906001019060200180831161111c57829003601f168201915b5050505050905090565b6000801b81565b600080611155611362565b905060006111638286611229565b9050838110156111a8576040517f08c379a000000000000000000000000000000000000000000000000000000000815260040161119f9061316f565b60405180910390fd5b6111b5828686840361136a565b60019250505092915050565b6000806111cc611362565b90506111d98185856115bf565b600191505092915050565b7f9f2df0fed2c77648de5860a4cc508cd0818c85b8b8a1ab4ceeef8d981c8956a681565b6112118261086d565b61121a81611838565b611224838361192d565b505050565b6000603460008473ffffffffffffffffffffffffffffffffffffffff1673ffffffffffffffffffffffffffffffffffffffff16815260200190815260200160002060008373ffffffffffffffffffffffffffffffffffffffff1673ffffffffffffffffffffffffffffffffffffffff16815260200190815260200160002054905092915050565b7f65d7a28e3265b37a6474929f336521b332c1681b933f6cb9f3376673440d862a81565b7f189ab7a9244df0848122154315af71fe140f3db0fe014031783b0946b8c9d2e381565b60007f01ffc9a7000000000000000000000000000000000000000000000000000000007bffffffffffffffffffffffffffffffffffffffffffffffffffffffff1916827bffffffffffffffffffffffffffffffffffffffffffffffffffffffff1916149050919050565b600033905090565b600073ffffffffffffffffffffffffffffffffffffffff168373ffffffffffffffffffffffffffffffffffffffff16036113d9576040517f08c379a00000000000000000000000000000000000000000000000000000000081526004016113d090613201565b60405180910390fd5b600073ffffffffffffffffffffffffffffffffffffffff168273ffffffffffffffffffffffffffffffffffffffff1603611448576040517f08c379a000000000000000000000000000000000000000000000000000000000815260040161143f90613293565b60405180910390fd5b80603460008573ffffffffffffffffffffffffffffffffffffffff1673ffffffffffffffffffffffffffffffffffffffff16815260200190815260200160002060008473ffffffffffffffffffffffffffffffffffffffff1673ffffffffffffffffffffffffffffffffffffffff168152602001908152602001600020819055508173ffffffffffffffffffffffffffffffffffffffff168373ffffffffffffffffffffffffffffffffffffffff167f8c5be1e5ebec7d5bd14f71427d1e84f3dd0314c0f7b2291e5b200ac8c7c3b925836040516115269190612990565b60405180910390a3505050565b600061153f8484611229565b90507fffffffffffffffffffffffffffffffffffffffffffffffffffffffffffffffff81146115b957818110156115ab576040517f08c379a00000000000000000000000000000000000000000000000000000000081526004016115a2906132ff565b60405180910390fd5b6115b8848484840361136a565b5b50505050565b600073ffffffffffffffffffffffffffffffffffffffff168373ffffffffffffffffffffffffffffffffffffffff160361162e576040517f08c379a000000000000000000000000000000000000000000000000000000000815260040161162590613391565b60405180910390fd5b600073ffffffffffffffffffffffffffffffffffffffff168273ffffffffffffffffffffffffffffffffffffffff160361169d576040517f08c379a000000000000000000000000000000000000000000000000000000000815260040161169490613423565b60405180910390fd5b6116a8838383611fe4565b6000603360008573ffffffffffffffffffffffffffffffffffffffff1673ffffffffffffffffffffffffffffffffffffffff1681526020019081526020016000205490508181101561172f576040517f08c379a0000000000000000000000000000000000000000000000000000000008152600401611726906134b5565b60405180910390fd5b818103603360008673ffffffffffffffffffffffffffffffffffffffff1673ffffffffffffffffffffffffffffffffffffffff1681526020019081526020016000208190555081603360008573ffffffffffffffffffffffffffffffffffffffff1673ffffffffffffffffffffffffffffffffffffffff168152602001908152602001600020600082825401925050819055508273ffffffffffffffffffffffffffffffffffffffff168473ffffffffffffffffffffffffffffffffffffffff167fddf252ad1be2c89b69c2b068fc378daa952ba7f163c4a11628f55a4df523b3ef8460405161181f9190612990565b60405180910390a3611832848484611ff4565b50505050565b61184981611844611362565b611ff9565b50565b6118568282611046565b61192957600160fb600084815260200190815260200160002060000160008373ffffffffffffffffffffffffffffffffffffffff1673ffffffffffffffffffffffffffffffffffffffff16815260200190815260200160002060006101000a81548160ff0219169083151502179055506118ce611362565b73ffffffffffffffffffffffffffffffffffffffff168173ffffffffffffffffffffffffffffffffffffffff16837f2f8788117e7eff1d82e926ec794901d17c78024a50270940304540a733656f0d60405160405180910390a45b5050565b6119378282611046565b15611a0b57600060fb600084815260200190815260200160002060000160008373ffffffffffffffffffffffffffffffffffffffff1673ffffffffffffffffffffffffffffffffffffffff16815260200190815260200160002060006101000a81548160ff0219169083151502179055506119b0611362565b73ffffffffffffffffffffffffffffffffffffffff168173ffffffffffffffffffffffffffffffffffffffff16837ff6391f5c32d9c69d2a47ea670b442974b53935d1edc7fd64eb21e047a839171b60405160405180910390a45b5050565b6000611a3d7f360894a13ba1a3210667c828492db98dca3e2076cc3735a920a3ca505d382bbc60001b61207e565b60000160009054906101000a900473ffffffffffffffffffffffffffffffffffffffff16905090565b7f189ab7a9244df0848122154315af71fe140f3db0fe014031783b0946b8c9d2e3611a9081611838565b5050565b611ac07f4910fdfa16fed3260ed0e7147f7cc6da11a60208b5b9406d12a635614ffd914360001b612088565b60000160009054906101000a900460ff1615611ae457611adf83612092565b611bfd565b8273ffffffffffffffffffffffffffffffffffffffff166352d1902d6040518163ffffffff1660e01b8152600401602060405180830381865afa925050508015611b4c57506040513d601f19601f82011682018060405250810190611b4991906134ea565b60015b611b8b576040517f08c379a0000000000000000000000000000000000000000000000000000000008152600401611b8290613589565b60405180910390fd5b7f360894a13ba1a3210667c828492db98dca3e2076cc3735a920a3ca505d382bbc60001b8114611bf0576040517f08c379a0000000000000000000000000000000000000000000000000000000008152600401611be79061361b565b60405180910390fd5b50611bfc83838361214b565b5b505050565b611c0a612177565b6000606560006101000a81548160ff0219169083151502179055507f5db9ee0a495bf2e6ff9c91a7834c1ba4fdd244a5e8aa4e537bd38aeae4b073aa611c4e611362565b604051611c5b919061364a565b60405180910390a1565b611c6d610d64565b15611cad576040517f08c379a0000000000000000000000000000000000000000000000000000000008152600401611ca4906136b1565b60405180910390fd5b565b600073ffffffffffffffffffffffffffffffffffffffff168273ffffffffffffffffffffffffffffffffffffffff1603611d1e576040517f08c379a0000000000000000000000000000000000000000000000000000000008152600401611d159061371d565b60405180910390fd5b611d2a60008383611fe4565b8060356000828254611d3c9190612f45565b9250508190555080603360008473ffffffffffffffffffffffffffffffffffffffff1673ffffffffffffffffffffffffffffffffffffffff168152602001908152602001600020600082825401925050819055508173ffffffffffffffffffffffffffffffffffffffff16600073ffffffffffffffffffffffffffffffffffffffff167fddf252ad1be2c89b69c2b068fc378daa952ba7f163c4a11628f55a4df523b3ef83604051611dee9190612990565b60405180910390a3611e0260008383611ff4565b5050565b6000808273ffffffffffffffffffffffffffffffffffffffff163b119050919050565b600060019054906101000a900460ff16611e78576040517f08c379a0000000000000000000000000000000000000000000000000000000008152600401611e6f906137af565b60405180910390fd5b611e8282826121c0565b5050565b600060019054906101000a900460ff16611ed5576040517f08c379a0000000000000000000000000000000000000000000000000000000008152600401611ecc906137af565b60405180910390fd5b611edd612233565b565b600060019054906101000a900460ff16611f2e576040517f08c379a0000000000000000000000000000000000000000000000000000000008152600401611f25906137af565b60405180910390fd5b565b600060019054906101000a900460ff16611f7f576040517f08c379a0000000000000000000000000000000000000000000000000000000008152600401611f76906137af565b60405180910390fd5b565b611f89611c65565b6001606560006101000a81548160ff0219169083151502179055507f62e78cea01bee320cd4e420270b5ea74000d11b0c9f74754ebdbfc544b05a258611fcd611362565b604051611fda919061364a565b60405180910390a1565b611fef83838361229f565b505050565b505050565b6120038282611046565b61207a57612010816122f7565b61201e8360001c6020612324565b60405160200161202f9291906138a3565b6040516020818303038152906040526040517f08c379a0000000000000000000000000000000000000000000000000000000008152600401612071919061288b565b60405180910390fd5b5050565b6000819050919050565b6000819050919050565b61209b81611e06565b6120da576040517f08c379a00000000000000000000000000000000000000000000000000000000081526004016120d19061394f565b60405180910390fd5b806121077f360894a13ba1a3210667c828492db98dca3e2076cc3735a920a3ca505d382bbc60001b61207e565b60000160006101000a81548173ffffffffffffffffffffffffffffffffffffffff021916908373ffffffffffffffffffffffffffffffffffffffff16021790555050565b61215483612560565b6000825111806121615750805b156121725761217083836125af565b505b505050565b61217f610d64565b6121be576040517f08c379a00000000000000000000000000000000000000000000000000000000081526004016121b5906139bb565b60405180910390fd5b565b600060019054906101000a900460ff1661220f576040517f08c379a0000000000000000000000000000000000000000000000000000000008152600401612206906137af565b60405180910390fd5b816036908161221e9190613b7d565b50806037908161222e9190613b7d565b505050565b600060019054906101000a900460ff16612282576040517f08c379a0000000000000000000000000000000000000000000000000000000008152600401612279906137af565b60405180910390fd5b6000606560006101000a81548160ff021916908315150217905550565b6122aa8383836125dc565b6122b2610d64565b156122f2576040517f08c379a00000000000000000000000000000000000000000000000000000000081526004016122e990613cc1565b60405180910390fd5b505050565b606061231d8273ffffffffffffffffffffffffffffffffffffffff16601460ff16612324565b9050919050565b6060600060028360026123379190613ce1565b6123419190612f45565b67ffffffffffffffff81111561235a57612359612b39565b5b6040519080825280601f01601f19166020018201604052801561238c5781602001600182028036833780820191505090505b5090507f3000000000000000000000000000000000000000000000000000000000000000816000815181106123c4576123c3613d23565b5b60200101907effffffffffffffffffffffffffffffffffffffffffffffffffffffffffffff1916908160001a9053507f78000000000000000000000000000000000000000000000000000000000000008160018151811061242857612427613d23565b5b60200101907effffffffffffffffffffffffffffffffffffffffffffffffffffffffffffff1916908160001a905350600060018460026124689190613ce1565b6124729190612f45565b90505b6001811115612512577f3031323334353637383961626364656600000000000000000000000000000000600f8616601081106124b4576124b3613d23565b5b1a60f81b8282815181106124cb576124ca613d23565b5b60200101907effffffffffffffffffffffffffffffffffffffffffffffffffffffffffffff1916908160001a905350600485901c94508061250b90613d52565b9050612475565b5060008414612556576040517f08c379a000000000000000000000000000000000000000000000000000000000815260040161254d90613dc7565b60405180910390fd5b8091505092915050565b61256981612092565b8073ffffffffffffffffffffffffffffffffffffffff167fbc7cd75a20ee27fd9adebab32041f755214dbc6bffa90cc0225b39da2e5c2d3b60405160405180910390a250565b60606125d48383604051806060016040528060278152602001613eb2602791396125e1565b905092915050565b505050565b60606000808573ffffffffffffffffffffffffffffffffffffffff168560405161260b9190613e2e565b600060405180830381855af49150503d8060008114612646576040519150601f19603f3d011682016040523d82523d6000602084013e61264b565b606091505b509150915061265c86838387612667565b925050509392505050565b606083156126c95760008351036126c15761268185611e06565b6126c0576040517f08c379a00000000000000000000000000000000000000000000000000000000081526004016126b790613e91565b60405180910390fd5b5b8290506126d4565b6126d383836126dc565b5b949350505050565b6000825111156126ef5781518083602001fd5b806040517f08c379a0000000000000000000000000000000000000000000000000000000008152600401612723919061288b565b60405180910390fd5b6000604051905090565b600080fd5b600080fd5b60007fffffffff0000000000000000000000000000000000000000000000000000000082169050919050565b61277581612740565b811461278057600080fd5b50565b6000813590506127928161276c565b92915050565b6000602082840312156127ae576127ad612736565b5b60006127bc84828501612783565b91505092915050565b60008115159050919050565b6127da816127c5565b82525050565b60006020820190506127f560008301846127d1565b92915050565b600081519050919050565b600082825260208201905092915050565b60005b8381101561283557808201518184015260208101905061281a565b60008484015250505050565b6000601f19601f8301169050919050565b600061285d826127fb565b6128678185612806565b9350612877818560208601612817565b61288081612841565b840191505092915050565b600060208201905081810360008301526128a58184612852565b905092915050565b600073ffffffffffffffffffffffffffffffffffffffff82169050919050565b60006128d8826128ad565b9050919050565b6128e8816128cd565b81146128f357600080fd5b50565b600081359050612905816128df565b92915050565b6000819050919050565b61291e8161290b565b811461292957600080fd5b50565b60008135905061293b81612915565b92915050565b6000806040838503121561295857612957612736565b5b6000612966858286016128f6565b92505060206129778582860161292c565b9150509250929050565b61298a8161290b565b82525050565b60006020820190506129a56000830184612981565b92915050565b6000806000606084860312156129c4576129c3612736565b5b60006129d2868287016128f6565b93505060206129e3868287016128f6565b92505060406129f48682870161292c565b9150509250925092565b6000819050919050565b612a11816129fe565b8114612a1c57600080fd5b50565b600081359050612a2e81612a08565b92915050565b600060208284031215612a4a57612a49612736565b5b6000612a5884828501612a1f565b91505092915050565b612a6a816129fe565b82525050565b6000602082019050612a856000830184612a61565b92915050565b60008060408385031215612aa257612aa1612736565b5b6000612ab085828601612a1f565b9250506020612ac1858286016128f6565b9150509250929050565b600060ff82169050919050565b612ae181612acb565b82525050565b6000602082019050612afc6000830184612ad8565b92915050565b600060208284031215612b1857612b17612736565b5b6000612b26848285016128f6565b91505092915050565b600080fd5b600080fd5b7f4e487b7100000000000000000000000000000000000000000000000000000000600052604160045260246000fd5b612b7182612841565b810181811067ffffffffffffffff82111715612b9057612b8f612b39565b5b80604052505050565b6000612ba361272c565b9050612baf8282612b68565b919050565b600067ffffffffffffffff821115612bcf57612bce612b39565b5b612bd882612841565b9050602081019050919050565b82818337600083830152505050565b6000612c07612c0284612bb4565b612b99565b905082815260208101848484011115612c2357612c22612b34565b5b612c2e848285612be5565b509392505050565b600082601f830112612c4b57612c4a612b2f565b5b8135612c5b848260208601612bf4565b91505092915050565b60008060408385031215612c7b57612c7a612736565b5b6000612c89858286016128f6565b925050602083013567ffffffffffffffff811115612caa57612ca961273b565b5b612cb685828601612c36565b9150509250929050565b60008060408385031215612cd757612cd6612736565b5b6000612ce5858286016128f6565b9250506020612cf6858286016128f6565b9150509250929050565b7f4e487b7100000000000000000000000000000000000000000000000000000000600052602260045260246000fd5b60006002820490506001821680612d4757607f821691505b602082108103612d5a57612d59612d00565b5b50919050565b7f416363657373436f6e74726f6c3a2063616e206f6e6c792072656e6f756e636560008201527f20726f6c657320666f722073656c660000000000000000000000000000000000602082015250565b6000612dbc602f83612806565b9150612dc782612d60565b604082019050919050565b60006020820190508181036000830152612deb81612daf565b9050919050565b7f46756e6374696f6e206d7573742062652063616c6c6564207468726f7567682060008201527f64656c656761746563616c6c0000000000000000000000000000000000000000602082015250565b6000612e4e602c83612806565b9150612e5982612df2565b604082019050919050565b60006020820190508181036000830152612e7d81612e41565b9050919050565b7f46756e6374696f6e206d7573742062652063616c6c6564207468726f7567682060008201527f6163746976652070726f78790000000000000000000000000000000000000000602082015250565b6000612ee0602c83612806565b9150612eeb82612e84565b604082019050919050565b60006020820190508181036000830152612f0f81612ed3565b9050919050565b7f4e487b7100000000000000000000000000000000000000000000000000000000600052601160045260246000fd5b6000612f508261290b565b9150612f5b8361290b565b9250828201905080821115612f7357612f72612f16565b5b92915050565b7f555550535570677261646561626c653a206d757374206e6f742062652063616c60008201527f6c6564207468726f7567682064656c656761746563616c6c0000000000000000602082015250565b6000612fd5603883612806565b9150612fe082612f79565b604082019050919050565b6000602082019050818103600083015261300481612fc8565b9050919050565b7f496e697469616c697a61626c653a20636f6e747261637420697320616c72656160008201527f647920696e697469616c697a6564000000000000000000000000000000000000602082015250565b6000613067602e83612806565b91506130728261300b565b604082019050919050565b600060208201905081810360008301526130968161305a565b9050919050565b6000819050919050565b6000819050919050565b60006130cc6130c76130c28461309d565b6130a7565b612acb565b9050919050565b6130dc816130b1565b82525050565b60006020820190506130f760008301846130d3565b92915050565b7f45524332303a2064656372656173656420616c6c6f77616e63652062656c6f7760008201527f207a65726f000000000000000000000000000000000000000000000000000000602082015250565b6000613159602583612806565b9150613164826130fd565b604082019050919050565b600060208201905081810360008301526131888161314c565b9050919050565b7f45524332303a20617070726f76652066726f6d20746865207a65726f2061646460008201527f7265737300000000000000000000000000000000000000000000000000000000602082015250565b60006131eb602483612806565b91506131f68261318f565b604082019050919050565b6000602082019050818103600083015261321a816131de565b9050919050565b7f45524332303a20617070726f766520746f20746865207a65726f20616464726560008201527f7373000000000000000000000000000000000000000000000000000000000000602082015250565b600061327d602283612806565b915061328882613221565b604082019050919050565b600060208201905081810360008301526132ac81613270565b9050919050565b7f45524332303a20696e73756666696369656e7420616c6c6f77616e6365000000600082015250565b60006132e9601d83612806565b91506132f4826132b3565b602082019050919050565b60006020820190508181036000830152613318816132dc565b9050919050565b7f45524332303a207472616e736665722066726f6d20746865207a65726f20616460008201527f6472657373000000000000000000000000000000000000000000000000000000602082015250565b600061337b602583612806565b91506133868261331f565b604082019050919050565b600060208201905081810360008301526133aa8161336e565b9050919050565b7f45524332303a207472616e7366657220746f20746865207a65726f206164647260008201527f6573730000000000000000000000000000000000000000000000000000000000602082015250565b600061340d602383612806565b9150613418826133b1565b604082019050919050565b6000602082019050818103600083015261343c81613400565b9050919050565b7f45524332303a207472616e7366657220616d6f756e742065786365656473206260008201527f616c616e63650000000000000000000000000000000000000000000000000000602082015250565b600061349f602683612806565b91506134aa82613443565b604082019050919050565b600060208201905081810360008301526134ce81613492565b9050919050565b6000815190506134e481612a08565b92915050565b600060208284031215613500576134ff612736565b5b600061350e848285016134d5565b91505092915050565b7f45524331393637557067726164653a206e657720696d706c656d656e7461746960008201527f6f6e206973206e6f742055555053000000000000000000000000000000000000602082015250565b6000613573602e83612806565b915061357e82613517565b604082019050919050565b600060208201905081810360008301526135a281613566565b9050919050565b7f45524331393637557067726164653a20756e737570706f727465642070726f7860008201527f6961626c65555549440000000000000000000000000000000000000000000000602082015250565b6000613605602983612806565b9150613610826135a9565b604082019050919050565b60006020820190508181036000830152613634816135f8565b9050919050565b613644816128cd565b82525050565b600060208201905061365f600083018461363b565b92915050565b7f5061757361626c653a2070617573656400000000000000000000000000000000600082015250565b600061369b601083612806565b91506136a682613665565b602082019050919050565b600060208201905081810360008301526136ca8161368e565b9050919050565b7f45524332303a206d696e7420746f20746865207a65726f206164647265737300600082015250565b6000613707601f83612806565b9150613712826136d1565b602082019050919050565b60006020820190508181036000830152613736816136fa565b9050919050565b7f496e697469616c697a61626c653a20636f6e7472616374206973206e6f74206960008201527f6e697469616c697a696e67000000000000000000000000000000000000000000602082015250565b6000613799602b83612806565b91506137a48261373d565b604082019050919050565b600060208201905081810360008301526137c88161378c565b9050919050565b600081905092915050565b7f416363657373436f6e74726f6c3a206163636f756e7420000000000000000000600082015250565b60006138106017836137cf565b915061381b826137da565b601782019050919050565b6000613831826127fb565b61383b81856137cf565b935061384b818560208601612817565b80840191505092915050565b7f206973206d697373696e6720726f6c6520000000000000000000000000000000600082015250565b600061388d6011836137cf565b915061389882613857565b601182019050919050565b60006138ae82613803565b91506138ba8285613826565b91506138c582613880565b91506138d18284613826565b91508190509392505050565b7f455243313936373a206e657720696d706c656d656e746174696f6e206973206e60008201527f6f74206120636f6e747261637400000000000000000000000000000000000000602082015250565b6000613939602d83612806565b9150613944826138dd565b604082019050919050565b600060208201905081810360008301526139688161392c565b9050919050565b7f5061757361626c653a206e6f7420706175736564000000000000000000000000600082015250565b60006139a5601483612806565b91506139b08261396f565b602082019050919050565b600060208201905081810360008301526139d481613998565b9050919050565b60008190508160005260206000209050919050565b60006020601f8301049050919050565b600082821b905092915050565b600060088302613a3d7fffffffffffffffffffffffffffffffffffffffffffffffffffffffffffffffff82613a00565b613a478683613a00565b95508019841693508086168417925050509392505050565b6000613a7a613a75613a708461290b565b6130a7565b61290b565b9050919050565b6000819050919050565b613a9483613a5f565b613aa8613aa082613a81565b848454613a0d565b825550505050565b600090565b613abd613ab0565b613ac8818484613a8b565b505050565b5b81811015613aec57613ae1600082613ab5565b600181019050613ace565b5050565b601f821115613b3157613b02816139db565b613b0b846139f0565b81016020851015613b1a578190505b613b2e613b26856139f0565b830182613acd565b50505b505050565b600082821c905092915050565b6000613b5460001984600802613b36565b1980831691505092915050565b6000613b6d8383613b43565b9150826002028217905092915050565b613b86826127fb565b67ffffffffffffffff811115613b9f57613b9e612b39565b5b613ba98254612d2f565b613bb4828285613af0565b600060209050601f831160018114613be75760008415613bd5578287015190505b613bdf8582613b61565b865550613c47565b601f198416613bf5866139db565b60005b82811015613c1d57848901518255600182019150602085019450602081019050613bf8565b86831015613c3a5784890151613c36601f891682613b43565b8355505b6001600288020188555050505b505050505050565b7f45524332305061757361626c653a20746f6b656e207472616e7366657220776860008201527f696c652070617573656400000000000000000000000000000000000000000000602082015250565b6000613cab602a83612806565b9150613cb682613c4f565b604082019050919050565b60006020820190508181036000830152613cda81613c9e565b9050919050565b6000613cec8261290b565b9150613cf78361290b565b9250828202613d058161290b565b91508282048414831517613d1c57613d1b612f16565b5b5092915050565b7f4e487b7100000000000000000000000000000000000000000000000000000000600052603260045260246000fd5b6000613d5d8261290b565b915060008203613d7057613d6f612f16565b5b600182039050919050565b7f537472696e67733a20686578206c656e67746820696e73756666696369656e74600082015250565b6000613db1602083612806565b9150613dbc82613d7b565b602082019050919050565b60006020820190508181036000830152613de081613da4565b9050919050565b600081519050919050565b600081905092915050565b6000613e0882613de7565b613e128185613df2565b9350613e22818560208601612817565b80840191505092915050565b6000613e3a8284613dfd565b915081905092915050565b7f416464726573733a2063616c6c20746f206e6f6e2d636f6e7472616374000000600082015250565b6000613e7b601d83612806565b9150613e8682613e45565b602082019050919050565b60006020820190508181036000830152613eaa81613e6e565b905091905056fe416464726573733a206c6f772d6c6576656c2064656c65676174652063616c6c206661696c6564a26469706673582212203820d5381b12ec0ca170d4a4a5a1daef35b79b45d41971f6004f8c9b2c01b7f164736f6c63430008140033",
  "linkReferences": {},
  "deployedLinkReferences": {}
}