{
  "_format": "hh-sol-artifact-1",
  "contractName": "TestToken721",
  "sourceName": "contracts/tokens/TestToken721.sol",
  "abi": [
    {
      "inputs": [],
      "stateMutability": "nonpayable",
      "type": "constructor"
    },
    {
      "anonymous": false,
      "inputs": [
        {
          "indexed": true,
          "internalType": "address",
          "name": "owner",
          "type": "address"
        },
        {
          "indexed": true,
          "internalType": "address",
          "name": "approved",
          "type": "address"
        },
        {
          "indexed": true,
          "internalType": "uint256",
          "name": "tokenId",
          "type": "uint256"
        }
      ],
      "name": "Approval",
      "type": "event"
    },
    {
      "anonymous": false,
      "inputs": [
        {
          "indexed": true,
          "internalType": "address",
          "name": "owner",
          "type": "address"
        },
        {
          "indexed": true,
          "internalType": "address",
          "name": "operator",
          "type": "address"
        },
        {
          "indexed": false,
          "internalType": "bool",
          "name": "approved",
          "type": "bool"
        }
      ],
      "name": "ApprovalForAll",
      "type": "event"
    },
    {
      "anonymous": false,
      "inputs": [
        {
          "indexed": false,
          "internalType": "address",
          "name": "account",
          "type": "address"
        }
      ],
      "name": "Paused",
      "type": "event"
    },
    {
      "anonymous": false,
      "inputs": [
        {
          "indexed": true,
          "internalType": "bytes32",
          "name": "role",
          "type": "bytes32"
        },
        {
          "indexed": true,
          "internalType": "bytes32",
          "name": "previousAdminRole",
          "type": "bytes32"
        },
        {
          "indexed": true,
          "internalType": "bytes32",
          "name": "newAdminRole",
          "type": "bytes32"
        }
      ],
      "name": "RoleAdminChanged",
      "type": "event"
    },
    {
      "anonymous": false,
      "inputs": [
        {
          "indexed": true,
          "internalType": "bytes32",
          "name": "role",
          "type": "bytes32"
        },
        {
          "indexed": true,
          "internalType": "address",
          "name": "account",
          "type": "address"
        },
        {
          "indexed": true,
          "internalType": "address",
          "name": "sender",
          "type": "address"
        }
      ],
      "name": "RoleGranted",
      "type": "event"
    },
    {
      "anonymous": false,
      "inputs": [
        {
          "indexed": true,
          "internalType": "bytes32",
          "name": "role",
          "type": "bytes32"
        },
        {
          "indexed": true,
          "internalType": "address",
          "name": "account",
          "type": "address"
        },
        {
          "indexed": true,
          "internalType": "address",
          "name": "sender",
          "type": "address"
        }
      ],
      "name": "RoleRevoked",
      "type": "event"
    },
    {
      "anonymous": false,
      "inputs": [
        {
          "indexed": true,
          "internalType": "address",
          "name": "from",
          "type": "address"
        },
        {
          "indexed": true,
          "internalType": "address",
          "name": "to",
          "type": "address"
        },
        {
          "indexed": true,
          "internalType": "uint256",
          "name": "tokenId",
          "type": "uint256"
        }
      ],
      "name": "Transfer",
      "type": "event"
    },
    {
      "anonymous": false,
      "inputs": [
        {
          "indexed": false,
          "internalType": "address",
          "name": "account",
          "type": "address"
        }
      ],
      "name": "Unpaused",
      "type": "event"
    },
    {
      "inputs": [],
      "name": "DEFAULT_ADMIN_ROLE",
      "outputs": [
        {
          "internalType": "bytes32",
          "name": "",
          "type": "bytes32"
        }
      ],
      "stateMutability": "view",
      "type": "function"
    },
    {
      "inputs": [],
      "name": "MINTER_ROLE",
      "outputs": [
        {
          "internalType": "bytes32",
          "name": "",
          "type": "bytes32"
        }
      ],
      "stateMutability": "view",
      "type": "function"
    },
    {
      "inputs": [],
      "name": "PAUSER_ROLE",
      "outputs": [
        {
          "internalType": "bytes32",
          "name": "",
          "type": "bytes32"
        }
      ],
      "stateMutability": "view",
      "type": "function"
    },
    {
      "inputs": [
        {
          "internalType": "address",
          "name": "to",
          "type": "address"
        },
        {
          "internalType": "uint256",
          "name": "tokenId",
          "type": "uint256"
        }
      ],
      "name": "approve",
      "outputs": [],
      "stateMutability": "nonpayable",
      "type": "function"
    },
    {
      "inputs": [
        {
          "internalType": "address",
          "name": "owner",
          "type": "address"
        }
      ],
      "name": "balanceOf",
      "outputs": [
        {
          "internalType": "uint256",
          "name": "",
          "type": "uint256"
        }
      ],
      "stateMutability": "view",
      "type": "function"
    },
    {
      "inputs": [
        {
          "internalType": "uint256",
          "name": "tokenId",
          "type": "uint256"
        }
      ],
      "name": "burn",
      "outputs": [],
      "stateMutability": "nonpayable",
      "type": "function"
    },
    {
      "inputs": [
        {
          "internalType": "uint256",
          "name": "tokenId",
          "type": "uint256"
        }
      ],
      "name": "getApproved",
      "outputs": [
        {
          "internalType": "address",
          "name": "",
          "type": "address"
        }
      ],
      "stateMutability": "view",
      "type": "function"
    },
    {
      "inputs": [
        {
          "internalType": "bytes32",
          "name": "role",
          "type": "bytes32"
        }
      ],
      "name": "getRoleAdmin",
      "outputs": [
        {
          "internalType": "bytes32",
          "name": "",
          "type": "bytes32"
        }
      ],
      "stateMutability": "view",
      "type": "function"
    },
    {
      "inputs": [
        {
          "internalType": "bytes32",
          "name": "role",
          "type": "bytes32"
        },
        {
          "internalType": "address",
          "name": "account",
          "type": "address"
        }
      ],
      "name": "grantRole",
      "outputs": [],
      "stateMutability": "nonpayable",
      "type": "function"
    },
    {
      "inputs": [
        {
          "internalType": "bytes32",
          "name": "role",
          "type": "bytes32"
        },
        {
          "internalType": "address",
          "name": "account",
          "type": "address"
        }
      ],
      "name": "hasRole",
      "outputs": [
        {
          "internalType": "bool",
          "name": "",
          "type": "bool"
        }
      ],
      "stateMutability": "view",
      "type": "function"
    },
    {
      "inputs": [
        {
          "internalType": "address",
          "name": "owner",
          "type": "address"
        },
        {
          "internalType": "address",
          "name": "operator",
          "type": "address"
        }
      ],
      "name": "isApprovedForAll",
      "outputs": [
        {
          "internalType": "bool",
          "name": "",
          "type": "bool"
        }
      ],
      "stateMutability": "view",
      "type": "function"
    },
    {
      "inputs": [],
      "name": "name",
      "outputs": [
        {
          "internalType": "string",
          "name": "",
          "type": "string"
        }
      ],
      "stateMutability": "view",
      "type": "function"
    },
    {
      "inputs": [
        {
          "internalType": "uint256",
          "name": "tokenId",
          "type": "uint256"
        }
      ],
      "name": "ownerOf",
      "outputs": [
        {
          "internalType": "address",
          "name": "",
          "type": "address"
        }
      ],
      "stateMutability": "view",
      "type": "function"
    },
    {
      "inputs": [],
      "name": "pause",
      "outputs": [],
      "stateMutability": "nonpayable",
      "type": "function"
    },
    {
      "inputs": [],
      "name": "paused",
      "outputs": [
        {
          "internalType": "bool",
          "name": "",
          "type": "bool"
        }
      ],
      "stateMutability": "view",
      "type": "function"
    },
    {
      "inputs": [
        {
          "internalType": "bytes32",
          "name": "role",
          "type": "bytes32"
        },
        {
          "internalType": "address",
          "name": "account",
          "type": "address"
        }
      ],
      "name": "renounceRole",
      "outputs": [],
      "stateMutability": "nonpayable",
      "type": "function"
    },
    {
      "inputs": [
        {
          "internalType": "bytes32",
          "name": "role",
          "type": "bytes32"
        },
        {
          "internalType": "address",
          "name": "account",
          "type": "address"
        }
      ],
      "name": "revokeRole",
      "outputs": [],
      "stateMutability": "nonpayable",
      "type": "function"
    },
    {
      "inputs": [
        {
          "internalType": "address",
          "name": "to",
          "type": "address"
        }
      ],
      "name": "safeMint",
      "outputs": [],
      "stateMutability": "nonpayable",
      "type": "function"
    },
    {
      "inputs": [
        {
          "internalType": "address",
          "name": "from",
          "type": "address"
        },
        {
          "internalType": "address",
          "name": "to",
          "type": "address"
        },
        {
          "internalType": "uint256",
          "name": "tokenId",
          "type": "uint256"
        }
      ],
      "name": "safeTransferFrom",
      "outputs": [],
      "stateMutability": "nonpayable",
      "type": "function"
    },
    {
      "inputs": [
        {
          "internalType": "address",
          "name": "from",
          "type": "address"
        },
        {
          "internalType": "address",
          "name": "to",
          "type": "address"
        },
        {
          "internalType": "uint256",
          "name": "tokenId",
          "type": "uint256"
        },
        {
          "internalType": "bytes",
          "name": "data",
          "type": "bytes"
        }
      ],
      "name": "safeTransferFrom",
      "outputs": [],
      "stateMutability": "nonpayable",
      "type": "function"
    },
    {
      "inputs": [
        {
          "internalType": "address",
          "name": "operator",
          "type": "address"
        },
        {
          "internalType": "bool",
          "name": "approved",
          "type": "bool"
        }
      ],
      "name": "setApprovalForAll",
      "outputs": [],
      "stateMutability": "nonpayable",
      "type": "function"
    },
    {
      "inputs": [
        {
          "internalType": "bytes4",
          "name": "interfaceId",
          "type": "bytes4"
        }
      ],
      "name": "supportsInterface",
      "outputs": [
        {
          "internalType": "bool",
          "name": "",
          "type": "bool"
        }
      ],
      "stateMutability": "view",
      "type": "function"
    },
    {
      "inputs": [],
      "name": "symbol",
      "outputs": [
        {
          "internalType": "string",
          "name": "",
          "type": "string"
        }
      ],
      "stateMutability": "view",
      "type": "function"
    },
    {
      "inputs": [
        {
          "internalType": "uint256",
          "name": "index",
          "type": "uint256"
        }
      ],
      "name": "tokenByIndex",
      "outputs": [
        {
          "internalType": "uint256",
          "name": "",
          "type": "uint256"
        }
      ],
      "stateMutability": "view",
      "type": "function"
    },
    {
      "inputs": [
        {
          "internalType": "address",
          "name": "owner",
          "type": "address"
        },
        {
          "internalType": "uint256",
          "name": "index",
          "type": "uint256"
        }
      ],
      "name": "tokenOfOwnerByIndex",
      "outputs": [
        {
          "internalType": "uint256",
          "name": "",
          "type": "uint256"
        }
      ],
      "stateMutability": "view",
      "type": "function"
    },
    {
      "inputs": [
        {
          "internalType": "uint256",
          "name": "tokenId",
          "type": "uint256"
        }
      ],
      "name": "tokenURI",
      "outputs": [
        {
          "internalType": "string",
          "name": "",
          "type": "string"
        }
      ],
      "stateMutability": "view",
      "type": "function"
    },
    {
      "inputs": [],
      "name": "totalSupply",
      "outputs": [
        {
          "internalType": "uint256",
          "name": "",
          "type": "uint256"
        }
      ],
      "stateMutability": "view",
      "type": "function"
    },
    {
      "inputs": [
        {
          "internalType": "address",
          "name": "from",
          "type": "address"
        },
        {
          "internalType": "address",
          "name": "to",
          "type": "address"
        },
        {
          "internalType": "uint256",
          "name": "tokenId",
          "type": "uint256"
        }
      ],
      "name": "transferFrom",
      "outputs": [],
      "stateMutability": "nonpayable",
      "type": "function"
    },
    {
      "inputs": [],
      "name": "unpause",
      "outputs": [],
      "stateMutability": "nonpayable",
      "type": "function"
    }
  ],
  "bytecode": "0x60806040523480156200001157600080fd5b506040518060400160405280600a81526020017f4d79546f6b656e373231000000000000000000000000000000000000000000008152506040518060400160405280600381526020017f4d544b000000000000000000000000000000000000000000000000000000000081525081600090816200008f91906200051d565b508060019081620000a191906200051d565b5050506000600a60006101000a81548160ff021916908315150217905550620000d46000801b336200013e60201b60201c565b620001067f65d7a28e3265b37a6474929f336521b332c1681b933f6cb9f3376673440d862a336200013e60201b60201c565b620001387f9f2df0fed2c77648de5860a4cc508cd0818c85b8b8a1ab4ceeef8d981c8956a6336200013e60201b60201c565b62000604565b6200015082826200023060201b60201c565b6200022c576001600b600084815260200190815260200160002060000160008373ffffffffffffffffffffffffffffffffffffffff1673ffffffffffffffffffffffffffffffffffffffff16815260200190815260200160002060006101000a81548160ff021916908315150217905550620001d16200029b60201b60201c565b73ffffffffffffffffffffffffffffffffffffffff168173ffffffffffffffffffffffffffffffffffffffff16837f2f8788117e7eff1d82e926ec794901d17c78024a50270940304540a733656f0d60405160405180910390a45b5050565b6000600b600084815260200190815260200160002060000160008373ffffffffffffffffffffffffffffffffffffffff1673ffffffffffffffffffffffffffffffffffffffff16815260200190815260200160002060009054906101000a900460ff16905092915050565b600033905090565b600081519050919050565b7f4e487b7100000000000000000000000000000000000000000000000000000000600052604160045260246000fd5b7f4e487b7100000000000000000000000000000000000000000000000000000000600052602260045260246000fd5b600060028204905060018216806200032557607f821691505b6020821081036200033b576200033a620002dd565b5b50919050565b60008190508160005260206000209050919050565b60006020601f8301049050919050565b600082821b905092915050565b600060088302620003a57fffffffffffffffffffffffffffffffffffffffffffffffffffffffffffffffff8262000366565b620003b1868362000366565b95508019841693508086168417925050509392505050565b6000819050919050565b6000819050919050565b6000620003fe620003f8620003f284620003c9565b620003d3565b620003c9565b9050919050565b6000819050919050565b6200041a83620003dd565b62000432620004298262000405565b84845462000373565b825550505050565b600090565b620004496200043a565b620004568184846200040f565b505050565b5b818110156200047e57620004726000826200043f565b6001810190506200045c565b5050565b601f821115620004cd57620004978162000341565b620004a28462000356565b81016020851015620004b2578190505b620004ca620004c18562000356565b8301826200045b565b50505b505050565b600082821c905092915050565b6000620004f260001984600802620004d2565b1980831691505092915050565b60006200050d8383620004df565b9150826002028217905092915050565b6200052882620002a3565b67ffffffffffffffff811115620005445762000543620002ae565b5b6200055082546200030c565b6200055d82828562000482565b600060209050601f83116001811462000595576000841562000580578287015190505b6200058c8582620004ff565b865550620005fc565b601f198416620005a58662000341565b60005b82811015620005cf57848901518255600182019150602085019450602081019050620005a8565b86831015620005ef5784890151620005eb601f891682620004df565b8355505b6001600288020188555050505b505050505050565b613f1380620006146000396000f3fe608060405234801561001057600080fd5b50600436106101cf5760003560e01c80634f6ccce711610104578063a217fddf116100a2578063d539139311610071578063d53913931461052a578063d547741f14610548578063e63ab1e914610564578063e985e9c514610582576101cf565b8063a217fddf146104a4578063a22cb465146104c2578063b88d4fde146104de578063c87b56dd146104fa576101cf565b806370a08231116100de57806370a082311461041c5780638456cb591461044c57806391d148541461045657806395d89b4114610486576101cf565b80634f6ccce71461039e5780635c975abb146103ce5780636352211e146103ec576101cf565b80632f2ff15d116101715780633f4ba83a1161014b5780633f4ba83a1461034057806340d097c31461034a57806342842e0e1461036657806342966c6814610382576101cf565b80632f2ff15d146102d85780632f745c59146102f457806336568abe14610324576101cf565b8063095ea7b3116101ad578063095ea7b31461025257806318160ddd1461026e57806323b872dd1461028c578063248a9ca3146102a8576101cf565b806301ffc9a7146101d457806306fdde0314610204578063081812fc14610222575b600080fd5b6101ee60048036038101906101e99190612b84565b6105b2565b6040516101fb9190612bcc565b60405180910390f35b61020c6105c4565b6040516102199190612c77565b60405180910390f35b61023c60048036038101906102379190612ccf565b610656565b6040516102499190612d3d565b60405180910390f35b61026c60048036038101906102679190612d84565b61069c565b005b6102766107b3565b6040516102839190612dd3565b60405180910390f35b6102a660048036038101906102a19190612dee565b6107c0565b005b6102c260048036038101906102bd9190612e77565b610820565b6040516102cf9190612eb3565b60405180910390f35b6102f260048036038101906102ed9190612ece565b610840565b005b61030e60048036038101906103099190612d84565b610861565b60405161031b9190612dd3565b60405180910390f35b61033e60048036038101906103399190612ece565b610906565b005b610348610989565b005b610364600480360381019061035f9190612f0e565b6109be565b005b610380600480360381019061037b9190612dee565b610a0f565b005b61039c60048036038101906103979190612ccf565b610a2f565b005b6103b860048036038101906103b39190612ccf565b610a8b565b6040516103c59190612dd3565b60405180910390f35b6103d6610afc565b6040516103e39190612bcc565b60405180910390f35b61040660048036038101906104019190612ccf565b610b13565b6040516104139190612d3d565b60405180910390f35b61043660048036038101906104319190612f0e565b610b99565b6040516104439190612dd3565b60405180910390f35b610454610c50565b005b610470600480360381019061046b9190612ece565b610c85565b60405161047d9190612bcc565b60405180910390f35b61048e610cf0565b60405161049b9190612c77565b60405180910390f35b6104ac610d82565b6040516104b99190612eb3565b60405180910390f35b6104dc60048036038101906104d79190612f67565b610d89565b005b6104f860048036038101906104f391906130dc565b610d9f565b005b610514600480360381019061050f9190612ccf565b610e01565b6040516105219190612c77565b60405180910390f35b610532610e69565b60405161053f9190612eb3565b60405180910390f35b610562600480360381019061055d9190612ece565b610e8d565b005b61056c610eae565b6040516105799190612eb3565b60405180910390f35b61059c6004803603810190610597919061315f565b610ed2565b6040516105a99190612bcc565b60405180910390f35b60006105bd82610f66565b9050919050565b6060600080546105d3906131ce565b80601f01602080910402602001604051908101604052809291908181526020018280546105ff906131ce565b801561064c5780601f106106215761010080835404028352916020019161064c565b820191906000526020600020905b81548152906001019060200180831161062f57829003601f168201915b5050505050905090565b600061066182610fe0565b6004600083815260200190815260200160002060009054906101000a900473ffffffffffffffffffffffffffffffffffffffff169050919050565b60006106a782610b13565b90508073ffffffffffffffffffffffffffffffffffffffff168373ffffffffffffffffffffffffffffffffffffffff1603610717576040517f08c379a000000000000000000000000000000000000000000000000000000000815260040161070e90613271565b60405180910390fd5b8073ffffffffffffffffffffffffffffffffffffffff1661073661102b565b73ffffffffffffffffffffffffffffffffffffffff16148061076557506107648161075f61102b565b610ed2565b5b6107a4576040517f08c379a000000000000000000000000000000000000000000000000000000000815260040161079b90613303565b60405180910390fd5b6107ae8383611033565b505050565b6000600880549050905090565b6107d16107cb61102b565b826110ec565b610810576040517f08c379a000000000000000000000000000000000000000000000000000000000815260040161080790613395565b60405180910390fd5b61081b838383611181565b505050565b6000600b6000838152602001908152602001600020600101549050919050565b61084982610820565b6108528161147a565b61085c838361148e565b505050565b600061086c83610b99565b82106108ad576040517f08c379a00000000000000000000000000000000000000000000000000000000081526004016108a490613427565b60405180910390fd5b600660008473ffffffffffffffffffffffffffffffffffffffff1673ffffffffffffffffffffffffffffffffffffffff168152602001908152602001600020600083815260200190815260200160002054905092915050565b61090e61102b565b73ffffffffffffffffffffffffffffffffffffffff168173ffffffffffffffffffffffffffffffffffffffff161461097b576040517f08c379a0000000000000000000000000000000000000000000000000000000008152600401610972906134b9565b60405180910390fd5b610985828261156f565b5050565b7f65d7a28e3265b37a6474929f336521b332c1681b933f6cb9f3376673440d862a6109b38161147a565b6109bb611651565b50565b7f9f2df0fed2c77648de5860a4cc508cd0818c85b8b8a1ab4ceeef8d981c8956a66109e88161147a565b60006109f4600c6116b4565b9050610a00600c6116c2565b610a0a83826116d8565b505050565b610a2a83838360405180602001604052806000815250610d9f565b505050565b610a40610a3a61102b565b826110ec565b610a7f576040517f08c379a0000000000000000000000000000000000000000000000000000000008152600401610a7690613395565b60405180910390fd5b610a88816116f6565b50565b6000610a956107b3565b8210610ad6576040517f08c379a0000000000000000000000000000000000000000000000000000000008152600401610acd9061354b565b60405180910390fd5b60088281548110610aea57610ae961356b565b5b90600052602060002001549050919050565b6000600a60009054906101000a900460ff16905090565b600080610b1f83611844565b9050600073ffffffffffffffffffffffffffffffffffffffff168173ffffffffffffffffffffffffffffffffffffffff1603610b90576040517f08c379a0000000000000000000000000000000000000000000000000000000008152600401610b87906135e6565b60405180910390fd5b80915050919050565b60008073ffffffffffffffffffffffffffffffffffffffff168273ffffffffffffffffffffffffffffffffffffffff1603610c09576040517f08c379a0000000000000000000000000000000000000000000000000000000008152600401610c0090613678565b60405180910390fd5b600360008373ffffffffffffffffffffffffffffffffffffffff1673ffffffffffffffffffffffffffffffffffffffff168152602001908152602001600020549050919050565b7f65d7a28e3265b37a6474929f336521b332c1681b933f6cb9f3376673440d862a610c7a8161147a565b610c82611881565b50565b6000600b600084815260200190815260200160002060000160008373ffffffffffffffffffffffffffffffffffffffff1673ffffffffffffffffffffffffffffffffffffffff16815260200190815260200160002060009054906101000a900460ff16905092915050565b606060018054610cff906131ce565b80601f0160208091040260200160405190810160405280929190818152602001828054610d2b906131ce565b8015610d785780601f10610d4d57610100808354040283529160200191610d78565b820191906000526020600020905b815481529060010190602001808311610d5b57829003601f168201915b5050505050905090565b6000801b81565b610d9b610d9461102b565b83836118e4565b5050565b610db0610daa61102b565b836110ec565b610def576040517f08c379a0000000000000000000000000000000000000000000000000000000008152600401610de690613395565b60405180910390fd5b610dfb84848484611a50565b50505050565b6060610e0c82610fe0565b6000610e16611aac565b90506000815111610e365760405180602001604052806000815250610e61565b80610e4084611ac3565b604051602001610e519291906136d4565b6040516020818303038152906040525b915050919050565b7f9f2df0fed2c77648de5860a4cc508cd0818c85b8b8a1ab4ceeef8d981c8956a681565b610e9682610820565b610e9f8161147a565b610ea9838361156f565b505050565b7f65d7a28e3265b37a6474929f336521b332c1681b933f6cb9f3376673440d862a81565b6000600560008473ffffffffffffffffffffffffffffffffffffffff1673ffffffffffffffffffffffffffffffffffffffff16815260200190815260200160002060008373ffffffffffffffffffffffffffffffffffffffff1673ffffffffffffffffffffffffffffffffffffffff16815260200190815260200160002060009054906101000a900460ff16905092915050565b60007f7965db0b000000000000000000000000000000000000000000000000000000007bffffffffffffffffffffffffffffffffffffffffffffffffffffffff1916827bffffffffffffffffffffffffffffffffffffffffffffffffffffffff19161480610fd95750610fd882611b91565b5b9050919050565b610fe981611c0b565b611028576040517f08c379a000000000000000000000000000000000000000000000000000000000815260040161101f906135e6565b60405180910390fd5b50565b600033905090565b816004600083815260200190815260200160002060006101000a81548173ffffffffffffffffffffffffffffffffffffffff021916908373ffffffffffffffffffffffffffffffffffffffff160217905550808273ffffffffffffffffffffffffffffffffffffffff166110a683610b13565b73ffffffffffffffffffffffffffffffffffffffff167f8c5be1e5ebec7d5bd14f71427d1e84f3dd0314c0f7b2291e5b200ac8c7c3b92560405160405180910390a45050565b6000806110f883610b13565b90508073ffffffffffffffffffffffffffffffffffffffff168473ffffffffffffffffffffffffffffffffffffffff16148061113a57506111398185610ed2565b5b8061117857508373ffffffffffffffffffffffffffffffffffffffff1661116084610656565b73ffffffffffffffffffffffffffffffffffffffff16145b91505092915050565b8273ffffffffffffffffffffffffffffffffffffffff166111a182610b13565b73ffffffffffffffffffffffffffffffffffffffff16146111f7576040517f08c379a00000000000000000000000000000000000000000000000000000000081526004016111ee9061376a565b60405180910390fd5b600073ffffffffffffffffffffffffffffffffffffffff168273ffffffffffffffffffffffffffffffffffffffff1603611266576040517f08c379a000000000000000000000000000000000000000000000000000000000815260040161125d906137fc565b60405180910390fd5b6112738383836001611c4c565b8273ffffffffffffffffffffffffffffffffffffffff1661129382610b13565b73ffffffffffffffffffffffffffffffffffffffff16146112e9576040517f08c379a00000000000000000000000000000000000000000000000000000000081526004016112e09061376a565b60405180910390fd5b6004600082815260200190815260200160002060006101000a81549073ffffffffffffffffffffffffffffffffffffffff02191690556001600360008573ffffffffffffffffffffffffffffffffffffffff1673ffffffffffffffffffffffffffffffffffffffff168152602001908152602001600020600082825403925050819055506001600360008473ffffffffffffffffffffffffffffffffffffffff1673ffffffffffffffffffffffffffffffffffffffff16815260200190815260200160002060008282540192505081905550816002600083815260200190815260200160002060006101000a81548173ffffffffffffffffffffffffffffffffffffffff021916908373ffffffffffffffffffffffffffffffffffffffff160217905550808273ffffffffffffffffffffffffffffffffffffffff168473ffffffffffffffffffffffffffffffffffffffff167fddf252ad1be2c89b69c2b068fc378daa952ba7f163c4a11628f55a4df523b3ef60405160405180910390a46114758383836001611c66565b505050565b61148b8161148661102b565b611c6c565b50565b6114988282610c85565b61156b576001600b600084815260200190815260200160002060000160008373ffffffffffffffffffffffffffffffffffffffff1673ffffffffffffffffffffffffffffffffffffffff16815260200190815260200160002060006101000a81548160ff02191690831515021790555061151061102b565b73ffffffffffffffffffffffffffffffffffffffff168173ffffffffffffffffffffffffffffffffffffffff16837f2f8788117e7eff1d82e926ec794901d17c78024a50270940304540a733656f0d60405160405180910390a45b5050565b6115798282610c85565b1561164d576000600b600084815260200190815260200160002060000160008373ffffffffffffffffffffffffffffffffffffffff1673ffffffffffffffffffffffffffffffffffffffff16815260200190815260200160002060006101000a81548160ff0219169083151502179055506115f261102b565b73ffffffffffffffffffffffffffffffffffffffff168173ffffffffffffffffffffffffffffffffffffffff16837ff6391f5c32d9c69d2a47ea670b442974b53935d1edc7fd64eb21e047a839171b60405160405180910390a45b5050565b611659611cf1565b6000600a60006101000a81548160ff0219169083151502179055507f5db9ee0a495bf2e6ff9c91a7834c1ba4fdd244a5e8aa4e537bd38aeae4b073aa61169d61102b565b6040516116aa9190612d3d565b60405180910390a1565b600081600001549050919050565b6001816000016000828254019250508190555050565b6116f2828260405180602001604052806000815250611d3a565b5050565b600061170182610b13565b9050611711816000846001611c4c565b61171a82610b13565b90506004600083815260200190815260200160002060006101000a81549073ffffffffffffffffffffffffffffffffffffffff02191690556001600360008373ffffffffffffffffffffffffffffffffffffffff1673ffffffffffffffffffffffffffffffffffffffff168152602001908152602001600020600082825403925050819055506002600083815260200190815260200160002060006101000a81549073ffffffffffffffffffffffffffffffffffffffff021916905581600073ffffffffffffffffffffffffffffffffffffffff168273ffffffffffffffffffffffffffffffffffffffff167fddf252ad1be2c89b69c2b068fc378daa952ba7f163c4a11628f55a4df523b3ef60405160405180910390a4611840816000846001611c66565b5050565b60006002600083815260200190815260200160002060009054906101000a900473ffffffffffffffffffffffffffffffffffffffff169050919050565b611889611d95565b6001600a60006101000a81548160ff0219169083151502179055507f62e78cea01bee320cd4e420270b5ea74000d11b0c9f74754ebdbfc544b05a2586118cd61102b565b6040516118da9190612d3d565b60405180910390a1565b8173ffffffffffffffffffffffffffffffffffffffff168373ffffffffffffffffffffffffffffffffffffffff1603611952576040517f08c379a000000000000000000000000000000000000000000000000000000000815260040161194990613868565b60405180910390fd5b80600560008573ffffffffffffffffffffffffffffffffffffffff1673ffffffffffffffffffffffffffffffffffffffff16815260200190815260200160002060008473ffffffffffffffffffffffffffffffffffffffff1673ffffffffffffffffffffffffffffffffffffffff16815260200190815260200160002060006101000a81548160ff0219169083151502179055508173ffffffffffffffffffffffffffffffffffffffff168373ffffffffffffffffffffffffffffffffffffffff167f17307eab39ab6107e8899845ad3d59bd9653f200f220920489ca2b5937696c3183604051611a439190612bcc565b60405180910390a3505050565b611a5b848484611181565b611a6784848484611ddf565b611aa6576040517f08c379a0000000000000000000000000000000000000000000000000000000008152600401611a9d906138fa565b60405180910390fd5b50505050565b606060405180602001604052806000815250905090565b606060006001611ad284611f66565b01905060008167ffffffffffffffff811115611af157611af0612fb1565b5b6040519080825280601f01601f191660200182016040528015611b235781602001600182028036833780820191505090505b509050600082602001820190505b600115611b86578080600190039150507f3031323334353637383961626364656600000000000000000000000000000000600a86061a8153600a8581611b7a57611b7961391a565b5b04945060008503611b31575b819350505050919050565b60007f780e9d63000000000000000000000000000000000000000000000000000000007bffffffffffffffffffffffffffffffffffffffffffffffffffffffff1916827bffffffffffffffffffffffffffffffffffffffffffffffffffffffff19161480611c045750611c03826120b9565b5b9050919050565b60008073ffffffffffffffffffffffffffffffffffffffff16611c2d83611844565b73ffffffffffffffffffffffffffffffffffffffff1614159050919050565b611c54611d95565b611c608484848461219b565b50505050565b50505050565b611c768282610c85565b611ced57611c83816122f9565b611c918360001c6020612326565b604051602001611ca29291906139e1565b6040516020818303038152906040526040517f08c379a0000000000000000000000000000000000000000000000000000000008152600401611ce49190612c77565b60405180910390fd5b5050565b611cf9610afc565b611d38576040517f08c379a0000000000000000000000000000000000000000000000000000000008152600401611d2f90613a67565b60405180910390fd5b565b611d448383612562565b611d516000848484611ddf565b611d90576040517f08c379a0000000000000000000000000000000000000000000000000000000008152600401611d87906138fa565b60405180910390fd5b505050565b611d9d610afc565b15611ddd576040517f08c379a0000000000000000000000000000000000000000000000000000000008152600401611dd490613ad3565b60405180910390fd5b565b6000611e008473ffffffffffffffffffffffffffffffffffffffff1661277f565b15611f59578373ffffffffffffffffffffffffffffffffffffffff1663150b7a02611e2961102b565b8786866040518563ffffffff1660e01b8152600401611e4b9493929190613b48565b6020604051808303816000875af1925050508015611e8757506040513d601f19601f82011682018060405250810190611e849190613ba9565b60015b611f09573d8060008114611eb7576040519150601f19603f3d011682016040523d82523d6000602084013e611ebc565b606091505b506000815103611f01576040517f08c379a0000000000000000000000000000000000000000000000000000000008152600401611ef8906138fa565b60405180910390fd5b805181602001fd5b63150b7a0260e01b7bffffffffffffffffffffffffffffffffffffffffffffffffffffffff1916817bffffffffffffffffffffffffffffffffffffffffffffffffffffffff191614915050611f5e565b600190505b949350505050565b600080600090507a184f03e93ff9f4daa797ed6e38ed64bf6a1f0100000000000000008310611fc4577a184f03e93ff9f4daa797ed6e38ed64bf6a1f0100000000000000008381611fba57611fb961391a565b5b0492506040810190505b6d04ee2d6d415b85acef81000000008310612001576d04ee2d6d415b85acef81000000008381611ff757611ff661391a565b5b0492506020810190505b662386f26fc10000831061203057662386f26fc1000083816120265761202561391a565b5b0492506010810190505b6305f5e1008310612059576305f5e100838161204f5761204e61391a565b5b0492506008810190505b612710831061207e5761271083816120745761207361391a565b5b0492506004810190505b606483106120a157606483816120975761209661391a565b5b0492506002810190505b600a83106120b0576001810190505b80915050919050565b60007f80ac58cd000000000000000000000000000000000000000000000000000000007bffffffffffffffffffffffffffffffffffffffffffffffffffffffff1916827bffffffffffffffffffffffffffffffffffffffffffffffffffffffff1916148061218457507f5b5e139f000000000000000000000000000000000000000000000000000000007bffffffffffffffffffffffffffffffffffffffffffffffffffffffff1916827bffffffffffffffffffffffffffffffffffffffffffffffffffffffff1916145b806121945750612193826127a2565b5b9050919050565b6121a78484848461280c565b60018111156121eb576040517f08c379a00000000000000000000000000000000000000000000000000000000081526004016121e290613c48565b60405180910390fd5b6000829050600073ffffffffffffffffffffffffffffffffffffffff168573ffffffffffffffffffffffffffffffffffffffff16036122325761222d81612812565b612271565b8373ffffffffffffffffffffffffffffffffffffffff168573ffffffffffffffffffffffffffffffffffffffff16146122705761226f858261285b565b5b5b600073ffffffffffffffffffffffffffffffffffffffff168473ffffffffffffffffffffffffffffffffffffffff16036122b3576122ae816129c8565b6122f2565b8473ffffffffffffffffffffffffffffffffffffffff168473ffffffffffffffffffffffffffffffffffffffff16146122f1576122f08482612a99565b5b5b5050505050565b606061231f8273ffffffffffffffffffffffffffffffffffffffff16601460ff16612326565b9050919050565b6060600060028360026123399190613c97565b6123439190613cd9565b67ffffffffffffffff81111561235c5761235b612fb1565b5b6040519080825280601f01601f19166020018201604052801561238e5781602001600182028036833780820191505090505b5090507f3000000000000000000000000000000000000000000000000000000000000000816000815181106123c6576123c561356b565b5b60200101907effffffffffffffffffffffffffffffffffffffffffffffffffffffffffffff1916908160001a9053507f78000000000000000000000000000000000000000000000000000000000000008160018151811061242a5761242961356b565b5b60200101907effffffffffffffffffffffffffffffffffffffffffffffffffffffffffffff1916908160001a9053506000600184600261246a9190613c97565b6124749190613cd9565b90505b6001811115612514577f3031323334353637383961626364656600000000000000000000000000000000600f8616601081106124b6576124b561356b565b5b1a60f81b8282815181106124cd576124cc61356b565b5b60200101907effffffffffffffffffffffffffffffffffffffffffffffffffffffffffffff1916908160001a905350600485901c94508061250d90613d0d565b9050612477565b5060008414612558576040517f08c379a000000000000000000000000000000000000000000000000000000000815260040161254f90613d82565b60405180910390fd5b8091505092915050565b600073ffffffffffffffffffffffffffffffffffffffff168273ffffffffffffffffffffffffffffffffffffffff16036125d1576040517f08c379a00000000000000000000000000000000000000000000000000000000081526004016125c890613dee565b60405180910390fd5b6125da81611c0b565b1561261a576040517f08c379a000000000000000000000000000000000000000000000000000000000815260040161261190613e5a565b60405180910390fd5b612628600083836001611c4c565b61263181611c0b565b15612671576040517f08c379a000000000000000000000000000000000000000000000000000000000815260040161266890613e5a565b60405180910390fd5b6001600360008473ffffffffffffffffffffffffffffffffffffffff1673ffffffffffffffffffffffffffffffffffffffff16815260200190815260200160002060008282540192505081905550816002600083815260200190815260200160002060006101000a81548173ffffffffffffffffffffffffffffffffffffffff021916908373ffffffffffffffffffffffffffffffffffffffff160217905550808273ffffffffffffffffffffffffffffffffffffffff16600073ffffffffffffffffffffffffffffffffffffffff167fddf252ad1be2c89b69c2b068fc378daa952ba7f163c4a11628f55a4df523b3ef60405160405180910390a461277b600083836001611c66565b5050565b6000808273ffffffffffffffffffffffffffffffffffffffff163b119050919050565b60007f01ffc9a7000000000000000000000000000000000000000000000000000000007bffffffffffffffffffffffffffffffffffffffffffffffffffffffff1916827bffffffffffffffffffffffffffffffffffffffffffffffffffffffff1916149050919050565b50505050565b6008805490506009600083815260200190815260200160002081905550600881908060018154018082558091505060019003906000526020600020016000909190919091505550565b6000600161286884610b99565b6128729190613e7a565b9050600060076000848152602001908152602001600020549050818114612957576000600660008673ffffffffffffffffffffffffffffffffffffffff1673ffffffffffffffffffffffffffffffffffffffff168152602001908152602001600020600084815260200190815260200160002054905080600660008773ffffffffffffffffffffffffffffffffffffffff1673ffffffffffffffffffffffffffffffffffffffff168152602001908152602001600020600084815260200190815260200160002081905550816007600083815260200190815260200160002081905550505b6007600084815260200190815260200160002060009055600660008573ffffffffffffffffffffffffffffffffffffffff1673ffffffffffffffffffffffffffffffffffffffff16815260200190815260200160002060008381526020019081526020016000206000905550505050565b600060016008805490506129dc9190613e7a565b9050600060096000848152602001908152602001600020549050600060088381548110612a0c57612a0b61356b565b5b906000526020600020015490508060088381548110612a2e57612a2d61356b565b5b906000526020600020018190555081600960008381526020019081526020016000208190555060096000858152602001908152602001600020600090556008805480612a7d57612a7c613eae565b5b6001900381819060005260206000200160009055905550505050565b6000612aa483610b99565b905081600660008573ffffffffffffffffffffffffffffffffffffffff1673ffffffffffffffffffffffffffffffffffffffff168152602001908152602001600020600083815260200190815260200160002081905550806007600084815260200190815260200160002081905550505050565b6000604051905090565b600080fd5b600080fd5b60007fffffffff0000000000000000000000000000000000000000000000000000000082169050919050565b612b6181612b2c565b8114612b6c57600080fd5b50565b600081359050612b7e81612b58565b92915050565b600060208284031215612b9a57612b99612b22565b5b6000612ba884828501612b6f565b91505092915050565b60008115159050919050565b612bc681612bb1565b82525050565b6000602082019050612be16000830184612bbd565b92915050565b600081519050919050565b600082825260208201905092915050565b60005b83811015612c21578082015181840152602081019050612c06565b60008484015250505050565b6000601f19601f8301169050919050565b6000612c4982612be7565b612c538185612bf2565b9350612c63818560208601612c03565b612c6c81612c2d565b840191505092915050565b60006020820190508181036000830152612c918184612c3e565b905092915050565b6000819050919050565b612cac81612c99565b8114612cb757600080fd5b50565b600081359050612cc981612ca3565b92915050565b600060208284031215612ce557612ce4612b22565b5b6000612cf384828501612cba565b91505092915050565b600073ffffffffffffffffffffffffffffffffffffffff82169050919050565b6000612d2782612cfc565b9050919050565b612d3781612d1c565b82525050565b6000602082019050612d526000830184612d2e565b92915050565b612d6181612d1c565b8114612d6c57600080fd5b50565b600081359050612d7e81612d58565b92915050565b60008060408385031215612d9b57612d9a612b22565b5b6000612da985828601612d6f565b9250506020612dba85828601612cba565b9150509250929050565b612dcd81612c99565b82525050565b6000602082019050612de86000830184612dc4565b92915050565b600080600060608486031215612e0757612e06612b22565b5b6000612e1586828701612d6f565b9350506020612e2686828701612d6f565b9250506040612e3786828701612cba565b9150509250925092565b6000819050919050565b612e5481612e41565b8114612e5f57600080fd5b50565b600081359050612e7181612e4b565b92915050565b600060208284031215612e8d57612e8c612b22565b5b6000612e9b84828501612e62565b91505092915050565b612ead81612e41565b82525050565b6000602082019050612ec86000830184612ea4565b92915050565b60008060408385031215612ee557612ee4612b22565b5b6000612ef385828601612e62565b9250506020612f0485828601612d6f565b9150509250929050565b600060208284031215612f2457612f23612b22565b5b6000612f3284828501612d6f565b91505092915050565b612f4481612bb1565b8114612f4f57600080fd5b50565b600081359050612f6181612f3b565b92915050565b60008060408385031215612f7e57612f7d612b22565b5b6000612f8c85828601612d6f565b9250506020612f9d85828601612f52565b9150509250929050565b600080fd5b600080fd5b7f4e487b7100000000000000000000000000000000000000000000000000000000600052604160045260246000fd5b612fe982612c2d565b810181811067ffffffffffffffff8211171561300857613007612fb1565b5b80604052505050565b600061301b612b18565b90506130278282612fe0565b919050565b600067ffffffffffffffff82111561304757613046612fb1565b5b61305082612c2d565b9050602081019050919050565b82818337600083830152505050565b600061307f61307a8461302c565b613011565b90508281526020810184848401111561309b5761309a612fac565b5b6130a684828561305d565b509392505050565b600082601f8301126130c3576130c2612fa7565b5b81356130d384826020860161306c565b91505092915050565b600080600080608085870312156130f6576130f5612b22565b5b600061310487828801612d6f565b945050602061311587828801612d6f565b935050604061312687828801612cba565b925050606085013567ffffffffffffffff81111561314757613146612b27565b5b613153878288016130ae565b91505092959194509250565b6000806040838503121561317657613175612b22565b5b600061318485828601612d6f565b925050602061319585828601612d6f565b9150509250929050565b7f4e487b7100000000000000000000000000000000000000000000000000000000600052602260045260246000fd5b600060028204905060018216806131e657607f821691505b6020821081036131f9576131f861319f565b5b50919050565b7f4552433732313a20617070726f76616c20746f2063757272656e74206f776e6560008201527f7200000000000000000000000000000000000000000000000000000000000000602082015250565b600061325b602183612bf2565b9150613266826131ff565b604082019050919050565b6000602082019050818103600083015261328a8161324e565b9050919050565b7f4552433732313a20617070726f76652063616c6c6572206973206e6f7420746f60008201527f6b656e206f776e6572206f7220617070726f76656420666f7220616c6c000000602082015250565b60006132ed603d83612bf2565b91506132f882613291565b604082019050919050565b6000602082019050818103600083015261331c816132e0565b9050919050565b7f4552433732313a2063616c6c6572206973206e6f7420746f6b656e206f776e6560008201527f72206f7220617070726f76656400000000000000000000000000000000000000602082015250565b600061337f602d83612bf2565b915061338a82613323565b604082019050919050565b600060208201905081810360008301526133ae81613372565b9050919050565b7f455243373231456e756d657261626c653a206f776e657220696e646578206f7560008201527f74206f6620626f756e6473000000000000000000000000000000000000000000602082015250565b6000613411602b83612bf2565b915061341c826133b5565b604082019050919050565b6000602082019050818103600083015261344081613404565b9050919050565b7f416363657373436f6e74726f6c3a2063616e206f6e6c792072656e6f756e636560008201527f20726f6c657320666f722073656c660000000000000000000000000000000000602082015250565b60006134a3602f83612bf2565b91506134ae82613447565b604082019050919050565b600060208201905081810360008301526134d281613496565b9050919050565b7f455243373231456e756d657261626c653a20676c6f62616c20696e646578206f60008201527f7574206f6620626f756e64730000000000000000000000000000000000000000602082015250565b6000613535602c83612bf2565b9150613540826134d9565b604082019050919050565b6000602082019050818103600083015261356481613528565b9050919050565b7f4e487b7100000000000000000000000000000000000000000000000000000000600052603260045260246000fd5b7f4552433732313a20696e76616c696420746f6b656e2049440000000000000000600082015250565b60006135d0601883612bf2565b91506135db8261359a565b602082019050919050565b600060208201905081810360008301526135ff816135c3565b9050919050565b7f4552433732313a2061646472657373207a65726f206973206e6f74206120766160008201527f6c6964206f776e65720000000000000000000000000000000000000000000000602082015250565b6000613662602983612bf2565b915061366d82613606565b604082019050919050565b6000602082019050818103600083015261369181613655565b9050919050565b600081905092915050565b60006136ae82612be7565b6136b88185613698565b93506136c8818560208601612c03565b80840191505092915050565b60006136e082856136a3565b91506136ec82846136a3565b91508190509392505050565b7f4552433732313a207472616e736665722066726f6d20696e636f72726563742060008201527f6f776e6572000000000000000000000000000000000000000000000000000000602082015250565b6000613754602583612bf2565b915061375f826136f8565b604082019050919050565b6000602082019050818103600083015261378381613747565b9050919050565b7f4552433732313a207472616e7366657220746f20746865207a65726f2061646460008201527f7265737300000000000000000000000000000000000000000000000000000000602082015250565b60006137e6602483612bf2565b91506137f18261378a565b604082019050919050565b60006020820190508181036000830152613815816137d9565b9050919050565b7f4552433732313a20617070726f766520746f2063616c6c657200000000000000600082015250565b6000613852601983612bf2565b915061385d8261381c565b602082019050919050565b6000602082019050818103600083015261388181613845565b9050919050565b7f4552433732313a207472616e7366657220746f206e6f6e20455243373231526560008201527f63656976657220696d706c656d656e7465720000000000000000000000000000602082015250565b60006138e4603283612bf2565b91506138ef82613888565b604082019050919050565b60006020820190508181036000830152613913816138d7565b9050919050565b7f4e487b7100000000000000000000000000000000000000000000000000000000600052601260045260246000fd5b7f416363657373436f6e74726f6c3a206163636f756e7420000000000000000000600082015250565b600061397f601783613698565b915061398a82613949565b601782019050919050565b7f206973206d697373696e6720726f6c6520000000000000000000000000000000600082015250565b60006139cb601183613698565b91506139d682613995565b601182019050919050565b60006139ec82613972565b91506139f882856136a3565b9150613a03826139be565b9150613a0f82846136a3565b91508190509392505050565b7f5061757361626c653a206e6f7420706175736564000000000000000000000000600082015250565b6000613a51601483612bf2565b9150613a5c82613a1b565b602082019050919050565b60006020820190508181036000830152613a8081613a44565b9050919050565b7f5061757361626c653a2070617573656400000000000000000000000000000000600082015250565b6000613abd601083612bf2565b9150613ac882613a87565b602082019050919050565b60006020820190508181036000830152613aec81613ab0565b9050919050565b600081519050919050565b600082825260208201905092915050565b6000613b1a82613af3565b613b248185613afe565b9350613b34818560208601612c03565b613b3d81612c2d565b840191505092915050565b6000608082019050613b5d6000830187612d2e565b613b6a6020830186612d2e565b613b776040830185612dc4565b8181036060830152613b898184613b0f565b905095945050505050565b600081519050613ba381612b58565b92915050565b600060208284031215613bbf57613bbe612b22565b5b6000613bcd84828501613b94565b91505092915050565b7f455243373231456e756d657261626c653a20636f6e736563757469766520747260008201527f616e7366657273206e6f7420737570706f727465640000000000000000000000602082015250565b6000613c32603583612bf2565b9150613c3d82613bd6565b604082019050919050565b60006020820190508181036000830152613c6181613c25565b9050919050565b7f4e487b7100000000000000000000000000000000000000000000000000000000600052601160045260246000fd5b6000613ca282612c99565b9150613cad83612c99565b9250828202613cbb81612c99565b91508282048414831517613cd257613cd1613c68565b5b5092915050565b6000613ce482612c99565b9150613cef83612c99565b9250828201905080821115613d0757613d06613c68565b5b92915050565b6000613d1882612c99565b915060008203613d2b57613d2a613c68565b5b600182039050919050565b7f537472696e67733a20686578206c656e67746820696e73756666696369656e74600082015250565b6000613d6c602083612bf2565b9150613d7782613d36565b602082019050919050565b60006020820190508181036000830152613d9b81613d5f565b9050919050565b7f4552433732313a206d696e7420746f20746865207a65726f2061646472657373600082015250565b6000613dd8602083612bf2565b9150613de382613da2565b602082019050919050565b60006020820190508181036000830152613e0781613dcb565b9050919050565b7f4552433732313a20746f6b656e20616c7265616479206d696e74656400000000600082015250565b6000613e44601c83612bf2565b9150613e4f82613e0e565b602082019050919050565b60006020820190508181036000830152613e7381613e37565b9050919050565b6000613e8582612c99565b9150613e9083612c99565b9250828203905081811115613ea857613ea7613c68565b5b92915050565b7f4e487b7100000000000000000000000000000000000000000000000000000000600052603160045260246000fdfea26469706673582212209191e448cafc701f1f43387afffb6e4b843cccfa2f8c568dd604f7f598964c5b64736f6c63430008140033",
  "linkReferences": {},
  "deployedLinkReferences": {}
}